{
  "_format": "hh-sol-artifact-1",
  "contractName": "AccessControlContract",
  "sourceName": "contracts/AccessControl.sol",
  "abi": [
    {
      "inputs": [],
      "stateMutability": "nonpayable",
      "type": "constructor"
    },
    {
      "anonymous": false,
      "inputs": [
        {
          "indexed": true,
          "internalType": "address",
          "name": "user",
          "type": "address"
        },
        {
          "indexed": true,
          "internalType": "bytes32",
          "name": "role",
          "type": "bytes32"
        },
        {
          "indexed": false,
          "internalType": "uint256",
          "name": "expiresAt",
          "type": "uint256"
        }
      ],
      "name": "PermissionGranted",
      "type": "event"
    },
    {
      "anonymous": false,
      "inputs": [
        {
          "indexed": true,
          "internalType": "address",
          "name": "user",
          "type": "address"
        },
        {
          "indexed": true,
          "internalType": "bytes32",
          "name": "role",
          "type": "bytes32"
        }
      ],
      "name": "PermissionRevoked",
      "type": "event"
    },
    {
      "anonymous": false,
      "inputs": [
        {
          "indexed": true,
          "internalType": "bytes32",
          "name": "role",
          "type": "bytes32"
        },
        {
          "indexed": true,
          "internalType": "bytes32",
          "name": "previousAdminRole",
          "type": "bytes32"
        },
        {
          "indexed": true,
          "internalType": "bytes32",
          "name": "newAdminRole",
          "type": "bytes32"
        }
      ],
      "name": "RoleAdminChanged",
      "type": "event"
    },
    {
      "anonymous": false,
      "inputs": [
        {
          "indexed": true,
          "internalType": "bytes32",
          "name": "role",
          "type": "bytes32"
        },
        {
          "indexed": true,
          "internalType": "address",
          "name": "account",
          "type": "address"
        },
        {
          "indexed": true,
          "internalType": "address",
          "name": "sender",
          "type": "address"
        }
      ],
      "name": "RoleGranted",
      "type": "event"
    },
    {
      "anonymous": false,
      "inputs": [
        {
          "indexed": true,
          "internalType": "bytes32",
          "name": "role",
          "type": "bytes32"
        },
        {
          "indexed": true,
          "internalType": "address",
          "name": "account",
          "type": "address"
        },
        {
          "indexed": true,
          "internalType": "address",
          "name": "sender",
          "type": "address"
        }
      ],
      "name": "RoleRevoked",
      "type": "event"
    },
    {
      "inputs": [],
      "name": "ADMIN_ROLE",
      "outputs": [
        {
          "internalType": "bytes32",
          "name": "",
          "type": "bytes32"
        }
      ],
      "stateMutability": "view",
      "type": "function"
    },
    {
      "inputs": [],
      "name": "AUDITOR_ROLE",
      "outputs": [
        {
          "internalType": "bytes32",
          "name": "",
          "type": "bytes32"
        }
      ],
      "stateMutability": "view",
      "type": "function"
    },
    {
      "inputs": [],
      "name": "DEFAULT_ADMIN_ROLE",
      "outputs": [
        {
          "internalType": "bytes32",
          "name": "",
          "type": "bytes32"
        }
      ],
      "stateMutability": "view",
      "type": "function"
    },
    {
      "inputs": [
        {
          "internalType": "address",
          "name": "user",
          "type": "address"
        },
        {
          "internalType": "bytes32",
          "name": "role",
          "type": "bytes32"
        }
      ],
      "name": "checkPermission",
      "outputs": [
        {
          "internalType": "bool",
          "name": "",
          "type": "bool"
        }
      ],
      "stateMutability": "view",
      "type": "function"
    },
    {
      "inputs": [
        {
          "internalType": "bytes32",
          "name": "role",
          "type": "bytes32"
        }
      ],
      "name": "getRoleAdmin",
      "outputs": [
        {
          "internalType": "bytes32",
          "name": "",
          "type": "bytes32"
        }
      ],
      "stateMutability": "view",
      "type": "function"
    },
    {
      "inputs": [
        {
          "internalType": "address",
          "name": "user",
          "type": "address"
        }
      ],
      "name": "getUserPermissions",
      "outputs": [
        {
          "components": [
            {
              "internalType": "address",
              "name": "user",
              "type": "address"
            },
            {
              "internalType": "bytes32",
              "name": "role",
              "type": "bytes32"
            },
            {
              "internalType": "uint256",
              "name": "grantedAt",
              "type": "uint256"
            },
            {
              "internalType": "uint256",
              "name": "expiresAt",
              "type": "uint256"
            },
            {
              "internalType": "bool",
              "name": "active",
              "type": "bool"
            }
          ],
          "internalType": "struct AccessControlContract.Permission[]",
          "name": "",
          "type": "tuple[]"
        }
      ],
      "stateMutability": "view",
      "type": "function"
    },
    {
      "inputs": [
        {
          "internalType": "address",
          "name": "user",
          "type": "address"
        },
        {
          "internalType": "bytes32",
          "name": "role",
          "type": "bytes32"
        },
        {
          "internalType": "uint256",
          "name": "duration",
          "type": "uint256"
        }
      ],
      "name": "grantPermission",
      "outputs": [],
      "stateMutability": "nonpayable",
      "type": "function"
    },
    {
      "inputs": [
        {
          "internalType": "bytes32",
          "name": "role",
          "type": "bytes32"
        },
        {
          "internalType": "address",
          "name": "account",
          "type": "address"
        }
      ],
      "name": "grantRole",
      "outputs": [],
      "stateMutability": "nonpayable",
      "type": "function"
    },
    {
      "inputs": [
        {
          "internalType": "bytes32",
          "name": "role",
          "type": "bytes32"
        },
        {
          "internalType": "address",
          "name": "account",
          "type": "address"
        }
      ],
      "name": "hasRole",
      "outputs": [
        {
          "internalType": "bool",
          "name": "",
          "type": "bool"
        }
      ],
      "stateMutability": "view",
      "type": "function"
    },
    {
      "inputs": [
        {
          "internalType": "bytes32",
          "name": "role",
          "type": "bytes32"
        },
        {
          "internalType": "address",
          "name": "account",
          "type": "address"
        }
      ],
      "name": "renounceRole",
      "outputs": [],
      "stateMutability": "nonpayable",
      "type": "function"
    },
    {
      "inputs": [
        {
          "internalType": "address",
          "name": "user",
          "type": "address"
        },
        {
          "internalType": "bytes32",
          "name": "role",
          "type": "bytes32"
        }
      ],
      "name": "revokePermission",
      "outputs": [],
      "stateMutability": "nonpayable",
      "type": "function"
    },
    {
      "inputs": [
        {
          "internalType": "bytes32",
          "name": "role",
          "type": "bytes32"
        },
        {
          "internalType": "address",
          "name": "account",
          "type": "address"
        }
      ],
      "name": "revokeRole",
      "outputs": [],
      "stateMutability": "nonpayable",
      "type": "function"
    },
    {
      "inputs": [
        {
          "internalType": "bytes32",
          "name": "",
          "type": "bytes32"
        }
      ],
      "name": "roleCount",
      "outputs": [
        {
          "internalType": "uint256",
          "name": "",
          "type": "uint256"
        }
      ],
      "stateMutability": "view",
      "type": "function"
    },
    {
      "inputs": [
        {
          "internalType": "bytes4",
          "name": "interfaceId",
          "type": "bytes4"
        }
      ],
      "name": "supportsInterface",
      "outputs": [
        {
          "internalType": "bool",
          "name": "",
          "type": "bool"
        }
      ],
      "stateMutability": "view",
      "type": "function"
    },
    {
      "inputs": [
        {
          "internalType": "address",
          "name": "",
          "type": "address"
        },
        {
          "internalType": "uint256",
          "name": "",
          "type": "uint256"
        }
      ],
      "name": "userPermissions",
      "outputs": [
        {
          "internalType": "address",
          "name": "user",
          "type": "address"
        },
        {
          "internalType": "bytes32",
          "name": "role",
          "type": "bytes32"
        },
        {
          "internalType": "uint256",
          "name": "grantedAt",
          "type": "uint256"
        },
        {
          "internalType": "uint256",
          "name": "expiresAt",
          "type": "uint256"
        },
        {
          "internalType": "bool",
          "name": "active",
          "type": "bool"
        }
      ],
      "stateMutability": "view",
      "type": "function"
    }
  ],
  "bytecode": "0x60806040818152346100e3576000808052602091818352808220338352835260ff8183205416156100ad575b7fa49807205ce4d355092ef5a8a18f56e8913cf4a201fbe287825b095693c2177592838352828152818320338452815260ff828420541615610074575b610f5185816100e98239f35b83835282815281832090338452528120600160ff19825416179055339160008051602061103a833981519152339280a438808080610068565b8180528183528082203383528352808220600160ff1982541617905533338360008051602061103a8339815191528180a461002b565b600080fdfe608060408181526004918236101561001657600080fd5b600092833560e01c91826301ffc9a71461087857508163248a9ca31461084e57816325fde663146106f65781632f2ff15d146106cc57816336568abe1461063a5781635fe07013146104d75781636d1b010d146104af5781636e1d616e1461047457816375b238fc1461043957816391d14854146103f3578163a217fddf146103d8578163b0cde7cd146101db578163b3c33f2f14610154578163d547741f14610112575063d6392057146100ca57600080fd5b3461010e578060031936011261010e5760ff816020936100e86108cb565b60243582528186528282206001600160a01b039091168252855220549151911615158152f35b5080fd5b9190503461015057806003193601126101505761014d913561014860016101376108e6565b938387528660205286200154610b5f565b610d6a565b80f35b8280fd5b9190503461015057806003193601126101505761016f6108cb565b6001600160a01b0390811684526001602052818420805460243595908610156101d8575060a09461019f916108fc565b50908154169260018201549260ff6002840154926003850154940154169381519586526020860152840152606083015215156080820152f35b80fd5b8391503461010e57606036600319011261010e576101f76108cb565b926024938435926044359261020a61092e565b6001600160a01b038381169485156103a757868852602094888652838920878a52865260ff848a205416610372576102429088610cf2565b801561036a57420180421161035857925b858852600185528288209183519061026a82610c82565b8782528682018981528583019042825260608401928884526080850196600188528054906801000000000000000082101561034657906102af916001820181556108fc565b959095610335577f999c5f915d96b699b3d664ecc997e7f4b5594cadbf1c69a2534276e091d7f93d9b9c9d9e5051166bffffffffffffffffffffffff60a01b855416178455516001840155516002830155516003820155019051151560ff801983541691161790558587526002835280872061032b8154610f0c565b905551908152a380f35b634e487b7160e01b8e528d87528e8efd5b634e487b7160e01b8f52604188528f8ffd5b634e487b7160e01b8852601184528888fd5b508692610253565b835162461bcd60e51b81528086018790526010818c01526f416c72656164792068617320726f6c6560801b6044820152606490fd5b825162461bcd60e51b8152602081860152600c818b01526b24b73b30b634b2103ab9b2b960a11b6044820152606490fd5b50503461010e578160031936011261010e5751908152602090f35b9050346101505781600319360112610150578160209360ff926104146108e6565b903582528186528282206001600160a01b039091168252855220549151911615158152f35b50503461010e578160031936011261010e57602090517fa49807205ce4d355092ef5a8a18f56e8913cf4a201fbe287825b095693c217758152f35b50503461010e578160031936011261010e57602090517f59a1c48e5837ad7a7f3dcedcbe129bf3249ec4fbf651fd4f5e2600ead39fe2f58152f35b9050346101505760203660031901126101505760209282913581526002845220549051908152f35b919050346101505780600319360112610150576104f26108cb565b91602435916104ff61092e565b82855260208581528186206001600160a01b03861680885291528186205460ff9591939190861615610602576105359085610d6a565b82865260019485602052828720908688905b61058d575b88878787828452600260205283206105648154610def565b90557f789770131846de4d1f28418f0f957cdf4fcabe5eccf70067083e20ecece69a348380a380f35b82548110156105fd5786886105a283866108fc565b50015414806105e7575b6105c0576105ba8891610f0c565b90610547565b9190506105d19293949596506108fc565b5001805460ff191690558291903880808061054c565b5081846105f483866108fc565b500154166105ac565b61054c565b506020606492519162461bcd60e51b83528201526012602482015271446f6573206e6f74206861766520726f6c6560701b6044820152fd5b8391503461010e578260031936011261010e576106556108e6565b90336001600160a01b03831603610671579061014d9135610d6a565b608490602085519162461bcd60e51b8352820152602f60248201527f416363657373436f6e74726f6c3a2063616e206f6e6c792072656e6f756e636560448201526e103937b632b9903337b91039b2b63360891b6064820152fd5b9190503461015057806003193601126101505761014d91356106f160016101376108e6565b610cf2565b905034610150576020908160031936011261084a576001600160a01b03918261071d6108cb565b16855260019485825284812093845467ffffffffffffffff81116108375786519194889491889160059061075583831b860187610cd0565b82865284860190819a88528588209088925b8584106107d75750505050505080519582870193838852518094528187019794915b8483106107965787890388f35b8551805183168a5284810151858b015281810151828b0152606080820151908b01526080908101511515908a015260a0909801979483019491860191610789565b998488829e9c899e99809d9b9c9d51906107f082610c82565b8b885416825285880154848301526002880154908201526003870154606082015260ff8688015416151560808201528152019301930192919b999b9a959a98979698610767565b634e487b7160e01b835260418552602483fd5b8380fd5b90503461015057602036600319011261015057816020936001923581528085522001549051908152f35b849134610150576020366003190112610150573563ffffffff60e01b81168091036101505760209250637965db0b60e01b81149081156108ba575b5015158152f35b6301ffc9a760e01b149050836108b3565b600435906001600160a01b03821682036108e157565b600080fd5b602435906001600160a01b03821682036108e157565b8054821015610918576000526005602060002091020190600090565b634e487b7160e01b600052603260045260246000fd5b3360009081527f7d7ffb7a348e1c6a02869081a26547b49160dd3df72d1d75a570eb9b698292ec6020908152604080832054909291907fa49807205ce4d355092ef5a8a18f56e8913cf4a201fbe287825b095693c217759060ff16156109945750505050565b61099d33610e12565b908451906109aa82610cb4565b60428252838201946060368737825115610b4b57603086538251600190811015610b375790607860218501536041915b808311610add57505050610a9b5784610a696048610a8d936044979851988991610a5a8984019876020b1b1b2b9b9a1b7b73a3937b61d1030b1b1b7bab73a1604d1b8a52610a31815180928d603789019101610c5f565b8401917001034b99036b4b9b9b4b733903937b6329607d1b603784015251809386840190610c5f565b01036028810189520187610cd0565b5194859362461bcd60e51b8552600485015251809281602486015285850190610c5f565b601f01601f19168101030190fd5b60648386519062461bcd60e51b825280600483015260248201527f537472696e67733a20686578206c656e67746820696e73756666696369656e746044820152fd5b909192600f81166010811015610b2357610b1c91906f181899199a1a9b1b9c1cb0b131b232b360811b901a610b128688610dde565b5360041c93610def565b91906109da565b634e487b7160e01b84526032600452602484fd5b634e487b7160e01b82526032600452602482fd5b634e487b7160e01b81526032600452602490fd5b60008181526020818152604092838320338452825260ff848420541615610b865750505050565b610b8f33610e12565b90845190610b9c82610cb4565b60428252838201946060368737825115610b4b57603086538251600190811015610b375790607860218501536041915b808311610c2357505050610a9b5784610a696048610a8d936044979851988991610a5a8984019876020b1b1b2b9b9a1b7b73a3937b61d1030b1b1b7bab73a1604d1b8a52610a31815180928d603789019101610c5f565b909192600f81166010811015610b2357610c5891906f181899199a1a9b1b9c1cb0b131b232b360811b901a610b128688610dde565b9190610bcc565b60005b838110610c725750506000910152565b8181015183820152602001610c62565b60a0810190811067ffffffffffffffff821117610c9e57604052565b634e487b7160e01b600052604160045260246000fd5b6080810190811067ffffffffffffffff821117610c9e57604052565b90601f8019910116810190811067ffffffffffffffff821117610c9e57604052565b9060009180835282602052604083209160018060a01b03169182845260205260ff60408420541615610d2357505050565b808352826020526040832082845260205260408320600160ff198254161790557f2f8788117e7eff1d82e926ec794901d17c78024a50270940304540a733656f0d339380a4565b9060009180835282602052604083209160018060a01b03169182845260205260ff604084205416610d9a57505050565b80835282602052604083208284526020526040832060ff1981541690557ff6391f5c32d9c69d2a47ea670b442974b53935d1edc7fd64eb21e047a839171b339380a4565b908151811015610918570160200190565b8015610dfc576000190190565b634e487b7160e01b600052601160045260246000fd5b604051906060820182811067ffffffffffffffff821117610c9e57604052602a82526020820160403682378251156109185760309053815160019081101561091857607860218401536029905b808211610eb3575050610e6f5790565b606460405162461bcd60e51b815260206004820152602060248201527f537472696e67733a20686578206c656e67746820696e73756666696369656e746044820152fd5b9091600f8116906010821015610ef757610ef1916f181899199a1a9b1b9c1cb0b131b232b360811b901a610ee78587610dde565b5360041c92610def565b90610e5f565b60246000634e487b7160e01b81526032600452fd5b6000198114610dfc576001019056fea26469706673582212202e58552129445813745804ed2a28f15742345e1b30b6f8b74bd38c84c9156c5764736f6c634300081300332f8788117e7eff1d82e926ec794901d17c78024a50270940304540a733656f0d",
  "linkReferences": {},
  "deployedLinkReferences": {}
}