{
  "_format": "hh-sol-artifact-1",
  "contractName": "MedicineShipment",
  "sourceName": "contracts/MedicineShipment.sol",
  "abi": [
    {
      "inputs": [],
      "stateMutability": "nonpayable",
      "type": "constructor"
    },
    {
      "anonymous": false,
      "inputs": [
        {
          "indexed": true,
          "internalType": "uint256",
          "name": "shipmentId",
          "type": "uint256"
        },
        {
          "indexed": false,
          "internalType": "string",
          "name": "ipfsHash",
          "type": "string"
        }
      ],
      "name": "IPFSUploaded",
      "type": "event"
    },
    {
      "anonymous": false,
      "inputs": [
        {
          "indexed": true,
          "internalType": "address",
          "name": "organization",
          "type": "address"
        },
        {
          "indexed": false,
          "internalType": "string",
          "name": "role",
          "type": "string"
        }
      ],
      "name": "OrganizationVerified",
      "type": "event"
    },
    {
      "anonymous": false,
      "inputs": [
        {
          "indexed": true,
          "internalType": "bytes32",
          "name": "role",
          "type": "bytes32"
        },
        {
          "indexed": true,
          "internalType": "bytes32",
          "name": "previousAdminRole",
          "type": "bytes32"
        },
        {
          "indexed": true,
          "internalType": "bytes32",
          "name": "newAdminRole",
          "type": "bytes32"
        }
      ],
      "name": "RoleAdminChanged",
      "type": "event"
    },
    {
      "anonymous": false,
      "inputs": [
        {
          "indexed": true,
          "internalType": "bytes32",
          "name": "role",
          "type": "bytes32"
        },
        {
          "indexed": true,
          "internalType": "address",
          "name": "account",
          "type": "address"
        },
        {
          "indexed": true,
          "internalType": "address",
          "name": "sender",
          "type": "address"
        }
      ],
      "name": "RoleGranted",
      "type": "event"
    },
    {
      "anonymous": false,
      "inputs": [
        {
          "indexed": true,
          "internalType": "bytes32",
          "name": "role",
          "type": "bytes32"
        },
        {
          "indexed": true,
          "internalType": "address",
          "name": "account",
          "type": "address"
        },
        {
          "indexed": true,
          "internalType": "address",
          "name": "sender",
          "type": "address"
        }
      ],
      "name": "RoleRevoked",
      "type": "event"
    },
    {
      "anonymous": false,
      "inputs": [
        {
          "indexed": true,
          "internalType": "uint256",
          "name": "shipmentId",
          "type": "uint256"
        },
        {
          "indexed": true,
          "internalType": "address",
          "name": "creator",
          "type": "address"
        },
        {
          "indexed": false,
          "internalType": "string",
          "name": "medicineName",
          "type": "string"
        }
      ],
      "name": "ShipmentCreated",
      "type": "event"
    },
    {
      "anonymous": false,
      "inputs": [
        {
          "indexed": true,
          "internalType": "uint256",
          "name": "shipmentId",
          "type": "uint256"
        },
        {
          "indexed": true,
          "internalType": "address",
          "name": "receiver",
          "type": "address"
        }
      ],
      "name": "ShipmentDelivered",
      "type": "event"
    },
    {
      "anonymous": false,
      "inputs": [
        {
          "indexed": true,
          "internalType": "uint256",
          "name": "shipmentId",
          "type": "uint256"
        },
        {
          "indexed": true,
          "internalType": "address",
          "name": "accepter",
          "type": "address"
        },
        {
          "indexed": false,
          "internalType": "bytes",
          "name": "signature",
          "type": "bytes"
        }
      ],
      "name": "ShipmentRequestAccepted",
      "type": "event"
    },
    {
      "anonymous": false,
      "inputs": [
        {
          "indexed": true,
          "internalType": "uint256",
          "name": "shipmentId",
          "type": "uint256"
        },
        {
          "indexed": true,
          "internalType": "address",
          "name": "rejecter",
          "type": "address"
        }
      ],
      "name": "ShipmentRequestRejected",
      "type": "event"
    },
    {
      "anonymous": false,
      "inputs": [
        {
          "indexed": true,
          "internalType": "uint256",
          "name": "shipmentId",
          "type": "uint256"
        },
        {
          "indexed": true,
          "internalType": "address",
          "name": "requester",
          "type": "address"
        },
        {
          "indexed": true,
          "internalType": "address",
          "name": "targetParty",
          "type": "address"
        }
      ],
      "name": "ShipmentRequested",
      "type": "event"
    },
    {
      "anonymous": false,
      "inputs": [
        {
          "indexed": true,
          "internalType": "uint256",
          "name": "shipmentId",
          "type": "uint256"
        },
        {
          "indexed": false,
          "internalType": "enum MedicineShipment.ShipmentStatus",
          "name": "status",
          "type": "uint8"
        }
      ],
      "name": "ShipmentStatusUpdated",
      "type": "event"
    },
    {
      "anonymous": false,
      "inputs": [
        {
          "indexed": true,
          "internalType": "uint256",
          "name": "shipmentId",
          "type": "uint256"
        },
        {
          "indexed": false,
          "internalType": "uint256",
          "name": "temperature",
          "type": "uint256"
        },
        {
          "indexed": false,
          "internalType": "uint256",
          "name": "timestamp",
          "type": "uint256"
        }
      ],
      "name": "TemperatureRecorded",
      "type": "event"
    },
    {
      "inputs": [],
      "name": "DEFAULT_ADMIN_ROLE",
      "outputs": [
        {
          "internalType": "bytes32",
          "name": "",
          "type": "bytes32"
        }
      ],
      "stateMutability": "view",
      "type": "function"
    },
    {
      "inputs": [],
      "name": "DISTRIBUTOR_ROLE",
      "outputs": [
        {
          "internalType": "bytes32",
          "name": "",
          "type": "bytes32"
        }
      ],
      "stateMutability": "view",
      "type": "function"
    },
    {
      "inputs": [],
      "name": "HOSPITAL_ROLE",
      "outputs": [
        {
          "internalType": "bytes32",
          "name": "",
          "type": "bytes32"
        }
      ],
      "stateMutability": "view",
      "type": "function"
    },
    {
      "inputs": [],
      "name": "PHARMACY_ROLE",
      "outputs": [
        {
          "internalType": "bytes32",
          "name": "",
          "type": "bytes32"
        }
      ],
      "stateMutability": "view",
      "type": "function"
    },
    {
      "inputs": [],
      "name": "SHIPMENT_MANAGER_ROLE",
      "outputs": [
        {
          "internalType": "bytes32",
          "name": "",
          "type": "bytes32"
        }
      ],
      "stateMutability": "view",
      "type": "function"
    },
    {
      "inputs": [
        {
          "internalType": "uint256",
          "name": "shipmentId",
          "type": "uint256"
        },
        {
          "internalType": "bytes",
          "name": "signature",
          "type": "bytes"
        }
      ],
      "name": "acceptShipment",
      "outputs": [],
      "stateMutability": "nonpayable",
      "type": "function"
    },
    {
      "inputs": [
        {
          "internalType": "string",
          "name": "medicineName",
          "type": "string"
        },
        {
          "internalType": "string",
          "name": "batchNumber",
          "type": "string"
        },
        {
          "internalType": "uint256",
          "name": "expiryDate",
          "type": "uint256"
        },
        {
          "internalType": "uint256",
          "name": "quantity",
          "type": "uint256"
        },
        {
          "internalType": "address",
          "name": "receiver",
          "type": "address"
        },
        {
          "internalType": "uint256",
          "name": "estimatedDelivery",
          "type": "uint256"
        }
      ],
      "name": "createShipment",
      "outputs": [
        {
          "internalType": "uint256",
          "name": "",
          "type": "uint256"
        }
      ],
      "stateMutability": "nonpayable",
      "type": "function"
    },
    {
      "inputs": [
        {
          "internalType": "uint256",
          "name": "shipmentId",
          "type": "uint256"
        }
      ],
      "name": "deliverShipment",
      "outputs": [],
      "stateMutability": "nonpayable",
      "type": "function"
    },
    {
      "inputs": [
        {
          "internalType": "bytes32",
          "name": "role",
          "type": "bytes32"
        }
      ],
      "name": "getRoleAdmin",
      "outputs": [
        {
          "internalType": "bytes32",
          "name": "",
          "type": "bytes32"
        }
      ],
      "stateMutability": "view",
      "type": "function"
    },
    {
      "inputs": [
        {
          "internalType": "uint256",
          "name": "shipmentId",
          "type": "uint256"
        }
      ],
      "name": "getShipmentActualDelivery",
      "outputs": [
        {
          "internalType": "uint256",
          "name": "",
          "type": "uint256"
        }
      ],
      "stateMutability": "view",
      "type": "function"
    },
    {
      "inputs": [
        {
          "internalType": "uint256",
          "name": "shipmentId",
          "type": "uint256"
        }
      ],
      "name": "getShipmentBatchNumber",
      "outputs": [
        {
          "internalType": "string",
          "name": "",
          "type": "string"
        }
      ],
      "stateMutability": "view",
      "type": "function"
    },
    {
      "inputs": [],
      "name": "getShipmentCount",
      "outputs": [
        {
          "internalType": "uint256",
          "name": "",
          "type": "uint256"
        }
      ],
      "stateMutability": "view",
      "type": "function"
    },
    {
      "inputs": [
        {
          "internalType": "uint256",
          "name": "shipmentId",
          "type": "uint256"
        }
      ],
      "name": "getShipmentCreatedAt",
      "outputs": [
        {
          "internalType": "uint256",
          "name": "",
          "type": "uint256"
        }
      ],
      "stateMutability": "view",
      "type": "function"
    },
    {
      "inputs": [
        {
          "internalType": "uint256",
          "name": "shipmentId",
          "type": "uint256"
        }
      ],
      "name": "getShipmentCreator",
      "outputs": [
        {
          "internalType": "address",
          "name": "",
          "type": "address"
        }
      ],
      "stateMutability": "view",
      "type": "function"
    },
    {
      "inputs": [
        {
          "internalType": "uint256",
          "name": "shipmentId",
          "type": "uint256"
        }
      ],
      "name": "getShipmentCurrentHolder",
      "outputs": [
        {
          "internalType": "address",
          "name": "",
          "type": "address"
        }
      ],
      "stateMutability": "view",
      "type": "function"
    },
    {
      "inputs": [
        {
          "internalType": "uint256",
          "name": "shipmentId",
          "type": "uint256"
        }
      ],
      "name": "getShipmentEstimatedDelivery",
      "outputs": [
        {
          "internalType": "uint256",
          "name": "",
          "type": "uint256"
        }
      ],
      "stateMutability": "view",
      "type": "function"
    },
    {
      "inputs": [
        {
          "internalType": "uint256",
          "name": "shipmentId",
          "type": "uint256"
        }
      ],
      "name": "getShipmentExpiryDate",
      "outputs": [
        {
          "internalType": "uint256",
          "name": "",
          "type": "uint256"
        }
      ],
      "stateMutability": "view",
      "type": "function"
    },
    {
      "inputs": [
        {
          "internalType": "uint256",
          "name": "shipmentId",
          "type": "uint256"
        }
      ],
      "name": "getShipmentIPFS",
      "outputs": [
        {
          "internalType": "string",
          "name": "",
          "type": "string"
        }
      ],
      "stateMutability": "view",
      "type": "function"
    },
    {
      "inputs": [
        {
          "internalType": "uint256",
          "name": "shipmentId",
          "type": "uint256"
        }
      ],
      "name": "getShipmentLastTemperature",
      "outputs": [
        {
          "internalType": "uint256",
          "name": "",
          "type": "uint256"
        }
      ],
      "stateMutability": "view",
      "type": "function"
    },
    {
      "inputs": [
        {
          "internalType": "uint256",
          "name": "shipmentId",
          "type": "uint256"
        }
      ],
      "name": "getShipmentLastUpdate",
      "outputs": [
        {
          "internalType": "uint256",
          "name": "",
          "type": "uint256"
        }
      ],
      "stateMutability": "view",
      "type": "function"
    },
    {
      "inputs": [
        {
          "internalType": "uint256",
          "name": "shipmentId",
          "type": "uint256"
        }
      ],
      "name": "getShipmentMedicineName",
      "outputs": [
        {
          "internalType": "string",
          "name": "",
          "type": "string"
        }
      ],
      "stateMutability": "view",
      "type": "function"
    },
    {
      "inputs": [
        {
          "internalType": "uint256",
          "name": "shipmentId",
          "type": "uint256"
        }
      ],
      "name": "getShipmentQuantity",
      "outputs": [
        {
          "internalType": "uint256",
          "name": "",
          "type": "uint256"
        }
      ],
      "stateMutability": "view",
      "type": "function"
    },
    {
      "inputs": [
        {
          "internalType": "uint256",
          "name": "shipmentId",
          "type": "uint256"
        }
      ],
      "name": "getShipmentReceiver",
      "outputs": [
        {
          "internalType": "address",
          "name": "",
          "type": "address"
        }
      ],
      "stateMutability": "view",
      "type": "function"
    },
    {
      "inputs": [
        {
          "internalType": "uint256",
          "name": "shipmentId",
          "type": "uint256"
        }
      ],
      "name": "getShipmentRequest",
      "outputs": [
        {
          "components": [
            {
              "internalType": "uint256",
              "name": "shipmentId",
              "type": "uint256"
            },
            {
              "internalType": "address",
              "name": "requester",
              "type": "address"
            },
            {
              "internalType": "address",
              "name": "targetParty",
              "type": "address"
            },
            {
              "internalType": "string",
              "name": "encryptedDetails",
              "type": "string"
            },
            {
              "internalType": "uint256",
              "name": "requestedAt",
              "type": "uint256"
            },
            {
              "internalType": "bool",
              "name": "accepted",
              "type": "bool"
            },
            {
              "internalType": "bool",
              "name": "rejected",
              "type": "bool"
            }
          ],
          "internalType": "struct MedicineShipment.ShipmentRequest",
          "name": "",
          "type": "tuple"
        }
      ],
      "stateMutability": "view",
      "type": "function"
    },
    {
      "inputs": [
        {
          "internalType": "uint256",
          "name": "shipmentId",
          "type": "uint256"
        }
      ],
      "name": "getShipmentSender",
      "outputs": [
        {
          "internalType": "address",
          "name": "",
          "type": "address"
        }
      ],
      "stateMutability": "view",
      "type": "function"
    },
    {
      "inputs": [
        {
          "internalType": "uint256",
          "name": "shipmentId",
          "type": "uint256"
        }
      ],
      "name": "getShipmentStatus",
      "outputs": [
        {
          "internalType": "enum MedicineShipment.ShipmentStatus",
          "name": "",
          "type": "uint8"
        }
      ],
      "stateMutability": "view",
      "type": "function"
    },
    {
      "inputs": [
        {
          "internalType": "uint256",
          "name": "shipmentId",
          "type": "uint256"
        }
      ],
      "name": "getShipmentTempStatus",
      "outputs": [
        {
          "internalType": "enum MedicineShipment.TemperatureStatus",
          "name": "",
          "type": "uint8"
        }
      ],
      "stateMutability": "view",
      "type": "function"
    },
    {
      "inputs": [
        {
          "internalType": "uint256",
          "name": "shipmentId",
          "type": "uint256"
        }
      ],
      "name": "getTemperatureCount",
      "outputs": [
        {
          "internalType": "uint256",
          "name": "",
          "type": "uint256"
        }
      ],
      "stateMutability": "view",
      "type": "function"
    },
    {
      "inputs": [
        {
          "internalType": "uint256",
          "name": "shipmentId",
          "type": "uint256"
        },
        {
          "internalType": "uint256",
          "name": "index",
          "type": "uint256"
        }
      ],
      "name": "getTemperatureReporter",
      "outputs": [
        {
          "internalType": "address",
          "name": "",
          "type": "address"
        }
      ],
      "stateMutability": "view",
      "type": "function"
    },
    {
      "inputs": [
        {
          "internalType": "uint256",
          "name": "shipmentId",
          "type": "uint256"
        },
        {
          "internalType": "uint256",
          "name": "index",
          "type": "uint256"
        }
      ],
      "name": "getTemperatureTimestamp",
      "outputs": [
        {
          "internalType": "uint256",
          "name": "",
          "type": "uint256"
        }
      ],
      "stateMutability": "view",
      "type": "function"
    },
    {
      "inputs": [
        {
          "internalType": "uint256",
          "name": "shipmentId",
          "type": "uint256"
        },
        {
          "internalType": "uint256",
          "name": "index",
          "type": "uint256"
        }
      ],
      "name": "getTemperatureValue",
      "outputs": [
        {
          "internalType": "uint256",
          "name": "",
          "type": "uint256"
        }
      ],
      "stateMutability": "view",
      "type": "function"
    },
    {
      "inputs": [
        {
          "internalType": "address",
          "name": "user",
          "type": "address"
        }
      ],
      "name": "getUserRequests",
      "outputs": [
        {
          "internalType": "uint256[]",
          "name": "",
          "type": "uint256[]"
        }
      ],
      "stateMutability": "view",
      "type": "function"
    },
    {
      "inputs": [
        {
          "internalType": "bytes32",
          "name": "role",
          "type": "bytes32"
        },
        {
          "internalType": "address",
          "name": "account",
          "type": "address"
        }
      ],
      "name": "grantRole",
      "outputs": [],
      "stateMutability": "nonpayable",
      "type": "function"
    },
    {
      "inputs": [
        {
          "internalType": "bytes32",
          "name": "role",
          "type": "bytes32"
        },
        {
          "internalType": "address",
          "name": "account",
          "type": "address"
        }
      ],
      "name": "hasRole",
      "outputs": [
        {
          "internalType": "bool",
          "name": "",
          "type": "bool"
        }
      ],
      "stateMutability": "view",
      "type": "function"
    },
    {
      "inputs": [
        {
          "internalType": "uint256",
          "name": "shipmentId",
          "type": "uint256"
        },
        {
          "internalType": "uint256",
          "name": "temperature",
          "type": "uint256"
        }
      ],
      "name": "recordTemperature",
      "outputs": [],
      "stateMutability": "nonpayable",
      "type": "function"
    },
    {
      "inputs": [
        {
          "internalType": "string",
          "name": "role",
          "type": "string"
        }
      ],
      "name": "registerOrganization",
      "outputs": [],
      "stateMutability": "nonpayable",
      "type": "function"
    },
    {
      "inputs": [
        {
          "internalType": "uint256",
          "name": "shipmentId",
          "type": "uint256"
        }
      ],
      "name": "rejectShipment",
      "outputs": [],
      "stateMutability": "nonpayable",
      "type": "function"
    },
    {
      "inputs": [
        {
          "internalType": "bytes32",
          "name": "role",
          "type": "bytes32"
        },
        {
          "internalType": "address",
          "name": "account",
          "type": "address"
        }
      ],
      "name": "renounceRole",
      "outputs": [],
      "stateMutability": "nonpayable",
      "type": "function"
    },
    {
      "inputs": [
        {
          "internalType": "uint256",
          "name": "shipmentId",
          "type": "uint256"
        },
        {
          "internalType": "address",
          "name": "targetParty",
          "type": "address"
        },
        {
          "internalType": "string",
          "name": "encryptedDetails",
          "type": "string"
        }
      ],
      "name": "requestShipmentAccess",
      "outputs": [],
      "stateMutability": "nonpayable",
      "type": "function"
    },
    {
      "inputs": [
        {
          "internalType": "bytes32",
          "name": "role",
          "type": "bytes32"
        },
        {
          "internalType": "address",
          "name": "account",
          "type": "address"
        }
      ],
      "name": "revokeRole",
      "outputs": [],
      "stateMutability": "nonpayable",
      "type": "function"
    },
    {
      "inputs": [
        {
          "internalType": "uint256",
          "name": "",
          "type": "uint256"
        }
      ],
      "name": "shipmentRequests",
      "outputs": [
        {
          "internalType": "uint256",
          "name": "shipmentId",
          "type": "uint256"
        },
        {
          "internalType": "address",
          "name": "requester",
          "type": "address"
        },
        {
          "internalType": "address",
          "name": "targetParty",
          "type": "address"
        },
        {
          "internalType": "string",
          "name": "encryptedDetails",
          "type": "string"
        },
        {
          "internalType": "uint256",
          "name": "requestedAt",
          "type": "uint256"
        },
        {
          "internalType": "bool",
          "name": "accepted",
          "type": "bool"
        },
        {
          "internalType": "bool",
          "name": "rejected",
          "type": "bool"
        }
      ],
      "stateMutability": "view",
      "type": "function"
    },
    {
      "inputs": [
        {
          "internalType": "uint256",
          "name": "",
          "type": "uint256"
        },
        {
          "internalType": "uint256",
          "name": "",
          "type": "uint256"
        }
      ],
      "name": "shipmentTemperatures",
      "outputs": [
        {
          "internalType": "uint256",
          "name": "timestamp",
          "type": "uint256"
        },
        {
          "internalType": "uint256",
          "name": "temperature",
          "type": "uint256"
        },
        {
          "internalType": "address",
          "name": "reportedBy",
          "type": "address"
        }
      ],
      "stateMutability": "view",
      "type": "function"
    },
    {
      "inputs": [
        {
          "internalType": "uint256",
          "name": "",
          "type": "uint256"
        }
      ],
      "name": "shipments",
      "outputs": [
        {
          "internalType": "uint256",
          "name": "id",
          "type": "uint256"
        },
        {
          "internalType": "address",
          "name": "creator",
          "type": "address"
        },
        {
          "internalType": "string",
          "name": "medicineName",
          "type": "string"
        },
        {
          "internalType": "string",
          "name": "batchNumber",
          "type": "string"
        },
        {
          "internalType": "uint256",
          "name": "expiryDate",
          "type": "uint256"
        },
        {
          "internalType": "uint256",
          "name": "quantity",
          "type": "uint256"
        },
        {
          "internalType": "address",
          "name": "sender",
          "type": "address"
        },
        {
          "internalType": "address",
          "name": "receiver",
          "type": "address"
        },
        {
          "internalType": "address",
          "name": "currentHolder",
          "type": "address"
        },
        {
          "internalType": "enum MedicineShipment.ShipmentStatus",
          "name": "status",
          "type": "uint8"
        },
        {
          "internalType": "uint256",
          "name": "createdAt",
          "type": "uint256"
        },
        {
          "internalType": "uint256",
          "name": "estimatedDelivery",
          "type": "uint256"
        },
        {
          "internalType": "uint256",
          "name": "actualDelivery",
          "type": "uint256"
        },
        {
          "internalType": "string",
          "name": "ipfsHash",
          "type": "string"
        },
        {
          "internalType": "enum MedicineShipment.TemperatureStatus",
          "name": "tempStatus",
          "type": "uint8"
        },
        {
          "internalType": "uint256",
          "name": "lastTemperature",
          "type": "uint256"
        },
        {
          "internalType": "uint256",
          "name": "lastUpdate",
          "type": "uint256"
        }
      ],
      "stateMutability": "view",
      "type": "function"
    },
    {
      "inputs": [
        {
          "internalType": "uint256",
          "name": "shipmentId",
          "type": "uint256"
        }
      ],
      "name": "startShipment",
      "outputs": [],
      "stateMutability": "nonpayable",
      "type": "function"
    },
    {
      "inputs": [
        {
          "internalType": "bytes4",
          "name": "interfaceId",
          "type": "bytes4"
        }
      ],
      "name": "supportsInterface",
      "outputs": [
        {
          "internalType": "bool",
          "name": "",
          "type": "bool"
        }
      ],
      "stateMutability": "view",
      "type": "function"
    },
    {
      "inputs": [
        {
          "internalType": "uint256",
          "name": "shipmentId",
          "type": "uint256"
        },
        {
          "internalType": "string",
          "name": "ipfsHash",
          "type": "string"
        }
      ],
      "name": "uploadIPFSHash",
      "outputs": [],
      "stateMutability": "nonpayable",
      "type": "function"
    },
    {
      "inputs": [
        {
          "internalType": "address",
          "name": "",
          "type": "address"
        },
        {
          "internalType": "uint256",
          "name": "",
          "type": "uint256"
        }
      ],
      "name": "userRequests",
      "outputs": [
        {
          "internalType": "uint256",
          "name": "",
          "type": "uint256"
        }
      ],
      "stateMutability": "view",
      "type": "function"
    },
    {
      "inputs": [
        {
          "internalType": "address",
          "name": "",
          "type": "address"
        }
      ],
      "name": "verifiedOrganizations",
      "outputs": [
        {
          "internalType": "bool",
          "name": "",
          "type": "bool"
        }
      ],
      "stateMutability": "view",
      "type": "function"
    },
    {
      "inputs": [
        {
          "internalType": "uint256",
          "name": "shipmentId",
          "type": "uint256"
        },
        {
          "internalType": "bool",
          "name": "approved",
          "type": "bool"
        }
      ],
      "name": "verifyShipment",
      "outputs": [],
      "stateMutability": "nonpayable",
      "type": "function"
    }
  ],
  "bytecode": "0x6080604081815234620000ef57600180556000808052602091818352808220338352835260ff818320541615620000b7575b7fc7ad0cce645d8882d9e3736f60b0ffdaece940015e673e73a905d480ad0e1c1892838352828152818320338452815260ff8284205416156200007c575b61295d8581620000f58239f35b83835282815281832090338452528120600160ff19825416179055339160008051602062002a52833981519152339280a4388080806200006f565b8180528183528082203383528352808220600160ff1982541617905533338360008051602062002a528339815191528180a462000031565b600080fdfe60a080604052600436101561001357600080fd5b60003560e01c90816301ffc9a71461215957508063032becbc14611ce85780630561a0e614611af0578063069445dd14611ab157806309abeffa14611a1257806314a5d48d146119185780631967fa17146117e45780631a948212146117b55780631f9f59961461175a57806322dcdf68146113f757806322e875cd146113c0578063247696b214611389578063248a9ca31461135a578063263cb6b6146113025780632ac08a931461117d5780632d6ee32e146111605780632f2ff15d146110ad57806336568abe1461101b578063365fcdee14610fe4578063411f916114610f4d5780635f083e1714610f1e578063682ba90614610eef5780636ccb3baa14610dd55780636e2989b214610da657806374c1832e14610d7a5780637b7392c114610d435780638165553314610d1457806388e2e5e314610cc057806391d1485414610c73578063a217fddf14610c57578063a3f5e47214610c1c578063a5aa1deb14610bd2578063a9c38aad14610bb4578063acb2123f14610b6d578063b337cf7414610ab9578063b53db1c714610957578063bd0840b814610928578063beb0ae8b14610893578063c3a2c90114610864578063c5118c211461052d578063c89958e5146104fe578063ceb6ea08146104cf578063d547741f1461048e578063e0d5166414610363578063ee21259d14610327578063f0bd87cc146102ec578063f0c58ea7146102b1578063f4b360511461027a5763f6ba66781461023a57600080fd5b346102755760003660031901126102755760206040517fc8f5b4140cca307cd927e59cbeea8291bffeee228fc677f0fa059aef7b4dd8d58152f35b600080fd5b34610275576020366003190112610275576004356000526003602052602060018060a01b0360016040600020015416604051908152f35b346102755760003660031901126102755760206040517f2f3a5455f35aeca177ac653592f277fbe2fbafef01081a2030451bb2fb41c91d8152f35b346102755760003660031901126102755760206040517ffbd454f36a7e1a388bd6fc3ab10d434aa4578f811acbbcf33afb1c697486313c8152f35b34610275576020366003190112610275576004356000526003602052602060ff60086040600020015460a01c16610361604051809261241b565bf35b3461027557602036600319011261027557600435600081815260036020526040902060078101546001600160a01b0316330361044957600881019081549060ff8260a01c1660058110156104335760016103bd9114612868565b600b42910155600160a11b9033906affffffffffffffffffffff60a81b16171790557f8e16b4336dc88d11f2b19383604580b7fc6349df052bc9232d52ce1a40df6c4d602060405133847fbf7b34fcfb0fa3cde7bd3ce969eaf623d71024a06634fb384b78c1cac6c7eaac600080a360028152a2005b634e487b7160e01b600052602160045260246000fd5b60405162461bcd60e51b815260206004820152601960248201527f4f6e6c792072656365697665722063616e20636f6e6669726d000000000000006044820152606490fd5b34610275576040366003190112610275576104cd6004356104ad61227d565b908060005260006020526104c8600160406000200154612435565b612769565b005b346102755760203660031901126102755760043560005260036020526020600960406000200154604051908152f35b346102755760203660031901126102755760043560005260036020526020600e60406000200154604051908152f35b346102755760603660031901126102755760043561054961227d565b6001600160401b0391906044358381116102755761056b903690600401612249565b3360009081527f90e68b589b8f105469304896d2d9920902ec0b7538b2f0839e2092c13ed272ec60209081526040909120549194909160ff168015610825575b6105b4906127ee565b836000526003825260ff60086040600020015460a01c166005811015610433576105de901561282b565b6040516105ea816121ac565b84815282810190338252604081019260018060a01b038096169788855260608301908152608083019142835260a08401956000875260c0850195600087528a60005260068952604060002095518655600199808b8801925116916001600160601b0360a01b92838254161790556002870192511690825416179055600384019151805191821161074a5761067e83546122f3565b601f81116107dc575b508790601f831160011461076b579180600799989796949260059694600092610760575b5050600019600383901b1c1916908a1b1790555b51600482015501915115159060ff61ff0084549251151560081b1692169061ffff19161717905584600052526040600020805490600160401b82101561074a5761070c92820181556122db565b81549060031b9083821b91600019901b191617905533907fed8bc4d3eabf6a4468589c4003ff568b85eef1da79dc436ab5b1b9f55e090f21600080a4005b634e487b7160e01b600052604160045260246000fd5b015190508d806106ab565b899291601f19831691856000528a6000209260005b8181106107c55750916005979593918560079d9c9b9a989694106107ac575b505050811b0190556106bf565b015160001960f88460031b161c191690558d808061079f565b8284015185558d9690940193928c01928c01610780565b8360005288600020601f840160051c8101918a851061081b575b601f0160051c01908a905b82811061080f575050610687565b60008155018a90610801565b90915081906107f6565b507f2f3a5455f35aeca177ac653592f277fbe2fbafef01081a2030451bb2fb41c91d60009081528083526040808220338352845290205460ff166105ab565b346102755760203660031901126102755760043560005260036020526020600f60406000200154604051908152f35b3461027557602036600319011261027557600435806000526006602052600560406000206108ce60018060a01b0360028301541633146127ee565b01610100815460ff81161580610919575b6108e8906128a5565b61ff00191617905533907f1d09f1f82304b077f1e4ddbaa4a4f02ae5edf911e630cb75a550bc77affe2034600080a3005b50600881901c60ff16156108df565b346102755760203660031901126102755760043560005260036020526020600560406000200154604051908152f35b346102755761096536612293565b81600052600360205260406000209060ff600883015460a01c1660058110156104335760016109949114612868565b82600052600460205260406000209060405192606084018481106001600160401b0382111761074a57604052428452602084019082825260408501933385528054600160401b81101561074a576109f0916001820181556122a9565b949094610aa3576002604095600d947f275f8ac498a3572bd28fafdc01d4fd3c3b93f5c880feb591084d628c2946188398518255516001820155019060018060a01b039051166001600160601b0360a01b82541617905582600e82015542600f8201556103208311600014610a7a5701805460ff191660021790555b8151908152426020820152a2005b6101f4831115610a955701805460ff19166001179055610a6c565b01805460ff19169055610a6c565b634e487b7160e01b600052600060045260246000fd5b3461027557602080600319360112610275576001600160a01b03610adb612267565b1660005260078152604060002060405190818382549182815201908192600052846000209060005b86828210610b59578686610b19828803836121e2565b604051928392818401908285525180915260408401929160005b828110610b4257505050500390f35b835185528695509381019392810192600101610b33565b835485529093019260019283019201610b03565b34610275576020366003190112610275576004356000526003602052610bb0610b9c600c60406000200161232d565b6040519182916020835260208301906123f6565b0390f35b34610275576000366003190112610275576020600254604051908152f35b346102755760206001610c11610be736612293565b908060005260048552610c0060406000205483106128e5565b6000526004845260406000206122a9565b500154604051908152f35b346102755760003660031901126102755760206040517fc7ad0cce645d8882d9e3736f60b0ffdaece940015e673e73a905d480ad0e1c188152f35b3461027557600036600319011261027557602060405160008152f35b3461027557604036600319011261027557610c8c61227d565b600435600052600060205260406000209060018060a01b0316600052602052602060ff604060002054166040519015158152f35b34610275576020610cfd610cd336612293565b908060005260048452610cec60406000205483106128e5565b6000526004835260406000206122a9565b50600201546040516001600160a01b039091168152f35b346102755760203660031901126102755760043560005260036020526020600b60406000200154604051908152f35b34610275576020366003190112610275576004356000526003602052602060018060a01b0360086040600020015416604051908152f35b346102755760203660031901126102755760043560005260046020526020604060002054604051908152f35b34610275576020366003190112610275576004356000526003602052610bb0610b9c600360406000200161232d565b346102755760208060031936011261027557600060c0604051610df7816121ac565b82815282848201528260408201526060808201528260808201528260a0820152015260043560005260068152604060002060405190610e35826121ac565b8054825260018101546001600160a01b03908116848401908152600283015482166040850190815291610ed490610e6e6003860161232d565b90606087019182526005600487015496608089019788520154948160a089019560ff88161515875260ff60c08b019860081c16151588526040519a8b9a818c5251908b015251166040890152511660608701525160e060808701526101008601906123f6565b925160a085015251151560c084015251151560e08301520390f35b34610275576020366003190112610275576004356000526003602052610bb0610b9c600260406000200161232d565b346102755760203660031901126102755760043560005260036020526020600460406000200154604051908152f35b346102755760203660031901126102755760043560005260066020526040600020805460018060a01b039160ff8360018301541693600283015416610fc5610f976003850161232d565b600560048601549501549260405197889788526020880152604087015260e0606087015260e08601906123f6565b926080850152818116151560a085015260081c16151560c08301520390f35b34610275576020366003190112610275576004356000526003602052602060ff600d60406000200154166103616040518092612428565b346102755760403660031901126102755761103461227d565b336001600160a01b03821603611050576104cd90600435612769565b60405162461bcd60e51b815260206004820152602f60248201527f416363657373436f6e74726f6c3a2063616e206f6e6c792072656e6f756e636560448201526e103937b632b9903337b91039b2b63360891b6064820152608490fd5b34610275576040366003190112610275576004356110c961227d565b8160005260006020526110e3600160406000200154612435565b81600052600060205260406000209060018060a01b0316908160005260205260ff604060002054161561111257005b8160005260006020526040600020816000526020526040600020600160ff1982541617905533917f2f8788117e7eff1d82e926ec794901d17c78024a50270940304540a733656f0d600080a4005b34610275576020611173610cd336612293565b5054604051908152f35b34610275576020366003190112610275576004356000908152600360205260409020805460018201546001600160a01b0316916111bc6002820161232d565b6111c86003830161232d565b600483015460058401546006850154600786015460088701546009880154600a890154600b8a015496979095919492936001600160a01b0390811693169190611213600c8c0161232d565b99600d8c015460ff169d600e8d01549c600f01549d60405180608052526080516020015261022080608051604001526080510161124f916123f6565b6080518082039060600152611263916123f6565b976080516080015260805160a0015260805160c0015260805160e00152600160a01b6001900381166080516101000152608051610120019060a01c60ff16906112ab9161241b565b608051610140015260805161016001526080516101800152608051808203906101a001526112d8916123f6565b926080516101c0016112e991612428565b6080516101e00152608051610200015260805180910390f35b346102755760403660031901126102755761131b612267565b6001600160a01b03166000908152600760205260409020805460243591908210156102755760209161134c916122db565b90546040519160031b1c8152f35b346102755760203660031901126102755760043560005260006020526020600160406000200154604051908152f35b34610275576020366003190112610275576004356000526003602052602060018060a01b0360066040600020015416604051908152f35b34610275576020366003190112610275576004356000526003602052602060018060a01b0360076040600020015416604051908152f35b3461027557602080600319360112610275576004356001600160401b03811161027557611428903690600401612249565b80517f72d66193ff00a845b4aed5f27e02d9b558ef32be1495a41d00c5c5fb191a0763838301918220671213d4d41255105360c21b8560405161146a816121c7565b60088152015203611562575061150b7f6d9fac1782b03778ad5aa47a795806df6ba72e0b6d87312cc52c8d431e87e676917fc8f5b4140cca307cd927e59cbeea8291bffeee228fc677f0fa059aef7b4dd8d58060005260008552604060002033600052855260ff6040600020541615611510575b505b33600052600584526040600020600160ff1982541617905560405191829185835233958301906123f6565b0390a2005b806000526000855260406000203360005285526040600020600160ff19825416179055339033907f2f8788117e7eff1d82e926ec794901d17c78024a50270940304540a733656f0d600080a4846114de565b7f6d960d3aada907633a701143a0c8a0657b9ed1e77b6d2d8b56e5d8813982e10c8251822067504841524d41435960c01b856040516115a0816121c7565b6008815201520361166c575061150b7f6d9fac1782b03778ad5aa47a795806df6ba72e0b6d87312cc52c8d431e87e676917f2f3a5455f35aeca177ac653592f277fbe2fbafef01081a2030451bb2fb41c91d8060005260008552604060002033600052855260ff604060002054161561161a575b506114e0565b806000526000855260406000203360005285526040600020600160ff19825416179055339033907f2f8788117e7eff1d82e926ec794901d17c78024a50270940304540a733656f0d600080a484611614565b7f85faced7bde13e1a7dad704b895f006e704f207617d68166b31ba2d79624862d90825190206a2224a9aa2924a12aaa27a960a91b846040516116ae816121c7565b600b81520152036117265761150b7f6d9fac1782b03778ad5aa47a795806df6ba72e0b6d87312cc52c8d431e87e676917ffbd454f36a7e1a388bd6fc3ab10d434aa4578f811acbbcf33afb1c697486313c8060005260008552604060002033600052855260ff604060002054161561161a57506114e0565b60405162461bcd60e51b815260048101839052600c60248201526b496e76616c696420726f6c6560a01b6044820152606490fd5b346102755761176836612293565b906000526004602052604060002080548210156102755760609161178b916122a9565b50805490600181015490600260018060a01b03910154169060405192835260208301526040820152f35b346102755760203660031901126102755760043560005260036020526020600a60406000200154604051908152f35b3461027557604036600319011261027557600435602435801515810361027557600082815260036020526040902060078101546001600160a01b031633036118e45760080180549160ff8360a01c166005811015610433576002036118af57156118a7576003915b60058310156104335760ff60a01b191660a092831b60ff60a01b1617908190556040517f8e16b4336dc88d11f2b19383604580b7fc6349df052bc9232d52ce1a40df6c4d926020926118a4918391901c60ff1661241b565ba2005b60049161184c565b60405162461bcd60e51b815260206004820152600d60248201526c139bdd0819195b1a5d995c9959609a1b6044820152606490fd5b60405162461bcd60e51b815260206004820152600c60248201526b2737ba103932b1b2b4bb32b960a11b6044820152606490fd5b34610275576040366003190112610275576004356024356001600160401b03811161027557366023820112156102755761195c903690602481600401359101612203565b908060005260066020526005604060002061198460018060a01b0360028301541633146127ee565b016001815460ff81161580611a03575b61199d906128a5565b60ff19161790558060005260036020526008604060002001600160a01b60ff60a01b198254161790557fabf68e743ce656b721632e8c4de24d9205982f23c03b2c79a67a494f0fab1fcf60405160208152806119fe339560208301906123f6565b0390a3005b50600881901c60ff1615611994565b34610275576020366003190112610275576004358060005260036020526040600020611a4b60018060a01b0360018301541633146127ee565b60088101805460ff8160a01c16600581101561043357611a6b901561282b565b60ff60a01b1916600160a01b17905542600f9190910155604051600181527f8e16b4336dc88d11f2b19383604580b7fc6349df052bc9232d52ce1a40df6c4d90602090a2005b34610275576020366003190112610275576001600160a01b03611ad2612267565b166000526005602052602060ff604060002054166040519015158152f35b34610275576040366003190112610275576001600160401b0360043560243582811161027557611b24903690600401612249565b81600052602060038152604060002093600c60019560018060a01b03878201541633148015611ca9575b611b57906127ee565b0190835190811161074a57611b6c82546122f3565b601f8111611c60575b508295601f8211600114611be1578180917fe06fe6f03d15d1888ca418161d788ca6ba89914ff3b86d1d61a43c9efb4892ca9798600093611bd6575b501b916000199060031b1c19161790555b61150b6040519282849384528301906123f6565b870151925089611bb1565b90601f1981169683600052846000209060005b898110611c4b5750827fe06fe6f03d15d1888ca418161d788ca6ba89914ff3b86d1d61a43c9efb4892ca989910611c32575b5050811b019055611bc2565b86015160001960f88460031b161c191690558780611c26565b87820151835591840191908601908601611bf4565b8260005283600020601f830160051c810191858410611c9f575b601f0160051c019087905b828110611c93575050611b75565b60008155018790611c85565b9091508190611c7a565b507fc7ad0cce645d8882d9e3736f60b0ffdaece940015e673e73a905d480ad0e1c1860009081528085526040808220338352865290205460ff16611b4e565b346102755760c0366003190112610275576004356001600160401b03811161027557611d18903690600401612249565b6024356001600160401b03811161027557611d37903690600401612249565b90608435906001600160a01b03821682036102755733600052600560205260ff6040600020541615612114576001600160a01b038216156120dc574260a435111561209f57600160025401918260025582600052600360205260406000209083825560018201336001600160601b0360a01b82541617905582516001600160401b03811161074a57611dcc60028401546122f3565b601f8111612058575b50806020601f8211600114611feb57600091611fe0575b508160011b916000199060031b1c19161760028301555b84516001600160401b03811161074a57611e2060038401546122f3565b601f8111611f99575b50806020968790601f8311600114611f2e57600092611f23575b50508160011b916000199060031b1c19161760038301555b6044356004830155606435600583015560068201336001600160601b0360a01b825416179055600782019060018060a01b03166001600160601b0360a01b82541617905560088101805460ff60a01b193316906affffffffffffffffffffff60a81b1617905542600982015560a435600a820155600d810160ff198154169055600f42910155817f8c9bdf27ba84a24e737f3e4e480ca9c515fe7b7510f351aee254db99ccb9f47160405185815280611f183395888301906123f6565b0390a3604051908152f35b015190508780611e43565b6003860160009081528981209350601f198516905b818110611f825750908460019594939210611f69575b505050811b016003830155611e5b565b015160001960f88460031b161c19169055878080611f59565b92938a600181928786015181550195019301611f43565b600384016000526020600020601f830160051c810160208410611fd9575b601f830160051c82018110611fcd575050611e29565b60008155600101611fb7565b5080611fb7565b905084015187611dec565b91506002840160005260206000206000925b601f1983168410612040576001935082601f19811610612027575b5050811b016002830155611e03565b86015160001960f88460031b161c191690558780612018565b86810151825560209384019360019092019101611ffd565b600284016000526020600020601f830160051c810160208410612098575b601f830160051c8201811061208c575050611dd5565b60008155600101612076565b5080612076565b60405162461bcd60e51b8152602060048201526015602482015274496e76616c69642064656c69766572792074696d6560581b6044820152606490fd5b60405162461bcd60e51b815260206004820152601060248201526f24b73b30b634b2103932b1b2b4bb32b960811b6044820152606490fd5b60405162461bcd60e51b815260206004820152601960248201527f4f7267616e697a6174696f6e206e6f74207665726966696564000000000000006044820152606490fd5b34610275576020366003190112610275576004359063ffffffff60e01b821680920361027557602091637965db0b60e01b811490811561219b575b5015158152f35b6301ffc9a760e01b14905083612194565b60e081019081106001600160401b0382111761074a57604052565b604081019081106001600160401b0382111761074a57604052565b90601f801991011681019081106001600160401b0382111761074a57604052565b9291926001600160401b03821161074a576040519161222c601f8201601f1916602001846121e2565b829481845281830111610275578281602093846000960137010152565b9080601f830112156102755781602061226493359101612203565b90565b600435906001600160a01b038216820361027557565b602435906001600160a01b038216820361027557565b6040906003190112610275576004359060243590565b80548210156122c5576000526003602060002091020190600090565b634e487b7160e01b600052603260045260246000fd5b80548210156122c55760005260206000200190600090565b90600182811c92168015612323575b602083101461230d57565b634e487b7160e01b600052602260045260246000fd5b91607f1691612302565b9060405191826000825492612341846122f3565b9081845260019485811690816000146123b0575060011461236d575b505061236b925003836121e2565b565b9093915060005260209081600020936000915b81831061239857505061236b9350820101388061235d565b85548884018501529485019487945091830191612380565b91505061236b94506020925060ff191682840152151560051b820101388061235d565b60005b8381106123e65750506000910152565b81810151838201526020016123d6565b9060209161240f815180928185528580860191016123d3565b601f01601f1916010190565b9060058210156104335752565b9060038210156104335752565b600090808252602090828252604092838120338252835260ff84822054161561245e5750505050565b8351916001600160401b0390336060850183811186821017612755578752602a85528585019187368437855115612741576030835385519160019283101561272d576078602188015360295b8381116126c35750612681579087519360808501908582109082111761266d57885260428452868401946060368737845115612659576030865384518210156126595790607860218601536041915b8183116125eb575050506125a9576125a59386936125899361257a6048946125519a519a8b957f416363657373436f6e74726f6c3a206163636f756e74200000000000000000008c88015251809260378801906123d3565b8401917001034b99036b4b9b9b4b733903937b6329607d1b6037840152518093868401906123d3565b010360288101875201856121e2565b5192839262461bcd60e51b8452600484015260248301906123f6565b0390fd5b60648587519062461bcd60e51b825280600483015260248201527f537472696e67733a20686578206c656e67746820696e73756666696369656e746044820152fd5b909192600f81166010811015612645576f181899199a1a9b1b9c1cb0b131b232b360811b901a61261b85886127dd565b5360041c928015612631576000190191906124f9565b634e487b7160e01b82526011600452602482fd5b634e487b7160e01b83526032600452602483fd5b634e487b7160e01b81526032600452602490fd5b634e487b7160e01b86526041600452602486fd5b60648789519062461bcd60e51b825280600483015260248201527f537472696e67733a20686578206c656e67746820696e73756666696369656e746044820152fd5b90600f81166010811015612719576f181899199a1a9b1b9c1cb0b131b232b360811b901a6126f1838a6127dd565b5360041c90801561270557600019016124aa565b634e487b7160e01b87526011600452602487fd5b634e487b7160e01b88526032600452602488fd5b634e487b7160e01b86526032600452602486fd5b634e487b7160e01b85526032600452602485fd5b634e487b7160e01b85526041600452602485fd5b9060009180835282602052604083209160018060a01b03169182845260205260ff60408420541661279957505050565b80835282602052604083208284526020526040832060ff1981541690557ff6391f5c32d9c69d2a47ea670b442974b53935d1edc7fd64eb21e047a839171b339380a4565b9081518110156122c5570160200190565b156127f557565b60405162461bcd60e51b815260206004820152600e60248201526d139bdd08185d5d1a1bdc9a5e995960921b6044820152606490fd5b1561283257565b60405162461bcd60e51b815260206004820152600e60248201526d496e76616c69642073746174757360901b6044820152606490fd5b1561286f57565b60405162461bcd60e51b815260206004820152600e60248201526d139bdd081a5b881d1c985b9cda5d60921b6044820152606490fd5b156128ac57565b60405162461bcd60e51b8152602060048201526011602482015270105b1c9958591e481c1c9bd8d95cdcd959607a1b6044820152606490fd5b156128ec57565b60405162461bcd60e51b8152602060048201526013602482015272496e646578206f7574206f6620626f756e647360681b6044820152606490fdfea264697066735822122004d61496848662b4b761c3841e5c717ab5a451d4f75e042327d591272f62d40b64736f6c634300081300332f8788117e7eff1d82e926ec794901d17c78024a50270940304540a733656f0d",
  "linkReferences": {},
  "deployedLinkReferences": {}
}