{"contracts/AccessControl.sol":{"AccessControlContract":{"abi":[{"inputs":[],"stateMutability":"nonpayable","type":"constructor"},{"anonymous":false,"inputs":[{"indexed":true,"internalType":"address","name":"user","type":"address"},{"indexed":true,"internalType":"bytes32","name":"role","type":"bytes32"},{"indexed":false,"internalType":"uint256","name":"expiresAt","type":"uint256"}],"name":"PermissionGranted","type":"event"},{"anonymous":false,"inputs":[{"indexed":true,"internalType":"address","name":"user","type":"address"},{"indexed":true,"internalType":"bytes32","name":"role","type":"bytes32"}],"name":"PermissionRevoked","type":"event"},{"anonymous":false,"inputs":[{"indexed":true,"internalType":"bytes32","name":"role","type":"bytes32"},{"indexed":true,"internalType":"bytes32","name":"previousAdminRole","type":"bytes32"},{"indexed":true,"internalType":"bytes32","name":"newAdminRole","type":"bytes32"}],"name":"RoleAdminChanged","type":"event"},{"anonymous":false,"inputs":[{"indexed":true,"internalType":"bytes32","name":"role","type":"bytes32"},{"indexed":true,"internalType":"address","name":"account","type":"address"},{"indexed":true,"internalType":"address","name":"sender","type":"address"}],"name":"RoleGranted","type":"event"},{"anonymous":false,"inputs":[{"indexed":true,"internalType":"bytes32","name":"role","type":"bytes32"},{"indexed":true,"internalType":"address","name":"account","type":"address"},{"indexed":true,"internalType":"address","name":"sender","type":"address"}],"name":"RoleRevoked","type":"event"},{"inputs":[],"name":"ADMIN_ROLE","outputs":[{"internalType":"bytes32","name":"","type":"bytes32"}],"stateMutability":"view","type":"function"},{"inputs":[],"name":"AUDITOR_ROLE","outputs":[{"internalType":"bytes32","name":"","type":"bytes32"}],"stateMutability":"view","type":"function"},{"inputs":[],"name":"DEFAULT_ADMIN_ROLE","outputs":[{"internalType":"bytes32","name":"","type":"bytes32"}],"stateMutability":"view","type":"function"},{"inputs":[{"internalType":"address","name":"user","type":"address"},{"internalType":"bytes32","name":"role","type":"bytes32"}],"name":"checkPermission","outputs":[{"internalType":"bool","name":"","type":"bool"}],"stateMutability":"view","type":"function"},{"inputs":[{"internalType":"bytes32","name":"role","type":"bytes32"}],"name":"getRoleAdmin","outputs":[{"internalType":"bytes32","name":"","type":"bytes32"}],"stateMutability":"view","type":"function"},{"inputs":[{"internalType":"address","name":"user","type":"address"}],"name":"getUserPermissions","outputs":[{"components":[{"internalType":"address","name":"user","type":"address"},{"internalType":"bytes32","name":"role","type":"bytes32"},{"internalType":"uint256","name":"grantedAt","type":"uint256"},{"internalType":"uint256","name":"expiresAt","type":"uint256"},{"internalType":"bool","name":"active","type":"bool"}],"internalType":"struct AccessControlContract.Permission[]","name":"","type":"tuple[]"}],"stateMutability":"view","type":"function"},{"inputs":[{"internalType":"address","name":"user","type":"address"},{"internalType":"bytes32","name":"role","type":"bytes32"},{"internalType":"uint256","name":"duration","type":"uint256"}],"name":"grantPermission","outputs":[],"stateMutability":"nonpayable","type":"function"},{"inputs":[{"internalType":"bytes32","name":"role","type":"bytes32"},{"internalType":"address","name":"account","type":"address"}],"name":"grantRole","outputs":[],"stateMutability":"nonpayable","type":"function"},{"inputs":[{"internalType":"bytes32","name":"role","type":"bytes32"},{"internalType":"address","name":"account","type":"address"}],"name":"hasRole","outputs":[{"internalType":"bool","name":"","type":"bool"}],"stateMutability":"view","type":"function"},{"inputs":[{"internalType":"bytes32","name":"role","type":"bytes32"},{"internalType":"address","name":"account","type":"address"}],"name":"renounceRole","outputs":[],"stateMutability":"nonpayable","type":"function"},{"inputs":[{"internalType":"address","name":"user","type":"address"},{"internalType":"bytes32","name":"role","type":"bytes32"}],"name":"revokePermission","outputs":[],"stateMutability":"nonpayable","type":"function"},{"inputs":[{"internalType":"bytes32","name":"role","type":"bytes32"},{"internalType":"address","name":"account","type":"address"}],"name":"revokeRole","outputs":[],"stateMutability":"nonpayable","type":"function"},{"inputs":[{"internalType":"bytes32","name":"","type":"bytes32"}],"name":"roleCount","outputs":[{"internalType":"uint256","name":"","type":"uint256"}],"stateMutability":"view","type":"function"},{"inputs":[{"internalType":"bytes4","name":"interfaceId","type":"bytes4"}],"name":"supportsInterface","outputs":[{"internalType":"bool","name":"","type":"bool"}],"stateMutability":"view","type":"function"},{"inputs":[{"internalType":"address","name":"","type":"address"},{"internalType":"uint256","name":"","type":"uint256"}],"name":"userPermissions","outputs":[{"internalType":"address","name":"user","type":"address"},{"internalType":"bytes32","name":"role","type":"bytes32"},{"internalType":"uint256","name":"grantedAt","type":"uint256"},{"internalType":"uint256","name":"expiresAt","type":"uint256"},{"internalType":"bool","name":"active","type":"bool"}],"stateMutability":"view","type":"function"}],"evm":{"bytecode":{"linkReferences":{},"object":"60806040818152346100e3576000808052602091818352808220338352835260ff8183205416156100ad575b7fa49807205ce4d355092ef5a8a18f56e8913cf4a201fbe287825b095693c2177592838352828152818320338452815260ff828420541615610074575b610f5185816100e98239f35b83835282815281832090338452528120600160ff19825416179055339160008051602061103a833981519152339280a438808080610068565b8180528183528082203383528352808220600160ff1982541617905533338360008051602061103a8339815191528180a461002b565b600080fdfe608060408181526004918236101561001657600080fd5b600092833560e01c91826301ffc9a71461087857508163248a9ca31461084e57816325fde663146106f65781632f2ff15d146106cc57816336568abe1461063a5781635fe07013146104d75781636d1b010d146104af5781636e1d616e1461047457816375b238fc1461043957816391d14854146103f3578163a217fddf146103d8578163b0cde7cd146101db578163b3c33f2f14610154578163d547741f14610112575063d6392057146100ca57600080fd5b3461010e578060031936011261010e5760ff816020936100e86108cb565b60243582528186528282206001600160a01b039091168252855220549151911615158152f35b5080fd5b9190503461015057806003193601126101505761014d913561014860016101376108e6565b938387528660205286200154610b5f565b610d6a565b80f35b8280fd5b9190503461015057806003193601126101505761016f6108cb565b6001600160a01b0390811684526001602052818420805460243595908610156101d8575060a09461019f916108fc565b50908154169260018201549260ff6002840154926003850154940154169381519586526020860152840152606083015215156080820152f35b80fd5b8391503461010e57606036600319011261010e576101f76108cb565b926024938435926044359261020a61092e565b6001600160a01b038381169485156103a757868852602094888652838920878a52865260ff848a205416610372576102429088610cf2565b801561036a57420180421161035857925b858852600185528288209183519061026a82610c82565b8782528682018981528583019042825260608401928884526080850196600188528054906801000000000000000082101561034657906102af916001820181556108fc565b959095610335577f999c5f915d96b699b3d664ecc997e7f4b5594cadbf1c69a2534276e091d7f93d9b9c9d9e5051166bffffffffffffffffffffffff60a01b855416178455516001840155516002830155516003820155019051151560ff801983541691161790558587526002835280872061032b8154610f0c565b905551908152a380f35b634e487b7160e01b8e528d87528e8efd5b634e487b7160e01b8f52604188528f8ffd5b634e487b7160e01b8852601184528888fd5b508692610253565b835162461bcd60e51b81528086018790526010818c01526f416c72656164792068617320726f6c6560801b6044820152606490fd5b825162461bcd60e51b8152602081860152600c818b01526b24b73b30b634b2103ab9b2b960a11b6044820152606490fd5b50503461010e578160031936011261010e5751908152602090f35b9050346101505781600319360112610150578160209360ff926104146108e6565b903582528186528282206001600160a01b039091168252855220549151911615158152f35b50503461010e578160031936011261010e57602090517fa49807205ce4d355092ef5a8a18f56e8913cf4a201fbe287825b095693c217758152f35b50503461010e578160031936011261010e57602090517f59a1c48e5837ad7a7f3dcedcbe129bf3249ec4fbf651fd4f5e2600ead39fe2f58152f35b9050346101505760203660031901126101505760209282913581526002845220549051908152f35b919050346101505780600319360112610150576104f26108cb565b91602435916104ff61092e565b82855260208581528186206001600160a01b03861680885291528186205460ff9591939190861615610602576105359085610d6a565b82865260019485602052828720908688905b61058d575b88878787828452600260205283206105648154610def565b90557f789770131846de4d1f28418f0f957cdf4fcabe5eccf70067083e20ecece69a348380a380f35b82548110156105fd5786886105a283866108fc565b50015414806105e7575b6105c0576105ba8891610f0c565b90610547565b9190506105d19293949596506108fc565b5001805460ff191690558291903880808061054c565b5081846105f483866108fc565b500154166105ac565b61054c565b506020606492519162461bcd60e51b83528201526012602482015271446f6573206e6f74206861766520726f6c6560701b6044820152fd5b8391503461010e578260031936011261010e576106556108e6565b90336001600160a01b03831603610671579061014d9135610d6a565b608490602085519162461bcd60e51b8352820152602f60248201527f416363657373436f6e74726f6c3a2063616e206f6e6c792072656e6f756e636560448201526e103937b632b9903337b91039b2b63360891b6064820152fd5b9190503461015057806003193601126101505761014d91356106f160016101376108e6565b610cf2565b905034610150576020908160031936011261084a576001600160a01b03918261071d6108cb565b16855260019485825284812093845467ffffffffffffffff81116108375786519194889491889160059061075583831b860187610cd0565b82865284860190819a88528588209088925b8584106107d75750505050505080519582870193838852518094528187019794915b8483106107965787890388f35b8551805183168a5284810151858b015281810151828b0152606080820151908b01526080908101511515908a015260a0909801979483019491860191610789565b998488829e9c899e99809d9b9c9d51906107f082610c82565b8b885416825285880154848301526002880154908201526003870154606082015260ff8688015416151560808201528152019301930192919b999b9a959a98979698610767565b634e487b7160e01b835260418552602483fd5b8380fd5b90503461015057602036600319011261015057816020936001923581528085522001549051908152f35b849134610150576020366003190112610150573563ffffffff60e01b81168091036101505760209250637965db0b60e01b81149081156108ba575b5015158152f35b6301ffc9a760e01b149050836108b3565b600435906001600160a01b03821682036108e157565b600080fd5b602435906001600160a01b03821682036108e157565b8054821015610918576000526005602060002091020190600090565b634e487b7160e01b600052603260045260246000fd5b3360009081527f7d7ffb7a348e1c6a02869081a26547b49160dd3df72d1d75a570eb9b698292ec6020908152604080832054909291907fa49807205ce4d355092ef5a8a18f56e8913cf4a201fbe287825b095693c217759060ff16156109945750505050565b61099d33610e12565b908451906109aa82610cb4565b60428252838201946060368737825115610b4b57603086538251600190811015610b375790607860218501536041915b808311610add57505050610a9b5784610a696048610a8d936044979851988991610a5a8984019876020b1b1b2b9b9a1b7b73a3937b61d1030b1b1b7bab73a1604d1b8a52610a31815180928d603789019101610c5f565b8401917001034b99036b4b9b9b4b733903937b6329607d1b603784015251809386840190610c5f565b01036028810189520187610cd0565b5194859362461bcd60e51b8552600485015251809281602486015285850190610c5f565b601f01601f19168101030190fd5b60648386519062461bcd60e51b825280600483015260248201527f537472696e67733a20686578206c656e67746820696e73756666696369656e746044820152fd5b909192600f81166010811015610b2357610b1c91906f181899199a1a9b1b9c1cb0b131b232b360811b901a610b128688610dde565b5360041c93610def565b91906109da565b634e487b7160e01b84526032600452602484fd5b634e487b7160e01b82526032600452602482fd5b634e487b7160e01b81526032600452602490fd5b60008181526020818152604092838320338452825260ff848420541615610b865750505050565b610b8f33610e12565b90845190610b9c82610cb4565b60428252838201946060368737825115610b4b57603086538251600190811015610b375790607860218501536041915b808311610c2357505050610a9b5784610a696048610a8d936044979851988991610a5a8984019876020b1b1b2b9b9a1b7b73a3937b61d1030b1b1b7bab73a1604d1b8a52610a31815180928d603789019101610c5f565b909192600f81166010811015610b2357610c5891906f181899199a1a9b1b9c1cb0b131b232b360811b901a610b128688610dde565b9190610bcc565b60005b838110610c725750506000910152565b8181015183820152602001610c62565b60a0810190811067ffffffffffffffff821117610c9e57604052565b634e487b7160e01b600052604160045260246000fd5b6080810190811067ffffffffffffffff821117610c9e57604052565b90601f8019910116810190811067ffffffffffffffff821117610c9e57604052565b9060009180835282602052604083209160018060a01b03169182845260205260ff60408420541615610d2357505050565b808352826020526040832082845260205260408320600160ff198254161790557f2f8788117e7eff1d82e926ec794901d17c78024a50270940304540a733656f0d339380a4565b9060009180835282602052604083209160018060a01b03169182845260205260ff604084205416610d9a57505050565b80835282602052604083208284526020526040832060ff1981541690557ff6391f5c32d9c69d2a47ea670b442974b53935d1edc7fd64eb21e047a839171b339380a4565b908151811015610918570160200190565b8015610dfc576000190190565b634e487b7160e01b600052601160045260246000fd5b604051906060820182811067ffffffffffffffff821117610c9e57604052602a82526020820160403682378251156109185760309053815160019081101561091857607860218401536029905b808211610eb3575050610e6f5790565b606460405162461bcd60e51b815260206004820152602060248201527f537472696e67733a20686578206c656e67746820696e73756666696369656e746044820152fd5b9091600f8116906010821015610ef757610ef1916f181899199a1a9b1b9c1cb0b131b232b360811b901a610ee78587610dde565b5360041c92610def565b90610e5f565b60246000634e487b7160e01b81526032600452fd5b6000198114610dfc576001019056fea26469706673582212202e58552129445813745804ed2a28f15742345e1b30b6f8b74bd38c84c9156c5764736f6c634300081300332f8788117e7eff1d82e926ec794901d17c78024a50270940304540a733656f0d","opcodes":"PUSH1 0x80 PUSH1 0x40 DUP2 DUP2 MSTORE CALLVALUE PUSH2 0xE3 JUMPI PUSH1 0x0 DUP1 DUP1 MSTORE PUSH1 0x20 SWAP2 DUP2 DUP4 MSTORE DUP1 DUP3 KECCAK256 CALLER DUP4 MSTORE DUP4 MSTORE PUSH1 0xFF DUP2 DUP4 KECCAK256 SLOAD AND ISZERO PUSH2 0xAD JUMPI JUMPDEST PUSH32 0xA49807205CE4D355092EF5A8A18F56E8913CF4A201FBE287825B095693C21775 SWAP3 DUP4 DUP4 MSTORE DUP3 DUP2 MSTORE DUP2 DUP4 KECCAK256 CALLER DUP5 MSTORE DUP2 MSTORE PUSH1 0xFF DUP3 DUP5 KECCAK256 SLOAD AND ISZERO PUSH2 0x74 JUMPI JUMPDEST PUSH2 0xF51 DUP6 DUP2 PUSH2 0xE9 DUP3 CODECOPY RETURN JUMPDEST DUP4 DUP4 MSTORE DUP3 DUP2 MSTORE DUP2 DUP4 KECCAK256 SWAP1 CALLER DUP5 MSTORE MSTORE DUP2 KECCAK256 PUSH1 0x1 PUSH1 0xFF NOT DUP3 SLOAD AND OR SWAP1 SSTORE CALLER SWAP2 PUSH1 0x0 DUP1 MLOAD PUSH1 0x20 PUSH2 0x103A DUP4 CODECOPY DUP2 MLOAD SWAP2 MSTORE CALLER SWAP3 DUP1 LOG4 CODESIZE DUP1 DUP1 DUP1 PUSH2 0x68 JUMP JUMPDEST DUP2 DUP1 MSTORE DUP2 DUP4 MSTORE DUP1 DUP3 KECCAK256 CALLER DUP4 MSTORE DUP4 MSTORE DUP1 DUP3 KECCAK256 PUSH1 0x1 PUSH1 0xFF NOT DUP3 SLOAD AND OR SWAP1 SSTORE CALLER CALLER DUP4 PUSH1 0x0 DUP1 MLOAD PUSH1 0x20 PUSH2 0x103A DUP4 CODECOPY DUP2 MLOAD SWAP2 MSTORE DUP2 DUP1 LOG4 PUSH2 0x2B JUMP JUMPDEST PUSH1 0x0 DUP1 REVERT INVALID PUSH1 0x80 PUSH1 0x40 DUP2 DUP2 MSTORE PUSH1 0x4 SWAP2 DUP3 CALLDATASIZE LT ISZERO PUSH2 0x16 JUMPI PUSH1 0x0 DUP1 REVERT JUMPDEST PUSH1 0x0 SWAP3 DUP4 CALLDATALOAD PUSH1 0xE0 SHR SWAP2 DUP3 PUSH4 0x1FFC9A7 EQ PUSH2 0x878 JUMPI POP DUP2 PUSH4 0x248A9CA3 EQ PUSH2 0x84E JUMPI DUP2 PUSH4 0x25FDE663 EQ PUSH2 0x6F6 JUMPI DUP2 PUSH4 0x2F2FF15D EQ PUSH2 0x6CC JUMPI DUP2 PUSH4 0x36568ABE EQ PUSH2 0x63A JUMPI DUP2 PUSH4 0x5FE07013 EQ PUSH2 0x4D7 JUMPI DUP2 PUSH4 0x6D1B010D EQ PUSH2 0x4AF JUMPI DUP2 PUSH4 0x6E1D616E EQ PUSH2 0x474 JUMPI DUP2 PUSH4 0x75B238FC EQ PUSH2 0x439 JUMPI DUP2 PUSH4 0x91D14854 EQ PUSH2 0x3F3 JUMPI DUP2 PUSH4 0xA217FDDF EQ PUSH2 0x3D8 JUMPI DUP2 PUSH4 0xB0CDE7CD EQ PUSH2 0x1DB JUMPI DUP2 PUSH4 0xB3C33F2F EQ PUSH2 0x154 JUMPI DUP2 PUSH4 0xD547741F EQ PUSH2 0x112 JUMPI POP PUSH4 0xD6392057 EQ PUSH2 0xCA JUMPI PUSH1 0x0 DUP1 REVERT JUMPDEST CALLVALUE PUSH2 0x10E JUMPI DUP1 PUSH1 0x3 NOT CALLDATASIZE ADD SLT PUSH2 0x10E JUMPI PUSH1 0xFF DUP2 PUSH1 0x20 SWAP4 PUSH2 0xE8 PUSH2 0x8CB JUMP JUMPDEST PUSH1 0x24 CALLDATALOAD DUP3 MSTORE DUP2 DUP7 MSTORE DUP3 DUP3 KECCAK256 PUSH1 0x1 PUSH1 0x1 PUSH1 0xA0 SHL SUB SWAP1 SWAP2 AND DUP3 MSTORE DUP6 MSTORE KECCAK256 SLOAD SWAP2 MLOAD SWAP2 AND ISZERO ISZERO DUP2 MSTORE RETURN JUMPDEST POP DUP1 REVERT JUMPDEST SWAP2 SWAP1 POP CALLVALUE PUSH2 0x150 JUMPI DUP1 PUSH1 0x3 NOT CALLDATASIZE ADD SLT PUSH2 0x150 JUMPI PUSH2 0x14D SWAP2 CALLDATALOAD PUSH2 0x148 PUSH1 0x1 PUSH2 0x137 PUSH2 0x8E6 JUMP JUMPDEST SWAP4 DUP4 DUP8 MSTORE DUP7 PUSH1 0x20 MSTORE DUP7 KECCAK256 ADD SLOAD PUSH2 0xB5F JUMP JUMPDEST PUSH2 0xD6A JUMP JUMPDEST DUP1 RETURN JUMPDEST DUP3 DUP1 REVERT JUMPDEST SWAP2 SWAP1 POP CALLVALUE PUSH2 0x150 JUMPI DUP1 PUSH1 0x3 NOT CALLDATASIZE ADD SLT PUSH2 0x150 JUMPI PUSH2 0x16F PUSH2 0x8CB JUMP JUMPDEST PUSH1 0x1 PUSH1 0x1 PUSH1 0xA0 SHL SUB SWAP1 DUP2 AND DUP5 MSTORE PUSH1 0x1 PUSH1 0x20 MSTORE DUP2 DUP5 KECCAK256 DUP1 SLOAD PUSH1 0x24 CALLDATALOAD SWAP6 SWAP1 DUP7 LT ISZERO PUSH2 0x1D8 JUMPI POP PUSH1 0xA0 SWAP5 PUSH2 0x19F SWAP2 PUSH2 0x8FC JUMP JUMPDEST POP SWAP1 DUP2 SLOAD AND SWAP3 PUSH1 0x1 DUP3 ADD SLOAD SWAP3 PUSH1 0xFF PUSH1 0x2 DUP5 ADD SLOAD SWAP3 PUSH1 0x3 DUP6 ADD SLOAD SWAP5 ADD SLOAD AND SWAP4 DUP2 MLOAD SWAP6 DUP7 MSTORE PUSH1 0x20 DUP7 ADD MSTORE DUP5 ADD MSTORE PUSH1 0x60 DUP4 ADD MSTORE ISZERO ISZERO PUSH1 0x80 DUP3 ADD MSTORE RETURN JUMPDEST DUP1 REVERT JUMPDEST DUP4 SWAP2 POP CALLVALUE PUSH2 0x10E JUMPI PUSH1 0x60 CALLDATASIZE PUSH1 0x3 NOT ADD SLT PUSH2 0x10E JUMPI PUSH2 0x1F7 PUSH2 0x8CB JUMP JUMPDEST SWAP3 PUSH1 0x24 SWAP4 DUP5 CALLDATALOAD SWAP3 PUSH1 0x44 CALLDATALOAD SWAP3 PUSH2 0x20A PUSH2 0x92E JUMP JUMPDEST PUSH1 0x1 PUSH1 0x1 PUSH1 0xA0 SHL SUB DUP4 DUP2 AND SWAP5 DUP6 ISZERO PUSH2 0x3A7 JUMPI DUP7 DUP9 MSTORE PUSH1 0x20 SWAP5 DUP9 DUP7 MSTORE DUP4 DUP10 KECCAK256 DUP8 DUP11 MSTORE DUP7 MSTORE PUSH1 0xFF DUP5 DUP11 KECCAK256 SLOAD AND PUSH2 0x372 JUMPI PUSH2 0x242 SWAP1 DUP9 PUSH2 0xCF2 JUMP JUMPDEST DUP1 ISZERO PUSH2 0x36A JUMPI TIMESTAMP ADD DUP1 TIMESTAMP GT PUSH2 0x358 JUMPI SWAP3 JUMPDEST DUP6 DUP9 MSTORE PUSH1 0x1 DUP6 MSTORE DUP3 DUP9 KECCAK256 SWAP2 DUP4 MLOAD SWAP1 PUSH2 0x26A DUP3 PUSH2 0xC82 JUMP JUMPDEST DUP8 DUP3 MSTORE DUP7 DUP3 ADD DUP10 DUP2 MSTORE DUP6 DUP4 ADD SWAP1 TIMESTAMP DUP3 MSTORE PUSH1 0x60 DUP5 ADD SWAP3 DUP9 DUP5 MSTORE PUSH1 0x80 DUP6 ADD SWAP7 PUSH1 0x1 DUP9 MSTORE DUP1 SLOAD SWAP1 PUSH9 0x10000000000000000 DUP3 LT ISZERO PUSH2 0x346 JUMPI SWAP1 PUSH2 0x2AF SWAP2 PUSH1 0x1 DUP3 ADD DUP2 SSTORE PUSH2 0x8FC JUMP JUMPDEST SWAP6 SWAP1 SWAP6 PUSH2 0x335 JUMPI PUSH32 0x999C5F915D96B699B3D664ECC997E7F4B5594CADBF1C69A2534276E091D7F93D SWAP12 SWAP13 SWAP14 SWAP15 POP MLOAD AND PUSH12 0xFFFFFFFFFFFFFFFFFFFFFFFF PUSH1 0xA0 SHL DUP6 SLOAD AND OR DUP5 SSTORE MLOAD PUSH1 0x1 DUP5 ADD SSTORE MLOAD PUSH1 0x2 DUP4 ADD SSTORE MLOAD PUSH1 0x3 DUP3 ADD SSTORE ADD SWAP1 MLOAD ISZERO ISZERO PUSH1 0xFF DUP1 NOT DUP4 SLOAD AND SWAP2 AND OR SWAP1 SSTORE DUP6 DUP8 MSTORE PUSH1 0x2 DUP4 MSTORE DUP1 DUP8 KECCAK256 PUSH2 0x32B DUP2 SLOAD PUSH2 0xF0C JUMP JUMPDEST SWAP1 SSTORE MLOAD SWAP1 DUP2 MSTORE LOG3 DUP1 RETURN JUMPDEST PUSH4 0x4E487B71 PUSH1 0xE0 SHL DUP15 MSTORE DUP14 DUP8 MSTORE DUP15 DUP15 REVERT JUMPDEST PUSH4 0x4E487B71 PUSH1 0xE0 SHL DUP16 MSTORE PUSH1 0x41 DUP9 MSTORE DUP16 DUP16 REVERT JUMPDEST PUSH4 0x4E487B71 PUSH1 0xE0 SHL DUP9 MSTORE PUSH1 0x11 DUP5 MSTORE DUP9 DUP9 REVERT JUMPDEST POP DUP7 SWAP3 PUSH2 0x253 JUMP JUMPDEST DUP4 MLOAD PUSH3 0x461BCD PUSH1 0xE5 SHL DUP2 MSTORE DUP1 DUP7 ADD DUP8 SWAP1 MSTORE PUSH1 0x10 DUP2 DUP13 ADD MSTORE PUSH16 0x416C72656164792068617320726F6C65 PUSH1 0x80 SHL PUSH1 0x44 DUP3 ADD MSTORE PUSH1 0x64 SWAP1 REVERT JUMPDEST DUP3 MLOAD PUSH3 0x461BCD PUSH1 0xE5 SHL DUP2 MSTORE PUSH1 0x20 DUP2 DUP7 ADD MSTORE PUSH1 0xC DUP2 DUP12 ADD MSTORE PUSH12 0x24B73B30B634B2103AB9B2B9 PUSH1 0xA1 SHL PUSH1 0x44 DUP3 ADD MSTORE PUSH1 0x64 SWAP1 REVERT JUMPDEST POP POP CALLVALUE PUSH2 0x10E JUMPI DUP2 PUSH1 0x3 NOT CALLDATASIZE ADD SLT PUSH2 0x10E JUMPI MLOAD SWAP1 DUP2 MSTORE PUSH1 0x20 SWAP1 RETURN JUMPDEST SWAP1 POP CALLVALUE PUSH2 0x150 JUMPI DUP2 PUSH1 0x3 NOT CALLDATASIZE ADD SLT PUSH2 0x150 JUMPI DUP2 PUSH1 0x20 SWAP4 PUSH1 0xFF SWAP3 PUSH2 0x414 PUSH2 0x8E6 JUMP JUMPDEST SWAP1 CALLDATALOAD DUP3 MSTORE DUP2 DUP7 MSTORE DUP3 DUP3 KECCAK256 PUSH1 0x1 PUSH1 0x1 PUSH1 0xA0 SHL SUB SWAP1 SWAP2 AND DUP3 MSTORE DUP6 MSTORE KECCAK256 SLOAD SWAP2 MLOAD SWAP2 AND ISZERO ISZERO DUP2 MSTORE RETURN JUMPDEST POP POP CALLVALUE PUSH2 0x10E JUMPI DUP2 PUSH1 0x3 NOT CALLDATASIZE ADD SLT PUSH2 0x10E JUMPI PUSH1 0x20 SWAP1 MLOAD PUSH32 0xA49807205CE4D355092EF5A8A18F56E8913CF4A201FBE287825B095693C21775 DUP2 MSTORE RETURN JUMPDEST POP POP CALLVALUE PUSH2 0x10E JUMPI DUP2 PUSH1 0x3 NOT CALLDATASIZE ADD SLT PUSH2 0x10E JUMPI PUSH1 0x20 SWAP1 MLOAD PUSH32 0x59A1C48E5837AD7A7F3DCEDCBE129BF3249EC4FBF651FD4F5E2600EAD39FE2F5 DUP2 MSTORE RETURN JUMPDEST SWAP1 POP CALLVALUE PUSH2 0x150 JUMPI PUSH1 0x20 CALLDATASIZE PUSH1 0x3 NOT ADD SLT PUSH2 0x150 JUMPI PUSH1 0x20 SWAP3 DUP3 SWAP2 CALLDATALOAD DUP2 MSTORE PUSH1 0x2 DUP5 MSTORE KECCAK256 SLOAD SWAP1 MLOAD SWAP1 DUP2 MSTORE RETURN JUMPDEST SWAP2 SWAP1 POP CALLVALUE PUSH2 0x150 JUMPI DUP1 PUSH1 0x3 NOT CALLDATASIZE ADD SLT PUSH2 0x150 JUMPI PUSH2 0x4F2 PUSH2 0x8CB JUMP JUMPDEST SWAP2 PUSH1 0x24 CALLDATALOAD SWAP2 PUSH2 0x4FF PUSH2 0x92E JUMP JUMPDEST DUP3 DUP6 MSTORE PUSH1 0x20 DUP6 DUP2 MSTORE DUP2 DUP7 KECCAK256 PUSH1 0x1 PUSH1 0x1 PUSH1 0xA0 SHL SUB DUP7 AND DUP1 DUP9 MSTORE SWAP2 MSTORE DUP2 DUP7 KECCAK256 SLOAD PUSH1 0xFF SWAP6 SWAP2 SWAP4 SWAP2 SWAP1 DUP7 AND ISZERO PUSH2 0x602 JUMPI PUSH2 0x535 SWAP1 DUP6 PUSH2 0xD6A JUMP JUMPDEST DUP3 DUP7 MSTORE PUSH1 0x1 SWAP5 DUP6 PUSH1 0x20 MSTORE DUP3 DUP8 KECCAK256 SWAP1 DUP7 DUP9 SWAP1 JUMPDEST PUSH2 0x58D JUMPI JUMPDEST DUP9 DUP8 DUP8 DUP8 DUP3 DUP5 MSTORE PUSH1 0x2 PUSH1 0x20 MSTORE DUP4 KECCAK256 PUSH2 0x564 DUP2 SLOAD PUSH2 0xDEF JUMP JUMPDEST SWAP1 SSTORE PUSH32 0x789770131846DE4D1F28418F0F957CDF4FCABE5ECCF70067083E20ECECE69A34 DUP4 DUP1 LOG3 DUP1 RETURN JUMPDEST DUP3 SLOAD DUP2 LT ISZERO PUSH2 0x5FD JUMPI DUP7 DUP9 PUSH2 0x5A2 DUP4 DUP7 PUSH2 0x8FC JUMP JUMPDEST POP ADD SLOAD EQ DUP1 PUSH2 0x5E7 JUMPI JUMPDEST PUSH2 0x5C0 JUMPI PUSH2 0x5BA DUP9 SWAP2 PUSH2 0xF0C JUMP JUMPDEST SWAP1 PUSH2 0x547 JUMP JUMPDEST SWAP2 SWAP1 POP PUSH2 0x5D1 SWAP3 SWAP4 SWAP5 SWAP6 SWAP7 POP PUSH2 0x8FC JUMP JUMPDEST POP ADD DUP1 SLOAD PUSH1 0xFF NOT AND SWAP1 SSTORE DUP3 SWAP2 SWAP1 CODESIZE DUP1 DUP1 DUP1 PUSH2 0x54C JUMP JUMPDEST POP DUP2 DUP5 PUSH2 0x5F4 DUP4 DUP7 PUSH2 0x8FC JUMP JUMPDEST POP ADD SLOAD AND PUSH2 0x5AC JUMP JUMPDEST PUSH2 0x54C JUMP JUMPDEST POP PUSH1 0x20 PUSH1 0x64 SWAP3 MLOAD SWAP2 PUSH3 0x461BCD PUSH1 0xE5 SHL DUP4 MSTORE DUP3 ADD MSTORE PUSH1 0x12 PUSH1 0x24 DUP3 ADD MSTORE PUSH18 0x446F6573206E6F74206861766520726F6C65 PUSH1 0x70 SHL PUSH1 0x44 DUP3 ADD MSTORE REVERT JUMPDEST DUP4 SWAP2 POP CALLVALUE PUSH2 0x10E JUMPI DUP3 PUSH1 0x3 NOT CALLDATASIZE ADD SLT PUSH2 0x10E JUMPI PUSH2 0x655 PUSH2 0x8E6 JUMP JUMPDEST SWAP1 CALLER PUSH1 0x1 PUSH1 0x1 PUSH1 0xA0 SHL SUB DUP4 AND SUB PUSH2 0x671 JUMPI SWAP1 PUSH2 0x14D SWAP2 CALLDATALOAD PUSH2 0xD6A JUMP JUMPDEST PUSH1 0x84 SWAP1 PUSH1 0x20 DUP6 MLOAD SWAP2 PUSH3 0x461BCD PUSH1 0xE5 SHL DUP4 MSTORE DUP3 ADD MSTORE PUSH1 0x2F PUSH1 0x24 DUP3 ADD MSTORE PUSH32 0x416363657373436F6E74726F6C3A2063616E206F6E6C792072656E6F756E6365 PUSH1 0x44 DUP3 ADD MSTORE PUSH15 0x103937B632B9903337B91039B2B633 PUSH1 0x89 SHL PUSH1 0x64 DUP3 ADD MSTORE REVERT JUMPDEST SWAP2 SWAP1 POP CALLVALUE PUSH2 0x150 JUMPI DUP1 PUSH1 0x3 NOT CALLDATASIZE ADD SLT PUSH2 0x150 JUMPI PUSH2 0x14D SWAP2 CALLDATALOAD PUSH2 0x6F1 PUSH1 0x1 PUSH2 0x137 PUSH2 0x8E6 JUMP JUMPDEST PUSH2 0xCF2 JUMP JUMPDEST SWAP1 POP CALLVALUE PUSH2 0x150 JUMPI PUSH1 0x20 SWAP1 DUP2 PUSH1 0x3 NOT CALLDATASIZE ADD SLT PUSH2 0x84A JUMPI PUSH1 0x1 PUSH1 0x1 PUSH1 0xA0 SHL SUB SWAP2 DUP3 PUSH2 0x71D PUSH2 0x8CB JUMP JUMPDEST AND DUP6 MSTORE PUSH1 0x1 SWAP5 DUP6 DUP3 MSTORE DUP5 DUP2 KECCAK256 SWAP4 DUP5 SLOAD PUSH8 0xFFFFFFFFFFFFFFFF DUP2 GT PUSH2 0x837 JUMPI DUP7 MLOAD SWAP2 SWAP5 DUP9 SWAP5 SWAP2 DUP9 SWAP2 PUSH1 0x5 SWAP1 PUSH2 0x755 DUP4 DUP4 SHL DUP7 ADD DUP8 PUSH2 0xCD0 JUMP JUMPDEST DUP3 DUP7 MSTORE DUP5 DUP7 ADD SWAP1 DUP2 SWAP11 DUP9 MSTORE DUP6 DUP9 KECCAK256 SWAP1 DUP9 SWAP3 JUMPDEST DUP6 DUP5 LT PUSH2 0x7D7 JUMPI POP POP POP POP POP POP DUP1 MLOAD SWAP6 DUP3 DUP8 ADD SWAP4 DUP4 DUP9 MSTORE MLOAD DUP1 SWAP5 MSTORE DUP2 DUP8 ADD SWAP8 SWAP5 SWAP2 JUMPDEST DUP5 DUP4 LT PUSH2 0x796 JUMPI DUP8 DUP10 SUB DUP9 RETURN JUMPDEST DUP6 MLOAD DUP1 MLOAD DUP4 AND DUP11 MSTORE DUP5 DUP2 ADD MLOAD DUP6 DUP12 ADD MSTORE DUP2 DUP2 ADD MLOAD DUP3 DUP12 ADD MSTORE PUSH1 0x60 DUP1 DUP3 ADD MLOAD SWAP1 DUP12 ADD MSTORE PUSH1 0x80 SWAP1 DUP2 ADD MLOAD ISZERO ISZERO SWAP1 DUP11 ADD MSTORE PUSH1 0xA0 SWAP1 SWAP9 ADD SWAP8 SWAP5 DUP4 ADD SWAP5 SWAP2 DUP7 ADD SWAP2 PUSH2 0x789 JUMP JUMPDEST SWAP10 DUP5 DUP9 DUP3 SWAP15 SWAP13 DUP10 SWAP15 SWAP10 DUP1 SWAP14 SWAP12 SWAP13 SWAP14 MLOAD SWAP1 PUSH2 0x7F0 DUP3 PUSH2 0xC82 JUMP JUMPDEST DUP12 DUP9 SLOAD AND DUP3 MSTORE DUP6 DUP9 ADD SLOAD DUP5 DUP4 ADD MSTORE PUSH1 0x2 DUP9 ADD SLOAD SWAP1 DUP3 ADD MSTORE PUSH1 0x3 DUP8 ADD SLOAD PUSH1 0x60 DUP3 ADD MSTORE PUSH1 0xFF DUP7 DUP9 ADD SLOAD AND ISZERO ISZERO PUSH1 0x80 DUP3 ADD MSTORE DUP2 MSTORE ADD SWAP4 ADD SWAP4 ADD SWAP3 SWAP2 SWAP12 SWAP10 SWAP12 SWAP11 SWAP6 SWAP11 SWAP9 SWAP8 SWAP7 SWAP9 PUSH2 0x767 JUMP JUMPDEST PUSH4 0x4E487B71 PUSH1 0xE0 SHL DUP4 MSTORE PUSH1 0x41 DUP6 MSTORE PUSH1 0x24 DUP4 REVERT JUMPDEST DUP4 DUP1 REVERT JUMPDEST SWAP1 POP CALLVALUE PUSH2 0x150 JUMPI PUSH1 0x20 CALLDATASIZE PUSH1 0x3 NOT ADD SLT PUSH2 0x150 JUMPI DUP2 PUSH1 0x20 SWAP4 PUSH1 0x1 SWAP3 CALLDATALOAD DUP2 MSTORE DUP1 DUP6 MSTORE KECCAK256 ADD SLOAD SWAP1 MLOAD SWAP1 DUP2 MSTORE RETURN JUMPDEST DUP5 SWAP2 CALLVALUE PUSH2 0x150 JUMPI PUSH1 0x20 CALLDATASIZE PUSH1 0x3 NOT ADD SLT PUSH2 0x150 JUMPI CALLDATALOAD PUSH4 0xFFFFFFFF PUSH1 0xE0 SHL DUP2 AND DUP1 SWAP2 SUB PUSH2 0x150 JUMPI PUSH1 0x20 SWAP3 POP PUSH4 0x7965DB0B PUSH1 0xE0 SHL DUP2 EQ SWAP1 DUP2 ISZERO PUSH2 0x8BA JUMPI JUMPDEST POP ISZERO ISZERO DUP2 MSTORE RETURN JUMPDEST PUSH4 0x1FFC9A7 PUSH1 0xE0 SHL EQ SWAP1 POP DUP4 PUSH2 0x8B3 JUMP JUMPDEST PUSH1 0x4 CALLDATALOAD SWAP1 PUSH1 0x1 PUSH1 0x1 PUSH1 0xA0 SHL SUB DUP3 AND DUP3 SUB PUSH2 0x8E1 JUMPI JUMP JUMPDEST PUSH1 0x0 DUP1 REVERT JUMPDEST PUSH1 0x24 CALLDATALOAD SWAP1 PUSH1 0x1 PUSH1 0x1 PUSH1 0xA0 SHL SUB DUP3 AND DUP3 SUB PUSH2 0x8E1 JUMPI JUMP JUMPDEST DUP1 SLOAD DUP3 LT ISZERO PUSH2 0x918 JUMPI PUSH1 0x0 MSTORE PUSH1 0x5 PUSH1 0x20 PUSH1 0x0 KECCAK256 SWAP2 MUL ADD SWAP1 PUSH1 0x0 SWAP1 JUMP JUMPDEST PUSH4 0x4E487B71 PUSH1 0xE0 SHL PUSH1 0x0 MSTORE PUSH1 0x32 PUSH1 0x4 MSTORE PUSH1 0x24 PUSH1 0x0 REVERT JUMPDEST CALLER PUSH1 0x0 SWAP1 DUP2 MSTORE PUSH32 0x7D7FFB7A348E1C6A02869081A26547B49160DD3DF72D1D75A570EB9B698292EC PUSH1 0x20 SWAP1 DUP2 MSTORE PUSH1 0x40 DUP1 DUP4 KECCAK256 SLOAD SWAP1 SWAP3 SWAP2 SWAP1 PUSH32 0xA49807205CE4D355092EF5A8A18F56E8913CF4A201FBE287825B095693C21775 SWAP1 PUSH1 0xFF AND ISZERO PUSH2 0x994 JUMPI POP POP POP POP JUMP JUMPDEST PUSH2 0x99D CALLER PUSH2 0xE12 JUMP JUMPDEST SWAP1 DUP5 MLOAD SWAP1 PUSH2 0x9AA DUP3 PUSH2 0xCB4 JUMP JUMPDEST PUSH1 0x42 DUP3 MSTORE DUP4 DUP3 ADD SWAP5 PUSH1 0x60 CALLDATASIZE DUP8 CALLDATACOPY DUP3 MLOAD ISZERO PUSH2 0xB4B JUMPI PUSH1 0x30 DUP7 MSTORE8 DUP3 MLOAD PUSH1 0x1 SWAP1 DUP2 LT ISZERO PUSH2 0xB37 JUMPI SWAP1 PUSH1 0x78 PUSH1 0x21 DUP6 ADD MSTORE8 PUSH1 0x41 SWAP2 JUMPDEST DUP1 DUP4 GT PUSH2 0xADD JUMPI POP POP POP PUSH2 0xA9B JUMPI DUP5 PUSH2 0xA69 PUSH1 0x48 PUSH2 0xA8D SWAP4 PUSH1 0x44 SWAP8 SWAP9 MLOAD SWAP9 DUP10 SWAP2 PUSH2 0xA5A DUP10 DUP5 ADD SWAP9 PUSH23 0x20B1B1B2B9B9A1B7B73A3937B61D1030B1B1B7BAB73A1 PUSH1 0x4D SHL DUP11 MSTORE PUSH2 0xA31 DUP2 MLOAD DUP1 SWAP3 DUP14 PUSH1 0x37 DUP10 ADD SWAP2 ADD PUSH2 0xC5F JUMP JUMPDEST DUP5 ADD SWAP2 PUSH17 0x1034B99036B4B9B9B4B733903937B6329 PUSH1 0x7D SHL PUSH1 0x37 DUP5 ADD MSTORE MLOAD DUP1 SWAP4 DUP7 DUP5 ADD SWAP1 PUSH2 0xC5F JUMP JUMPDEST ADD SUB PUSH1 0x28 DUP2 ADD DUP10 MSTORE ADD DUP8 PUSH2 0xCD0 JUMP JUMPDEST MLOAD SWAP5 DUP6 SWAP4 PUSH3 0x461BCD PUSH1 0xE5 SHL DUP6 MSTORE PUSH1 0x4 DUP6 ADD MSTORE MLOAD DUP1 SWAP3 DUP2 PUSH1 0x24 DUP7 ADD MSTORE DUP6 DUP6 ADD SWAP1 PUSH2 0xC5F JUMP JUMPDEST PUSH1 0x1F ADD PUSH1 0x1F NOT AND DUP2 ADD SUB ADD SWAP1 REVERT JUMPDEST PUSH1 0x64 DUP4 DUP7 MLOAD SWAP1 PUSH3 0x461BCD PUSH1 0xE5 SHL DUP3 MSTORE DUP1 PUSH1 0x4 DUP4 ADD MSTORE PUSH1 0x24 DUP3 ADD MSTORE PUSH32 0x537472696E67733A20686578206C656E67746820696E73756666696369656E74 PUSH1 0x44 DUP3 ADD MSTORE REVERT JUMPDEST SWAP1 SWAP2 SWAP3 PUSH1 0xF DUP2 AND PUSH1 0x10 DUP2 LT ISZERO PUSH2 0xB23 JUMPI PUSH2 0xB1C SWAP2 SWAP1 PUSH16 0x181899199A1A9B1B9C1CB0B131B232B3 PUSH1 0x81 SHL SWAP1 BYTE PUSH2 0xB12 DUP7 DUP9 PUSH2 0xDDE JUMP JUMPDEST MSTORE8 PUSH1 0x4 SHR SWAP4 PUSH2 0xDEF JUMP JUMPDEST SWAP2 SWAP1 PUSH2 0x9DA JUMP JUMPDEST PUSH4 0x4E487B71 PUSH1 0xE0 SHL DUP5 MSTORE PUSH1 0x32 PUSH1 0x4 MSTORE PUSH1 0x24 DUP5 REVERT JUMPDEST PUSH4 0x4E487B71 PUSH1 0xE0 SHL DUP3 MSTORE PUSH1 0x32 PUSH1 0x4 MSTORE PUSH1 0x24 DUP3 REVERT JUMPDEST PUSH4 0x4E487B71 PUSH1 0xE0 SHL DUP2 MSTORE PUSH1 0x32 PUSH1 0x4 MSTORE PUSH1 0x24 SWAP1 REVERT JUMPDEST PUSH1 0x0 DUP2 DUP2 MSTORE PUSH1 0x20 DUP2 DUP2 MSTORE PUSH1 0x40 SWAP3 DUP4 DUP4 KECCAK256 CALLER DUP5 MSTORE DUP3 MSTORE PUSH1 0xFF DUP5 DUP5 KECCAK256 SLOAD AND ISZERO PUSH2 0xB86 JUMPI POP POP POP POP JUMP JUMPDEST PUSH2 0xB8F CALLER PUSH2 0xE12 JUMP JUMPDEST SWAP1 DUP5 MLOAD SWAP1 PUSH2 0xB9C DUP3 PUSH2 0xCB4 JUMP JUMPDEST PUSH1 0x42 DUP3 MSTORE DUP4 DUP3 ADD SWAP5 PUSH1 0x60 CALLDATASIZE DUP8 CALLDATACOPY DUP3 MLOAD ISZERO PUSH2 0xB4B JUMPI PUSH1 0x30 DUP7 MSTORE8 DUP3 MLOAD PUSH1 0x1 SWAP1 DUP2 LT ISZERO PUSH2 0xB37 JUMPI SWAP1 PUSH1 0x78 PUSH1 0x21 DUP6 ADD MSTORE8 PUSH1 0x41 SWAP2 JUMPDEST DUP1 DUP4 GT PUSH2 0xC23 JUMPI POP POP POP PUSH2 0xA9B JUMPI DUP5 PUSH2 0xA69 PUSH1 0x48 PUSH2 0xA8D SWAP4 PUSH1 0x44 SWAP8 SWAP9 MLOAD SWAP9 DUP10 SWAP2 PUSH2 0xA5A DUP10 DUP5 ADD SWAP9 PUSH23 0x20B1B1B2B9B9A1B7B73A3937B61D1030B1B1B7BAB73A1 PUSH1 0x4D SHL DUP11 MSTORE PUSH2 0xA31 DUP2 MLOAD DUP1 SWAP3 DUP14 PUSH1 0x37 DUP10 ADD SWAP2 ADD PUSH2 0xC5F JUMP JUMPDEST SWAP1 SWAP2 SWAP3 PUSH1 0xF DUP2 AND PUSH1 0x10 DUP2 LT ISZERO PUSH2 0xB23 JUMPI PUSH2 0xC58 SWAP2 SWAP1 PUSH16 0x181899199A1A9B1B9C1CB0B131B232B3 PUSH1 0x81 SHL SWAP1 BYTE PUSH2 0xB12 DUP7 DUP9 PUSH2 0xDDE JUMP JUMPDEST SWAP2 SWAP1 PUSH2 0xBCC JUMP JUMPDEST PUSH1 0x0 JUMPDEST DUP4 DUP2 LT PUSH2 0xC72 JUMPI POP POP PUSH1 0x0 SWAP2 ADD MSTORE JUMP JUMPDEST DUP2 DUP2 ADD MLOAD DUP4 DUP3 ADD MSTORE PUSH1 0x20 ADD PUSH2 0xC62 JUMP JUMPDEST PUSH1 0xA0 DUP2 ADD SWAP1 DUP2 LT PUSH8 0xFFFFFFFFFFFFFFFF DUP3 GT OR PUSH2 0xC9E JUMPI PUSH1 0x40 MSTORE JUMP JUMPDEST PUSH4 0x4E487B71 PUSH1 0xE0 SHL PUSH1 0x0 MSTORE PUSH1 0x41 PUSH1 0x4 MSTORE PUSH1 0x24 PUSH1 0x0 REVERT JUMPDEST PUSH1 0x80 DUP2 ADD SWAP1 DUP2 LT PUSH8 0xFFFFFFFFFFFFFFFF DUP3 GT OR PUSH2 0xC9E JUMPI PUSH1 0x40 MSTORE JUMP JUMPDEST SWAP1 PUSH1 0x1F DUP1 NOT SWAP2 ADD AND DUP2 ADD SWAP1 DUP2 LT PUSH8 0xFFFFFFFFFFFFFFFF DUP3 GT OR PUSH2 0xC9E JUMPI PUSH1 0x40 MSTORE JUMP JUMPDEST SWAP1 PUSH1 0x0 SWAP2 DUP1 DUP4 MSTORE DUP3 PUSH1 0x20 MSTORE PUSH1 0x40 DUP4 KECCAK256 SWAP2 PUSH1 0x1 DUP1 PUSH1 0xA0 SHL SUB AND SWAP2 DUP3 DUP5 MSTORE PUSH1 0x20 MSTORE PUSH1 0xFF PUSH1 0x40 DUP5 KECCAK256 SLOAD AND ISZERO PUSH2 0xD23 JUMPI POP POP POP JUMP JUMPDEST DUP1 DUP4 MSTORE DUP3 PUSH1 0x20 MSTORE PUSH1 0x40 DUP4 KECCAK256 DUP3 DUP5 MSTORE PUSH1 0x20 MSTORE PUSH1 0x40 DUP4 KECCAK256 PUSH1 0x1 PUSH1 0xFF NOT DUP3 SLOAD AND OR SWAP1 SSTORE PUSH32 0x2F8788117E7EFF1D82E926EC794901D17C78024A50270940304540A733656F0D CALLER SWAP4 DUP1 LOG4 JUMP JUMPDEST SWAP1 PUSH1 0x0 SWAP2 DUP1 DUP4 MSTORE DUP3 PUSH1 0x20 MSTORE PUSH1 0x40 DUP4 KECCAK256 SWAP2 PUSH1 0x1 DUP1 PUSH1 0xA0 SHL SUB AND SWAP2 DUP3 DUP5 MSTORE PUSH1 0x20 MSTORE PUSH1 0xFF PUSH1 0x40 DUP5 KECCAK256 SLOAD AND PUSH2 0xD9A JUMPI POP POP POP JUMP JUMPDEST DUP1 DUP4 MSTORE DUP3 PUSH1 0x20 MSTORE PUSH1 0x40 DUP4 KECCAK256 DUP3 DUP5 MSTORE PUSH1 0x20 MSTORE PUSH1 0x40 DUP4 KECCAK256 PUSH1 0xFF NOT DUP2 SLOAD AND SWAP1 SSTORE PUSH32 0xF6391F5C32D9C69D2A47EA670B442974B53935D1EDC7FD64EB21E047A839171B CALLER SWAP4 DUP1 LOG4 JUMP JUMPDEST SWAP1 DUP2 MLOAD DUP2 LT ISZERO PUSH2 0x918 JUMPI ADD PUSH1 0x20 ADD SWAP1 JUMP JUMPDEST DUP1 ISZERO PUSH2 0xDFC JUMPI PUSH1 0x0 NOT ADD SWAP1 JUMP JUMPDEST PUSH4 0x4E487B71 PUSH1 0xE0 SHL PUSH1 0x0 MSTORE PUSH1 0x11 PUSH1 0x4 MSTORE PUSH1 0x24 PUSH1 0x0 REVERT JUMPDEST PUSH1 0x40 MLOAD SWAP1 PUSH1 0x60 DUP3 ADD DUP3 DUP2 LT PUSH8 0xFFFFFFFFFFFFFFFF DUP3 GT OR PUSH2 0xC9E JUMPI PUSH1 0x40 MSTORE PUSH1 0x2A DUP3 MSTORE PUSH1 0x20 DUP3 ADD PUSH1 0x40 CALLDATASIZE DUP3 CALLDATACOPY DUP3 MLOAD ISZERO PUSH2 0x918 JUMPI PUSH1 0x30 SWAP1 MSTORE8 DUP2 MLOAD PUSH1 0x1 SWAP1 DUP2 LT ISZERO PUSH2 0x918 JUMPI PUSH1 0x78 PUSH1 0x21 DUP5 ADD MSTORE8 PUSH1 0x29 SWAP1 JUMPDEST DUP1 DUP3 GT PUSH2 0xEB3 JUMPI POP POP PUSH2 0xE6F JUMPI SWAP1 JUMP JUMPDEST PUSH1 0x64 PUSH1 0x40 MLOAD PUSH3 0x461BCD PUSH1 0xE5 SHL DUP2 MSTORE PUSH1 0x20 PUSH1 0x4 DUP3 ADD MSTORE PUSH1 0x20 PUSH1 0x24 DUP3 ADD MSTORE PUSH32 0x537472696E67733A20686578206C656E67746820696E73756666696369656E74 PUSH1 0x44 DUP3 ADD MSTORE REVERT JUMPDEST SWAP1 SWAP2 PUSH1 0xF DUP2 AND SWAP1 PUSH1 0x10 DUP3 LT ISZERO PUSH2 0xEF7 JUMPI PUSH2 0xEF1 SWAP2 PUSH16 0x181899199A1A9B1B9C1CB0B131B232B3 PUSH1 0x81 SHL SWAP1 BYTE PUSH2 0xEE7 DUP6 DUP8 PUSH2 0xDDE JUMP JUMPDEST MSTORE8 PUSH1 0x4 SHR SWAP3 PUSH2 0xDEF JUMP JUMPDEST SWAP1 PUSH2 0xE5F JUMP JUMPDEST PUSH1 0x24 PUSH1 0x0 PUSH4 0x4E487B71 PUSH1 0xE0 SHL DUP2 MSTORE PUSH1 0x32 PUSH1 0x4 MSTORE REVERT JUMPDEST PUSH1 0x0 NOT DUP2 EQ PUSH2 0xDFC JUMPI PUSH1 0x1 ADD SWAP1 JUMP INVALID LOG2 PUSH5 0x6970667358 0x22 SLT KECCAK256 0x2E PC SSTORE 0x21 0x29 PREVRANDAO PC SGT PUSH21 0x5804ED2A28F15742345E1B30B6F8B74BD38C84C915 PUSH13 0x5764736F6C634300081300332F DUP8 DUP9 GT PUSH31 0x7EFF1D82E926EC794901D17C78024A50270940304540A733656F0D00000000 "},"methodIdentifiers":{"ADMIN_ROLE()":"75b238fc","AUDITOR_ROLE()":"6e1d616e","DEFAULT_ADMIN_ROLE()":"a217fddf","checkPermission(address,bytes32)":"d6392057","getRoleAdmin(bytes32)":"248a9ca3","getUserPermissions(address)":"25fde663","grantPermission(address,bytes32,uint256)":"b0cde7cd","grantRole(bytes32,address)":"2f2ff15d","hasRole(bytes32,address)":"91d14854","renounceRole(bytes32,address)":"36568abe","revokePermission(address,bytes32)":"5fe07013","revokeRole(bytes32,address)":"d547741f","roleCount(bytes32)":"6d1b010d","supportsInterface(bytes4)":"01ffc9a7","userPermissions(address,uint256)":"b3c33f2f"}}}}}