{"contracts/MedicineShipment.sol":{"MedicineShipment":{"abi":[{"inputs":[],"stateMutability":"nonpayable","type":"constructor"},{"anonymous":false,"inputs":[{"indexed":true,"internalType":"uint256","name":"shipmentId","type":"uint256"},{"indexed":false,"internalType":"string","name":"ipfsHash","type":"string"}],"name":"IPFSUploaded","type":"event"},{"anonymous":false,"inputs":[{"indexed":true,"internalType":"address","name":"organization","type":"address"},{"indexed":false,"internalType":"string","name":"role","type":"string"}],"name":"OrganizationVerified","type":"event"},{"anonymous":false,"inputs":[{"indexed":true,"internalType":"bytes32","name":"role","type":"bytes32"},{"indexed":true,"internalType":"bytes32","name":"previousAdminRole","type":"bytes32"},{"indexed":true,"internalType":"bytes32","name":"newAdminRole","type":"bytes32"}],"name":"RoleAdminChanged","type":"event"},{"anonymous":false,"inputs":[{"indexed":true,"internalType":"bytes32","name":"role","type":"bytes32"},{"indexed":true,"internalType":"address","name":"account","type":"address"},{"indexed":true,"internalType":"address","name":"sender","type":"address"}],"name":"RoleGranted","type":"event"},{"anonymous":false,"inputs":[{"indexed":true,"internalType":"bytes32","name":"role","type":"bytes32"},{"indexed":true,"internalType":"address","name":"account","type":"address"},{"indexed":true,"internalType":"address","name":"sender","type":"address"}],"name":"RoleRevoked","type":"event"},{"anonymous":false,"inputs":[{"indexed":true,"internalType":"uint256","name":"shipmentId","type":"uint256"},{"indexed":true,"internalType":"address","name":"creator","type":"address"},{"indexed":false,"internalType":"string","name":"medicineName","type":"string"}],"name":"ShipmentCreated","type":"event"},{"anonymous":false,"inputs":[{"indexed":true,"internalType":"uint256","name":"shipmentId","type":"uint256"},{"indexed":true,"internalType":"address","name":"receiver","type":"address"}],"name":"ShipmentDelivered","type":"event"},{"anonymous":false,"inputs":[{"indexed":true,"internalType":"uint256","name":"shipmentId","type":"uint256"},{"indexed":true,"internalType":"address","name":"accepter","type":"address"},{"indexed":false,"internalType":"bytes","name":"signature","type":"bytes"}],"name":"ShipmentRequestAccepted","type":"event"},{"anonymous":false,"inputs":[{"indexed":true,"internalType":"uint256","name":"shipmentId","type":"uint256"},{"indexed":true,"internalType":"address","name":"rejecter","type":"address"}],"name":"ShipmentRequestRejected","type":"event"},{"anonymous":false,"inputs":[{"indexed":true,"internalType":"uint256","name":"shipmentId","type":"uint256"},{"indexed":true,"internalType":"address","name":"requester","type":"address"},{"indexed":true,"internalType":"address","name":"targetParty","type":"address"}],"name":"ShipmentRequested","type":"event"},{"anonymous":false,"inputs":[{"indexed":true,"internalType":"uint256","name":"shipmentId","type":"uint256"},{"indexed":false,"internalType":"enum MedicineShipment.ShipmentStatus","name":"status","type":"uint8"}],"name":"ShipmentStatusUpdated","type":"event"},{"anonymous":false,"inputs":[{"indexed":true,"internalType":"uint256","name":"shipmentId","type":"uint256"},{"indexed":false,"internalType":"uint256","name":"temperature","type":"uint256"},{"indexed":false,"internalType":"uint256","name":"timestamp","type":"uint256"}],"name":"TemperatureRecorded","type":"event"},{"inputs":[],"name":"DEFAULT_ADMIN_ROLE","outputs":[{"internalType":"bytes32","name":"","type":"bytes32"}],"stateMutability":"view","type":"function"},{"inputs":[],"name":"DISTRIBUTOR_ROLE","outputs":[{"internalType":"bytes32","name":"","type":"bytes32"}],"stateMutability":"view","type":"function"},{"inputs":[],"name":"HOSPITAL_ROLE","outputs":[{"internalType":"bytes32","name":"","type":"bytes32"}],"stateMutability":"view","type":"function"},{"inputs":[],"name":"PHARMACY_ROLE","outputs":[{"internalType":"bytes32","name":"","type":"bytes32"}],"stateMutability":"view","type":"function"},{"inputs":[],"name":"SHIPMENT_MANAGER_ROLE","outputs":[{"internalType":"bytes32","name":"","type":"bytes32"}],"stateMutability":"view","type":"function"},{"inputs":[{"internalType":"uint256","name":"shipmentId","type":"uint256"},{"internalType":"bytes","name":"signature","type":"bytes"}],"name":"acceptShipment","outputs":[],"stateMutability":"nonpayable","type":"function"},{"inputs":[{"internalType":"string","name":"medicineName","type":"string"},{"internalType":"string","name":"batchNumber","type":"string"},{"internalType":"uint256","name":"expiryDate","type":"uint256"},{"internalType":"uint256","name":"quantity","type":"uint256"},{"internalType":"address","name":"receiver","type":"address"},{"internalType":"uint256","name":"estimatedDelivery","type":"uint256"}],"name":"createShipment","outputs":[{"internalType":"uint256","name":"","type":"uint256"}],"stateMutability":"nonpayable","type":"function"},{"inputs":[{"internalType":"uint256","name":"shipmentId","type":"uint256"}],"name":"deliverShipment","outputs":[],"stateMutability":"nonpayable","type":"function"},{"inputs":[{"internalType":"bytes32","name":"role","type":"bytes32"}],"name":"getRoleAdmin","outputs":[{"internalType":"bytes32","name":"","type":"bytes32"}],"stateMutability":"view","type":"function"},{"inputs":[{"internalType":"uint256","name":"shipmentId","type":"uint256"}],"name":"getShipmentActualDelivery","outputs":[{"internalType":"uint256","name":"","type":"uint256"}],"stateMutability":"view","type":"function"},{"inputs":[{"internalType":"uint256","name":"shipmentId","type":"uint256"}],"name":"getShipmentBatchNumber","outputs":[{"internalType":"string","name":"","type":"string"}],"stateMutability":"view","type":"function"},{"inputs":[],"name":"getShipmentCount","outputs":[{"internalType":"uint256","name":"","type":"uint256"}],"stateMutability":"view","type":"function"},{"inputs":[{"internalType":"uint256","name":"shipmentId","type":"uint256"}],"name":"getShipmentCreatedAt","outputs":[{"internalType":"uint256","name":"","type":"uint256"}],"stateMutability":"view","type":"function"},{"inputs":[{"internalType":"uint256","name":"shipmentId","type":"uint256"}],"name":"getShipmentCreator","outputs":[{"internalType":"address","name":"","type":"address"}],"stateMutability":"view","type":"function"},{"inputs":[{"internalType":"uint256","name":"shipmentId","type":"uint256"}],"name":"getShipmentCurrentHolder","outputs":[{"internalType":"address","name":"","type":"address"}],"stateMutability":"view","type":"function"},{"inputs":[{"internalType":"uint256","name":"shipmentId","type":"uint256"}],"name":"getShipmentEstimatedDelivery","outputs":[{"internalType":"uint256","name":"","type":"uint256"}],"stateMutability":"view","type":"function"},{"inputs":[{"internalType":"uint256","name":"shipmentId","type":"uint256"}],"name":"getShipmentExpiryDate","outputs":[{"internalType":"uint256","name":"","type":"uint256"}],"stateMutability":"view","type":"function"},{"inputs":[{"internalType":"uint256","name":"shipmentId","type":"uint256"}],"name":"getShipmentIPFS","outputs":[{"internalType":"string","name":"","type":"string"}],"stateMutability":"view","type":"function"},{"inputs":[{"internalType":"uint256","name":"shipmentId","type":"uint256"}],"name":"getShipmentLastTemperature","outputs":[{"internalType":"uint256","name":"","type":"uint256"}],"stateMutability":"view","type":"function"},{"inputs":[{"internalType":"uint256","name":"shipmentId","type":"uint256"}],"name":"getShipmentLastUpdate","outputs":[{"internalType":"uint256","name":"","type":"uint256"}],"stateMutability":"view","type":"function"},{"inputs":[{"internalType":"uint256","name":"shipmentId","type":"uint256"}],"name":"getShipmentMedicineName","outputs":[{"internalType":"string","name":"","type":"string"}],"stateMutability":"view","type":"function"},{"inputs":[{"internalType":"uint256","name":"shipmentId","type":"uint256"}],"name":"getShipmentQuantity","outputs":[{"internalType":"uint256","name":"","type":"uint256"}],"stateMutability":"view","type":"function"},{"inputs":[{"internalType":"uint256","name":"shipmentId","type":"uint256"}],"name":"getShipmentReceiver","outputs":[{"internalType":"address","name":"","type":"address"}],"stateMutability":"view","type":"function"},{"inputs":[{"internalType":"uint256","name":"shipmentId","type":"uint256"}],"name":"getShipmentRequest","outputs":[{"components":[{"internalType":"uint256","name":"shipmentId","type":"uint256"},{"internalType":"address","name":"requester","type":"address"},{"internalType":"address","name":"targetParty","type":"address"},{"internalType":"string","name":"encryptedDetails","type":"string"},{"internalType":"uint256","name":"requestedAt","type":"uint256"},{"internalType":"bool","name":"accepted","type":"bool"},{"internalType":"bool","name":"rejected","type":"bool"}],"internalType":"struct MedicineShipment.ShipmentRequest","name":"","type":"tuple"}],"stateMutability":"view","type":"function"},{"inputs":[{"internalType":"uint256","name":"shipmentId","type":"uint256"}],"name":"getShipmentSender","outputs":[{"internalType":"address","name":"","type":"address"}],"stateMutability":"view","type":"function"},{"inputs":[{"internalType":"uint256","name":"shipmentId","type":"uint256"}],"name":"getShipmentStatus","outputs":[{"internalType":"enum MedicineShipment.ShipmentStatus","name":"","type":"uint8"}],"stateMutability":"view","type":"function"},{"inputs":[{"internalType":"uint256","name":"shipmentId","type":"uint256"}],"name":"getShipmentTempStatus","outputs":[{"internalType":"enum MedicineShipment.TemperatureStatus","name":"","type":"uint8"}],"stateMutability":"view","type":"function"},{"inputs":[{"internalType":"uint256","name":"shipmentId","type":"uint256"}],"name":"getTemperatureCount","outputs":[{"internalType":"uint256","name":"","type":"uint256"}],"stateMutability":"view","type":"function"},{"inputs":[{"internalType":"uint256","name":"shipmentId","type":"uint256"},{"internalType":"uint256","name":"index","type":"uint256"}],"name":"getTemperatureReporter","outputs":[{"internalType":"address","name":"","type":"address"}],"stateMutability":"view","type":"function"},{"inputs":[{"internalType":"uint256","name":"shipmentId","type":"uint256"},{"internalType":"uint256","name":"index","type":"uint256"}],"name":"getTemperatureTimestamp","outputs":[{"internalType":"uint256","name":"","type":"uint256"}],"stateMutability":"view","type":"function"},{"inputs":[{"internalType":"uint256","name":"shipmentId","type":"uint256"},{"internalType":"uint256","name":"index","type":"uint256"}],"name":"getTemperatureValue","outputs":[{"internalType":"uint256","name":"","type":"uint256"}],"stateMutability":"view","type":"function"},{"inputs":[{"internalType":"address","name":"user","type":"address"}],"name":"getUserRequests","outputs":[{"internalType":"uint256[]","name":"","type":"uint256[]"}],"stateMutability":"view","type":"function"},{"inputs":[{"internalType":"bytes32","name":"role","type":"bytes32"},{"internalType":"address","name":"account","type":"address"}],"name":"grantRole","outputs":[],"stateMutability":"nonpayable","type":"function"},{"inputs":[{"internalType":"bytes32","name":"role","type":"bytes32"},{"internalType":"address","name":"account","type":"address"}],"name":"hasRole","outputs":[{"internalType":"bool","name":"","type":"bool"}],"stateMutability":"view","type":"function"},{"inputs":[{"internalType":"uint256","name":"shipmentId","type":"uint256"},{"internalType":"uint256","name":"temperature","type":"uint256"}],"name":"recordTemperature","outputs":[],"stateMutability":"nonpayable","type":"function"},{"inputs":[{"internalType":"string","name":"role","type":"string"}],"name":"registerOrganization","outputs":[],"stateMutability":"nonpayable","type":"function"},{"inputs":[{"internalType":"uint256","name":"shipmentId","type":"uint256"}],"name":"rejectShipment","outputs":[],"stateMutability":"nonpayable","type":"function"},{"inputs":[{"internalType":"bytes32","name":"role","type":"bytes32"},{"internalType":"address","name":"account","type":"address"}],"name":"renounceRole","outputs":[],"stateMutability":"nonpayable","type":"function"},{"inputs":[{"internalType":"uint256","name":"shipmentId","type":"uint256"},{"internalType":"address","name":"targetParty","type":"address"},{"internalType":"string","name":"encryptedDetails","type":"string"}],"name":"requestShipmentAccess","outputs":[],"stateMutability":"nonpayable","type":"function"},{"inputs":[{"internalType":"bytes32","name":"role","type":"bytes32"},{"internalType":"address","name":"account","type":"address"}],"name":"revokeRole","outputs":[],"stateMutability":"nonpayable","type":"function"},{"inputs":[{"internalType":"uint256","name":"","type":"uint256"}],"name":"shipmentRequests","outputs":[{"internalType":"uint256","name":"shipmentId","type":"uint256"},{"internalType":"address","name":"requester","type":"address"},{"internalType":"address","name":"targetParty","type":"address"},{"internalType":"string","name":"encryptedDetails","type":"string"},{"internalType":"uint256","name":"requestedAt","type":"uint256"},{"internalType":"bool","name":"accepted","type":"bool"},{"internalType":"bool","name":"rejected","type":"bool"}],"stateMutability":"view","type":"function"},{"inputs":[{"internalType":"uint256","name":"","type":"uint256"},{"internalType":"uint256","name":"","type":"uint256"}],"name":"shipmentTemperatures","outputs":[{"internalType":"uint256","name":"timestamp","type":"uint256"},{"internalType":"uint256","name":"temperature","type":"uint256"},{"internalType":"address","name":"reportedBy","type":"address"}],"stateMutability":"view","type":"function"},{"inputs":[{"internalType":"uint256","name":"","type":"uint256"}],"name":"shipments","outputs":[{"internalType":"uint256","name":"id","type":"uint256"},{"internalType":"address","name":"creator","type":"address"},{"internalType":"string","name":"medicineName","type":"string"},{"internalType":"string","name":"batchNumber","type":"string"},{"internalType":"uint256","name":"expiryDate","type":"uint256"},{"internalType":"uint256","name":"quantity","type":"uint256"},{"internalType":"address","name":"sender","type":"address"},{"internalType":"address","name":"receiver","type":"address"},{"internalType":"address","name":"currentHolder","type":"address"},{"internalType":"enum MedicineShipment.ShipmentStatus","name":"status","type":"uint8"},{"internalType":"uint256","name":"createdAt","type":"uint256"},{"internalType":"uint256","name":"estimatedDelivery","type":"uint256"},{"internalType":"uint256","name":"actualDelivery","type":"uint256"},{"internalType":"string","name":"ipfsHash","type":"string"},{"internalType":"enum MedicineShipment.TemperatureStatus","name":"tempStatus","type":"uint8"},{"internalType":"uint256","name":"lastTemperature","type":"uint256"},{"internalType":"uint256","name":"lastUpdate","type":"uint256"}],"stateMutability":"view","type":"function"},{"inputs":[{"internalType":"uint256","name":"shipmentId","type":"uint256"}],"name":"startShipment","outputs":[],"stateMutability":"nonpayable","type":"function"},{"inputs":[{"internalType":"bytes4","name":"interfaceId","type":"bytes4"}],"name":"supportsInterface","outputs":[{"internalType":"bool","name":"","type":"bool"}],"stateMutability":"view","type":"function"},{"inputs":[{"internalType":"uint256","name":"shipmentId","type":"uint256"},{"internalType":"string","name":"ipfsHash","type":"string"}],"name":"uploadIPFSHash","outputs":[],"stateMutability":"nonpayable","type":"function"},{"inputs":[{"internalType":"address","name":"","type":"address"},{"internalType":"uint256","name":"","type":"uint256"}],"name":"userRequests","outputs":[{"internalType":"uint256","name":"","type":"uint256"}],"stateMutability":"view","type":"function"},{"inputs":[{"internalType":"address","name":"","type":"address"}],"name":"verifiedOrganizations","outputs":[{"internalType":"bool","name":"","type":"bool"}],"stateMutability":"view","type":"function"},{"inputs":[{"internalType":"uint256","name":"shipmentId","type":"uint256"},{"internalType":"bool","name":"approved","type":"bool"}],"name":"verifyShipment","outputs":[],"stateMutability":"nonpayable","type":"function"}],"evm":{"bytecode":{"linkReferences":{},"object":"6080604081815234620000ef57600180556000808052602091818352808220338352835260ff818320541615620000b7575b7fc7ad0cce645d8882d9e3736f60b0ffdaece940015e673e73a905d480ad0e1c1892838352828152818320338452815260ff8284205416156200007c575b61295d8581620000f58239f35b83835282815281832090338452528120600160ff19825416179055339160008051602062002a52833981519152339280a4388080806200006f565b8180528183528082203383528352808220600160ff1982541617905533338360008051602062002a528339815191528180a462000031565b600080fdfe60a080604052600436101561001357600080fd5b60003560e01c90816301ffc9a71461215957508063032becbc14611ce85780630561a0e614611af0578063069445dd14611ab157806309abeffa14611a1257806314a5d48d146119185780631967fa17146117e45780631a948212146117b55780631f9f59961461175a57806322dcdf68146113f757806322e875cd146113c0578063247696b214611389578063248a9ca31461135a578063263cb6b6146113025780632ac08a931461117d5780632d6ee32e146111605780632f2ff15d146110ad57806336568abe1461101b578063365fcdee14610fe4578063411f916114610f4d5780635f083e1714610f1e578063682ba90614610eef5780636ccb3baa14610dd55780636e2989b214610da657806374c1832e14610d7a5780637b7392c114610d435780638165553314610d1457806388e2e5e314610cc057806391d1485414610c73578063a217fddf14610c57578063a3f5e47214610c1c578063a5aa1deb14610bd2578063a9c38aad14610bb4578063acb2123f14610b6d578063b337cf7414610ab9578063b53db1c714610957578063bd0840b814610928578063beb0ae8b14610893578063c3a2c90114610864578063c5118c211461052d578063c89958e5146104fe578063ceb6ea08146104cf578063d547741f1461048e578063e0d5166414610363578063ee21259d14610327578063f0bd87cc146102ec578063f0c58ea7146102b1578063f4b360511461027a5763f6ba66781461023a57600080fd5b346102755760003660031901126102755760206040517fc8f5b4140cca307cd927e59cbeea8291bffeee228fc677f0fa059aef7b4dd8d58152f35b600080fd5b34610275576020366003190112610275576004356000526003602052602060018060a01b0360016040600020015416604051908152f35b346102755760003660031901126102755760206040517f2f3a5455f35aeca177ac653592f277fbe2fbafef01081a2030451bb2fb41c91d8152f35b346102755760003660031901126102755760206040517ffbd454f36a7e1a388bd6fc3ab10d434aa4578f811acbbcf33afb1c697486313c8152f35b34610275576020366003190112610275576004356000526003602052602060ff60086040600020015460a01c16610361604051809261241b565bf35b3461027557602036600319011261027557600435600081815260036020526040902060078101546001600160a01b0316330361044957600881019081549060ff8260a01c1660058110156104335760016103bd9114612868565b600b42910155600160a11b9033906affffffffffffffffffffff60a81b16171790557f8e16b4336dc88d11f2b19383604580b7fc6349df052bc9232d52ce1a40df6c4d602060405133847fbf7b34fcfb0fa3cde7bd3ce969eaf623d71024a06634fb384b78c1cac6c7eaac600080a360028152a2005b634e487b7160e01b600052602160045260246000fd5b60405162461bcd60e51b815260206004820152601960248201527f4f6e6c792072656365697665722063616e20636f6e6669726d000000000000006044820152606490fd5b34610275576040366003190112610275576104cd6004356104ad61227d565b908060005260006020526104c8600160406000200154612435565b612769565b005b346102755760203660031901126102755760043560005260036020526020600960406000200154604051908152f35b346102755760203660031901126102755760043560005260036020526020600e60406000200154604051908152f35b346102755760603660031901126102755760043561054961227d565b6001600160401b0391906044358381116102755761056b903690600401612249565b3360009081527f90e68b589b8f105469304896d2d9920902ec0b7538b2f0839e2092c13ed272ec60209081526040909120549194909160ff168015610825575b6105b4906127ee565b836000526003825260ff60086040600020015460a01c166005811015610433576105de901561282b565b6040516105ea816121ac565b84815282810190338252604081019260018060a01b038096169788855260608301908152608083019142835260a08401956000875260c0850195600087528a60005260068952604060002095518655600199808b8801925116916001600160601b0360a01b92838254161790556002870192511690825416179055600384019151805191821161074a5761067e83546122f3565b601f81116107dc575b508790601f831160011461076b579180600799989796949260059694600092610760575b5050600019600383901b1c1916908a1b1790555b51600482015501915115159060ff61ff0084549251151560081b1692169061ffff19161717905584600052526040600020805490600160401b82101561074a5761070c92820181556122db565b81549060031b9083821b91600019901b191617905533907fed8bc4d3eabf6a4468589c4003ff568b85eef1da79dc436ab5b1b9f55e090f21600080a4005b634e487b7160e01b600052604160045260246000fd5b015190508d806106ab565b899291601f19831691856000528a6000209260005b8181106107c55750916005979593918560079d9c9b9a989694106107ac575b505050811b0190556106bf565b015160001960f88460031b161c191690558d808061079f565b8284015185558d9690940193928c01928c01610780565b8360005288600020601f840160051c8101918a851061081b575b601f0160051c01908a905b82811061080f575050610687565b60008155018a90610801565b90915081906107f6565b507f2f3a5455f35aeca177ac653592f277fbe2fbafef01081a2030451bb2fb41c91d60009081528083526040808220338352845290205460ff166105ab565b346102755760203660031901126102755760043560005260036020526020600f60406000200154604051908152f35b3461027557602036600319011261027557600435806000526006602052600560406000206108ce60018060a01b0360028301541633146127ee565b01610100815460ff81161580610919575b6108e8906128a5565b61ff00191617905533907f1d09f1f82304b077f1e4ddbaa4a4f02ae5edf911e630cb75a550bc77affe2034600080a3005b50600881901c60ff16156108df565b346102755760203660031901126102755760043560005260036020526020600560406000200154604051908152f35b346102755761096536612293565b81600052600360205260406000209060ff600883015460a01c1660058110156104335760016109949114612868565b82600052600460205260406000209060405192606084018481106001600160401b0382111761074a57604052428452602084019082825260408501933385528054600160401b81101561074a576109f0916001820181556122a9565b949094610aa3576002604095600d947f275f8ac498a3572bd28fafdc01d4fd3c3b93f5c880feb591084d628c2946188398518255516001820155019060018060a01b039051166001600160601b0360a01b82541617905582600e82015542600f8201556103208311600014610a7a5701805460ff191660021790555b8151908152426020820152a2005b6101f4831115610a955701805460ff19166001179055610a6c565b01805460ff19169055610a6c565b634e487b7160e01b600052600060045260246000fd5b3461027557602080600319360112610275576001600160a01b03610adb612267565b1660005260078152604060002060405190818382549182815201908192600052846000209060005b86828210610b59578686610b19828803836121e2565b604051928392818401908285525180915260408401929160005b828110610b4257505050500390f35b835185528695509381019392810192600101610b33565b835485529093019260019283019201610b03565b34610275576020366003190112610275576004356000526003602052610bb0610b9c600c60406000200161232d565b6040519182916020835260208301906123f6565b0390f35b34610275576000366003190112610275576020600254604051908152f35b346102755760206001610c11610be736612293565b908060005260048552610c0060406000205483106128e5565b6000526004845260406000206122a9565b500154604051908152f35b346102755760003660031901126102755760206040517fc7ad0cce645d8882d9e3736f60b0ffdaece940015e673e73a905d480ad0e1c188152f35b3461027557600036600319011261027557602060405160008152f35b3461027557604036600319011261027557610c8c61227d565b600435600052600060205260406000209060018060a01b0316600052602052602060ff604060002054166040519015158152f35b34610275576020610cfd610cd336612293565b908060005260048452610cec60406000205483106128e5565b6000526004835260406000206122a9565b50600201546040516001600160a01b039091168152f35b346102755760203660031901126102755760043560005260036020526020600b60406000200154604051908152f35b34610275576020366003190112610275576004356000526003602052602060018060a01b0360086040600020015416604051908152f35b346102755760203660031901126102755760043560005260046020526020604060002054604051908152f35b34610275576020366003190112610275576004356000526003602052610bb0610b9c600360406000200161232d565b346102755760208060031936011261027557600060c0604051610df7816121ac565b82815282848201528260408201526060808201528260808201528260a0820152015260043560005260068152604060002060405190610e35826121ac565b8054825260018101546001600160a01b03908116848401908152600283015482166040850190815291610ed490610e6e6003860161232d565b90606087019182526005600487015496608089019788520154948160a089019560ff88161515875260ff60c08b019860081c16151588526040519a8b9a818c5251908b015251166040890152511660608701525160e060808701526101008601906123f6565b925160a085015251151560c084015251151560e08301520390f35b34610275576020366003190112610275576004356000526003602052610bb0610b9c600260406000200161232d565b346102755760203660031901126102755760043560005260036020526020600460406000200154604051908152f35b346102755760203660031901126102755760043560005260066020526040600020805460018060a01b039160ff8360018301541693600283015416610fc5610f976003850161232d565b600560048601549501549260405197889788526020880152604087015260e0606087015260e08601906123f6565b926080850152818116151560a085015260081c16151560c08301520390f35b34610275576020366003190112610275576004356000526003602052602060ff600d60406000200154166103616040518092612428565b346102755760403660031901126102755761103461227d565b336001600160a01b03821603611050576104cd90600435612769565b60405162461bcd60e51b815260206004820152602f60248201527f416363657373436f6e74726f6c3a2063616e206f6e6c792072656e6f756e636560448201526e103937b632b9903337b91039b2b63360891b6064820152608490fd5b34610275576040366003190112610275576004356110c961227d565b8160005260006020526110e3600160406000200154612435565b81600052600060205260406000209060018060a01b0316908160005260205260ff604060002054161561111257005b8160005260006020526040600020816000526020526040600020600160ff1982541617905533917f2f8788117e7eff1d82e926ec794901d17c78024a50270940304540a733656f0d600080a4005b34610275576020611173610cd336612293565b5054604051908152f35b34610275576020366003190112610275576004356000908152600360205260409020805460018201546001600160a01b0316916111bc6002820161232d565b6111c86003830161232d565b600483015460058401546006850154600786015460088701546009880154600a890154600b8a015496979095919492936001600160a01b0390811693169190611213600c8c0161232d565b99600d8c015460ff169d600e8d01549c600f01549d60405180608052526080516020015261022080608051604001526080510161124f916123f6565b6080518082039060600152611263916123f6565b976080516080015260805160a0015260805160c0015260805160e00152600160a01b6001900381166080516101000152608051610120019060a01c60ff16906112ab9161241b565b608051610140015260805161016001526080516101800152608051808203906101a001526112d8916123f6565b926080516101c0016112e991612428565b6080516101e00152608051610200015260805180910390f35b346102755760403660031901126102755761131b612267565b6001600160a01b03166000908152600760205260409020805460243591908210156102755760209161134c916122db565b90546040519160031b1c8152f35b346102755760203660031901126102755760043560005260006020526020600160406000200154604051908152f35b34610275576020366003190112610275576004356000526003602052602060018060a01b0360066040600020015416604051908152f35b34610275576020366003190112610275576004356000526003602052602060018060a01b0360076040600020015416604051908152f35b3461027557602080600319360112610275576004356001600160401b03811161027557611428903690600401612249565b80517f72d66193ff00a845b4aed5f27e02d9b558ef32be1495a41d00c5c5fb191a0763838301918220671213d4d41255105360c21b8560405161146a816121c7565b60088152015203611562575061150b7f6d9fac1782b03778ad5aa47a795806df6ba72e0b6d87312cc52c8d431e87e676917fc8f5b4140cca307cd927e59cbeea8291bffeee228fc677f0fa059aef7b4dd8d58060005260008552604060002033600052855260ff6040600020541615611510575b505b33600052600584526040600020600160ff1982541617905560405191829185835233958301906123f6565b0390a2005b806000526000855260406000203360005285526040600020600160ff19825416179055339033907f2f8788117e7eff1d82e926ec794901d17c78024a50270940304540a733656f0d600080a4846114de565b7f6d960d3aada907633a701143a0c8a0657b9ed1e77b6d2d8b56e5d8813982e10c8251822067504841524d41435960c01b856040516115a0816121c7565b6008815201520361166c575061150b7f6d9fac1782b03778ad5aa47a795806df6ba72e0b6d87312cc52c8d431e87e676917f2f3a5455f35aeca177ac653592f277fbe2fbafef01081a2030451bb2fb41c91d8060005260008552604060002033600052855260ff604060002054161561161a575b506114e0565b806000526000855260406000203360005285526040600020600160ff19825416179055339033907f2f8788117e7eff1d82e926ec794901d17c78024a50270940304540a733656f0d600080a484611614565b7f85faced7bde13e1a7dad704b895f006e704f207617d68166b31ba2d79624862d90825190206a2224a9aa2924a12aaa27a960a91b846040516116ae816121c7565b600b81520152036117265761150b7f6d9fac1782b03778ad5aa47a795806df6ba72e0b6d87312cc52c8d431e87e676917ffbd454f36a7e1a388bd6fc3ab10d434aa4578f811acbbcf33afb1c697486313c8060005260008552604060002033600052855260ff604060002054161561161a57506114e0565b60405162461bcd60e51b815260048101839052600c60248201526b496e76616c696420726f6c6560a01b6044820152606490fd5b346102755761176836612293565b906000526004602052604060002080548210156102755760609161178b916122a9565b50805490600181015490600260018060a01b03910154169060405192835260208301526040820152f35b346102755760203660031901126102755760043560005260036020526020600a60406000200154604051908152f35b3461027557604036600319011261027557600435602435801515810361027557600082815260036020526040902060078101546001600160a01b031633036118e45760080180549160ff8360a01c166005811015610433576002036118af57156118a7576003915b60058310156104335760ff60a01b191660a092831b60ff60a01b1617908190556040517f8e16b4336dc88d11f2b19383604580b7fc6349df052bc9232d52ce1a40df6c4d926020926118a4918391901c60ff1661241b565ba2005b60049161184c565b60405162461bcd60e51b815260206004820152600d60248201526c139bdd0819195b1a5d995c9959609a1b6044820152606490fd5b60405162461bcd60e51b815260206004820152600c60248201526b2737ba103932b1b2b4bb32b960a11b6044820152606490fd5b34610275576040366003190112610275576004356024356001600160401b03811161027557366023820112156102755761195c903690602481600401359101612203565b908060005260066020526005604060002061198460018060a01b0360028301541633146127ee565b016001815460ff81161580611a03575b61199d906128a5565b60ff19161790558060005260036020526008604060002001600160a01b60ff60a01b198254161790557fabf68e743ce656b721632e8c4de24d9205982f23c03b2c79a67a494f0fab1fcf60405160208152806119fe339560208301906123f6565b0390a3005b50600881901c60ff1615611994565b34610275576020366003190112610275576004358060005260036020526040600020611a4b60018060a01b0360018301541633146127ee565b60088101805460ff8160a01c16600581101561043357611a6b901561282b565b60ff60a01b1916600160a01b17905542600f9190910155604051600181527f8e16b4336dc88d11f2b19383604580b7fc6349df052bc9232d52ce1a40df6c4d90602090a2005b34610275576020366003190112610275576001600160a01b03611ad2612267565b166000526005602052602060ff604060002054166040519015158152f35b34610275576040366003190112610275576001600160401b0360043560243582811161027557611b24903690600401612249565b81600052602060038152604060002093600c60019560018060a01b03878201541633148015611ca9575b611b57906127ee565b0190835190811161074a57611b6c82546122f3565b601f8111611c60575b508295601f8211600114611be1578180917fe06fe6f03d15d1888ca418161d788ca6ba89914ff3b86d1d61a43c9efb4892ca9798600093611bd6575b501b916000199060031b1c19161790555b61150b6040519282849384528301906123f6565b870151925089611bb1565b90601f1981169683600052846000209060005b898110611c4b5750827fe06fe6f03d15d1888ca418161d788ca6ba89914ff3b86d1d61a43c9efb4892ca989910611c32575b5050811b019055611bc2565b86015160001960f88460031b161c191690558780611c26565b87820151835591840191908601908601611bf4565b8260005283600020601f830160051c810191858410611c9f575b601f0160051c019087905b828110611c93575050611b75565b60008155018790611c85565b9091508190611c7a565b507fc7ad0cce645d8882d9e3736f60b0ffdaece940015e673e73a905d480ad0e1c1860009081528085526040808220338352865290205460ff16611b4e565b346102755760c0366003190112610275576004356001600160401b03811161027557611d18903690600401612249565b6024356001600160401b03811161027557611d37903690600401612249565b90608435906001600160a01b03821682036102755733600052600560205260ff6040600020541615612114576001600160a01b038216156120dc574260a435111561209f57600160025401918260025582600052600360205260406000209083825560018201336001600160601b0360a01b82541617905582516001600160401b03811161074a57611dcc60028401546122f3565b601f8111612058575b50806020601f8211600114611feb57600091611fe0575b508160011b916000199060031b1c19161760028301555b84516001600160401b03811161074a57611e2060038401546122f3565b601f8111611f99575b50806020968790601f8311600114611f2e57600092611f23575b50508160011b916000199060031b1c19161760038301555b6044356004830155606435600583015560068201336001600160601b0360a01b825416179055600782019060018060a01b03166001600160601b0360a01b82541617905560088101805460ff60a01b193316906affffffffffffffffffffff60a81b1617905542600982015560a435600a820155600d810160ff198154169055600f42910155817f8c9bdf27ba84a24e737f3e4e480ca9c515fe7b7510f351aee254db99ccb9f47160405185815280611f183395888301906123f6565b0390a3604051908152f35b015190508780611e43565b6003860160009081528981209350601f198516905b818110611f825750908460019594939210611f69575b505050811b016003830155611e5b565b015160001960f88460031b161c19169055878080611f59565b92938a600181928786015181550195019301611f43565b600384016000526020600020601f830160051c810160208410611fd9575b601f830160051c82018110611fcd575050611e29565b60008155600101611fb7565b5080611fb7565b905084015187611dec565b91506002840160005260206000206000925b601f1983168410612040576001935082601f19811610612027575b5050811b016002830155611e03565b86015160001960f88460031b161c191690558780612018565b86810151825560209384019360019092019101611ffd565b600284016000526020600020601f830160051c810160208410612098575b601f830160051c8201811061208c575050611dd5565b60008155600101612076565b5080612076565b60405162461bcd60e51b8152602060048201526015602482015274496e76616c69642064656c69766572792074696d6560581b6044820152606490fd5b60405162461bcd60e51b815260206004820152601060248201526f24b73b30b634b2103932b1b2b4bb32b960811b6044820152606490fd5b60405162461bcd60e51b815260206004820152601960248201527f4f7267616e697a6174696f6e206e6f74207665726966696564000000000000006044820152606490fd5b34610275576020366003190112610275576004359063ffffffff60e01b821680920361027557602091637965db0b60e01b811490811561219b575b5015158152f35b6301ffc9a760e01b14905083612194565b60e081019081106001600160401b0382111761074a57604052565b604081019081106001600160401b0382111761074a57604052565b90601f801991011681019081106001600160401b0382111761074a57604052565b9291926001600160401b03821161074a576040519161222c601f8201601f1916602001846121e2565b829481845281830111610275578281602093846000960137010152565b9080601f830112156102755781602061226493359101612203565b90565b600435906001600160a01b038216820361027557565b602435906001600160a01b038216820361027557565b6040906003190112610275576004359060243590565b80548210156122c5576000526003602060002091020190600090565b634e487b7160e01b600052603260045260246000fd5b80548210156122c55760005260206000200190600090565b90600182811c92168015612323575b602083101461230d57565b634e487b7160e01b600052602260045260246000fd5b91607f1691612302565b9060405191826000825492612341846122f3565b9081845260019485811690816000146123b0575060011461236d575b505061236b925003836121e2565b565b9093915060005260209081600020936000915b81831061239857505061236b9350820101388061235d565b85548884018501529485019487945091830191612380565b91505061236b94506020925060ff191682840152151560051b820101388061235d565b60005b8381106123e65750506000910152565b81810151838201526020016123d6565b9060209161240f815180928185528580860191016123d3565b601f01601f1916010190565b9060058210156104335752565b9060038210156104335752565b600090808252602090828252604092838120338252835260ff84822054161561245e5750505050565b8351916001600160401b0390336060850183811186821017612755578752602a85528585019187368437855115612741576030835385519160019283101561272d576078602188015360295b8381116126c35750612681579087519360808501908582109082111761266d57885260428452868401946060368737845115612659576030865384518210156126595790607860218601536041915b8183116125eb575050506125a9576125a59386936125899361257a6048946125519a519a8b957f416363657373436f6e74726f6c3a206163636f756e74200000000000000000008c88015251809260378801906123d3565b8401917001034b99036b4b9b9b4b733903937b6329607d1b6037840152518093868401906123d3565b010360288101875201856121e2565b5192839262461bcd60e51b8452600484015260248301906123f6565b0390fd5b60648587519062461bcd60e51b825280600483015260248201527f537472696e67733a20686578206c656e67746820696e73756666696369656e746044820152fd5b909192600f81166010811015612645576f181899199a1a9b1b9c1cb0b131b232b360811b901a61261b85886127dd565b5360041c928015612631576000190191906124f9565b634e487b7160e01b82526011600452602482fd5b634e487b7160e01b83526032600452602483fd5b634e487b7160e01b81526032600452602490fd5b634e487b7160e01b86526041600452602486fd5b60648789519062461bcd60e51b825280600483015260248201527f537472696e67733a20686578206c656e67746820696e73756666696369656e746044820152fd5b90600f81166010811015612719576f181899199a1a9b1b9c1cb0b131b232b360811b901a6126f1838a6127dd565b5360041c90801561270557600019016124aa565b634e487b7160e01b87526011600452602487fd5b634e487b7160e01b88526032600452602488fd5b634e487b7160e01b86526032600452602486fd5b634e487b7160e01b85526032600452602485fd5b634e487b7160e01b85526041600452602485fd5b9060009180835282602052604083209160018060a01b03169182845260205260ff60408420541661279957505050565b80835282602052604083208284526020526040832060ff1981541690557ff6391f5c32d9c69d2a47ea670b442974b53935d1edc7fd64eb21e047a839171b339380a4565b9081518110156122c5570160200190565b156127f557565b60405162461bcd60e51b815260206004820152600e60248201526d139bdd08185d5d1a1bdc9a5e995960921b6044820152606490fd5b1561283257565b60405162461bcd60e51b815260206004820152600e60248201526d496e76616c69642073746174757360901b6044820152606490fd5b1561286f57565b60405162461bcd60e51b815260206004820152600e60248201526d139bdd081a5b881d1c985b9cda5d60921b6044820152606490fd5b156128ac57565b60405162461bcd60e51b8152602060048201526011602482015270105b1c9958591e481c1c9bd8d95cdcd959607a1b6044820152606490fd5b156128ec57565b60405162461bcd60e51b8152602060048201526013602482015272496e646578206f7574206f6620626f756e647360681b6044820152606490fdfea264697066735822122004d61496848662b4b761c3841e5c717ab5a451d4f75e042327d591272f62d40b64736f6c634300081300332f8788117e7eff1d82e926ec794901d17c78024a50270940304540a733656f0d","opcodes":"PUSH1 0x80 PUSH1 0x40 DUP2 DUP2 MSTORE CALLVALUE PUSH3 0xEF JUMPI PUSH1 0x1 DUP1 SSTORE PUSH1 0x0 DUP1 DUP1 MSTORE PUSH1 0x20 SWAP2 DUP2 DUP4 MSTORE DUP1 DUP3 KECCAK256 CALLER DUP4 MSTORE DUP4 MSTORE PUSH1 0xFF DUP2 DUP4 KECCAK256 SLOAD AND ISZERO PUSH3 0xB7 JUMPI JUMPDEST PUSH32 0xC7AD0CCE645D8882D9E3736F60B0FFDAECE940015E673E73A905D480AD0E1C18 SWAP3 DUP4 DUP4 MSTORE DUP3 DUP2 MSTORE DUP2 DUP4 KECCAK256 CALLER DUP5 MSTORE DUP2 MSTORE PUSH1 0xFF DUP3 DUP5 KECCAK256 SLOAD AND ISZERO PUSH3 0x7C JUMPI JUMPDEST PUSH2 0x295D DUP6 DUP2 PUSH3 0xF5 DUP3 CODECOPY RETURN JUMPDEST DUP4 DUP4 MSTORE DUP3 DUP2 MSTORE DUP2 DUP4 KECCAK256 SWAP1 CALLER DUP5 MSTORE MSTORE DUP2 KECCAK256 PUSH1 0x1 PUSH1 0xFF NOT DUP3 SLOAD AND OR SWAP1 SSTORE CALLER SWAP2 PUSH1 0x0 DUP1 MLOAD PUSH1 0x20 PUSH3 0x2A52 DUP4 CODECOPY DUP2 MLOAD SWAP2 MSTORE CALLER SWAP3 DUP1 LOG4 CODESIZE DUP1 DUP1 DUP1 PUSH3 0x6F JUMP JUMPDEST DUP2 DUP1 MSTORE DUP2 DUP4 MSTORE DUP1 DUP3 KECCAK256 CALLER DUP4 MSTORE DUP4 MSTORE DUP1 DUP3 KECCAK256 PUSH1 0x1 PUSH1 0xFF NOT DUP3 SLOAD AND OR SWAP1 SSTORE CALLER CALLER DUP4 PUSH1 0x0 DUP1 MLOAD PUSH1 0x20 PUSH3 0x2A52 DUP4 CODECOPY DUP2 MLOAD SWAP2 MSTORE DUP2 DUP1 LOG4 PUSH3 0x31 JUMP JUMPDEST PUSH1 0x0 DUP1 REVERT INVALID PUSH1 0xA0 DUP1 PUSH1 0x40 MSTORE PUSH1 0x4 CALLDATASIZE LT ISZERO PUSH2 0x13 JUMPI PUSH1 0x0 DUP1 REVERT JUMPDEST PUSH1 0x0 CALLDATALOAD PUSH1 0xE0 SHR SWAP1 DUP2 PUSH4 0x1FFC9A7 EQ PUSH2 0x2159 JUMPI POP DUP1 PUSH4 0x32BECBC EQ PUSH2 0x1CE8 JUMPI DUP1 PUSH4 0x561A0E6 EQ PUSH2 0x1AF0 JUMPI DUP1 PUSH4 0x69445DD EQ PUSH2 0x1AB1 JUMPI DUP1 PUSH4 0x9ABEFFA EQ PUSH2 0x1A12 JUMPI DUP1 PUSH4 0x14A5D48D EQ PUSH2 0x1918 JUMPI DUP1 PUSH4 0x1967FA17 EQ PUSH2 0x17E4 JUMPI DUP1 PUSH4 0x1A948212 EQ PUSH2 0x17B5 JUMPI DUP1 PUSH4 0x1F9F5996 EQ PUSH2 0x175A JUMPI DUP1 PUSH4 0x22DCDF68 EQ PUSH2 0x13F7 JUMPI DUP1 PUSH4 0x22E875CD EQ PUSH2 0x13C0 JUMPI DUP1 PUSH4 0x247696B2 EQ PUSH2 0x1389 JUMPI DUP1 PUSH4 0x248A9CA3 EQ PUSH2 0x135A JUMPI DUP1 PUSH4 0x263CB6B6 EQ PUSH2 0x1302 JUMPI DUP1 PUSH4 0x2AC08A93 EQ PUSH2 0x117D JUMPI DUP1 PUSH4 0x2D6EE32E EQ PUSH2 0x1160 JUMPI DUP1 PUSH4 0x2F2FF15D EQ PUSH2 0x10AD JUMPI DUP1 PUSH4 0x36568ABE EQ PUSH2 0x101B JUMPI DUP1 PUSH4 0x365FCDEE EQ PUSH2 0xFE4 JUMPI DUP1 PUSH4 0x411F9161 EQ PUSH2 0xF4D JUMPI DUP1 PUSH4 0x5F083E17 EQ PUSH2 0xF1E JUMPI DUP1 PUSH4 0x682BA906 EQ PUSH2 0xEEF JUMPI DUP1 PUSH4 0x6CCB3BAA EQ PUSH2 0xDD5 JUMPI DUP1 PUSH4 0x6E2989B2 EQ PUSH2 0xDA6 JUMPI DUP1 PUSH4 0x74C1832E EQ PUSH2 0xD7A JUMPI DUP1 PUSH4 0x7B7392C1 EQ PUSH2 0xD43 JUMPI DUP1 PUSH4 0x81655533 EQ PUSH2 0xD14 JUMPI DUP1 PUSH4 0x88E2E5E3 EQ PUSH2 0xCC0 JUMPI DUP1 PUSH4 0x91D14854 EQ PUSH2 0xC73 JUMPI DUP1 PUSH4 0xA217FDDF EQ PUSH2 0xC57 JUMPI DUP1 PUSH4 0xA3F5E472 EQ PUSH2 0xC1C JUMPI DUP1 PUSH4 0xA5AA1DEB EQ PUSH2 0xBD2 JUMPI DUP1 PUSH4 0xA9C38AAD EQ PUSH2 0xBB4 JUMPI DUP1 PUSH4 0xACB2123F EQ PUSH2 0xB6D JUMPI DUP1 PUSH4 0xB337CF74 EQ PUSH2 0xAB9 JUMPI DUP1 PUSH4 0xB53DB1C7 EQ PUSH2 0x957 JUMPI DUP1 PUSH4 0xBD0840B8 EQ PUSH2 0x928 JUMPI DUP1 PUSH4 0xBEB0AE8B EQ PUSH2 0x893 JUMPI DUP1 PUSH4 0xC3A2C901 EQ PUSH2 0x864 JUMPI DUP1 PUSH4 0xC5118C21 EQ PUSH2 0x52D JUMPI DUP1 PUSH4 0xC89958E5 EQ PUSH2 0x4FE JUMPI DUP1 PUSH4 0xCEB6EA08 EQ PUSH2 0x4CF JUMPI DUP1 PUSH4 0xD547741F EQ PUSH2 0x48E JUMPI DUP1 PUSH4 0xE0D51664 EQ PUSH2 0x363 JUMPI DUP1 PUSH4 0xEE21259D EQ PUSH2 0x327 JUMPI DUP1 PUSH4 0xF0BD87CC EQ PUSH2 0x2EC JUMPI DUP1 PUSH4 0xF0C58EA7 EQ PUSH2 0x2B1 JUMPI DUP1 PUSH4 0xF4B36051 EQ PUSH2 0x27A JUMPI PUSH4 0xF6BA6678 EQ PUSH2 0x23A JUMPI PUSH1 0x0 DUP1 REVERT JUMPDEST CALLVALUE PUSH2 0x275 JUMPI PUSH1 0x0 CALLDATASIZE PUSH1 0x3 NOT ADD SLT PUSH2 0x275 JUMPI PUSH1 0x20 PUSH1 0x40 MLOAD PUSH32 0xC8F5B4140CCA307CD927E59CBEEA8291BFFEEE228FC677F0FA059AEF7B4DD8D5 DUP2 MSTORE RETURN JUMPDEST PUSH1 0x0 DUP1 REVERT JUMPDEST CALLVALUE PUSH2 0x275 JUMPI PUSH1 0x20 CALLDATASIZE PUSH1 0x3 NOT ADD SLT PUSH2 0x275 JUMPI PUSH1 0x4 CALLDATALOAD PUSH1 0x0 MSTORE PUSH1 0x3 PUSH1 0x20 MSTORE PUSH1 0x20 PUSH1 0x1 DUP1 PUSH1 0xA0 SHL SUB PUSH1 0x1 PUSH1 0x40 PUSH1 0x0 KECCAK256 ADD SLOAD AND PUSH1 0x40 MLOAD SWAP1 DUP2 MSTORE RETURN JUMPDEST CALLVALUE PUSH2 0x275 JUMPI PUSH1 0x0 CALLDATASIZE PUSH1 0x3 NOT ADD SLT PUSH2 0x275 JUMPI PUSH1 0x20 PUSH1 0x40 MLOAD PUSH32 0x2F3A5455F35AECA177AC653592F277FBE2FBAFEF01081A2030451BB2FB41C91D DUP2 MSTORE RETURN JUMPDEST CALLVALUE PUSH2 0x275 JUMPI PUSH1 0x0 CALLDATASIZE PUSH1 0x3 NOT ADD SLT PUSH2 0x275 JUMPI PUSH1 0x20 PUSH1 0x40 MLOAD PUSH32 0xFBD454F36A7E1A388BD6FC3AB10D434AA4578F811ACBBCF33AFB1C697486313C DUP2 MSTORE RETURN JUMPDEST CALLVALUE PUSH2 0x275 JUMPI PUSH1 0x20 CALLDATASIZE PUSH1 0x3 NOT ADD SLT PUSH2 0x275 JUMPI PUSH1 0x4 CALLDATALOAD PUSH1 0x0 MSTORE PUSH1 0x3 PUSH1 0x20 MSTORE PUSH1 0x20 PUSH1 0xFF PUSH1 0x8 PUSH1 0x40 PUSH1 0x0 KECCAK256 ADD SLOAD PUSH1 0xA0 SHR AND PUSH2 0x361 PUSH1 0x40 MLOAD DUP1 SWAP3 PUSH2 0x241B JUMP JUMPDEST RETURN JUMPDEST CALLVALUE PUSH2 0x275 JUMPI PUSH1 0x20 CALLDATASIZE PUSH1 0x3 NOT ADD SLT PUSH2 0x275 JUMPI PUSH1 0x4 CALLDATALOAD PUSH1 0x0 DUP2 DUP2 MSTORE PUSH1 0x3 PUSH1 0x20 MSTORE PUSH1 0x40 SWAP1 KECCAK256 PUSH1 0x7 DUP2 ADD SLOAD PUSH1 0x1 PUSH1 0x1 PUSH1 0xA0 SHL SUB AND CALLER SUB PUSH2 0x449 JUMPI PUSH1 0x8 DUP2 ADD SWAP1 DUP2 SLOAD SWAP1 PUSH1 0xFF DUP3 PUSH1 0xA0 SHR AND PUSH1 0x5 DUP2 LT ISZERO PUSH2 0x433 JUMPI PUSH1 0x1 PUSH2 0x3BD SWAP2 EQ PUSH2 0x2868 JUMP JUMPDEST PUSH1 0xB TIMESTAMP SWAP2 ADD SSTORE PUSH1 0x1 PUSH1 0xA1 SHL SWAP1 CALLER SWAP1 PUSH11 0xFFFFFFFFFFFFFFFFFFFFFF PUSH1 0xA8 SHL AND OR OR SWAP1 SSTORE PUSH32 0x8E16B4336DC88D11F2B19383604580B7FC6349DF052BC9232D52CE1A40DF6C4D PUSH1 0x20 PUSH1 0x40 MLOAD CALLER DUP5 PUSH32 0xBF7B34FCFB0FA3CDE7BD3CE969EAF623D71024A06634FB384B78C1CAC6C7EAAC PUSH1 0x0 DUP1 LOG3 PUSH1 0x2 DUP2 MSTORE LOG2 STOP JUMPDEST PUSH4 0x4E487B71 PUSH1 0xE0 SHL PUSH1 0x0 MSTORE PUSH1 0x21 PUSH1 0x4 MSTORE PUSH1 0x24 PUSH1 0x0 REVERT JUMPDEST PUSH1 0x40 MLOAD PUSH3 0x461BCD PUSH1 0xE5 SHL DUP2 MSTORE PUSH1 0x20 PUSH1 0x4 DUP3 ADD MSTORE PUSH1 0x19 PUSH1 0x24 DUP3 ADD MSTORE PUSH32 0x4F6E6C792072656365697665722063616E20636F6E6669726D00000000000000 PUSH1 0x44 DUP3 ADD MSTORE PUSH1 0x64 SWAP1 REVERT JUMPDEST CALLVALUE PUSH2 0x275 JUMPI PUSH1 0x40 CALLDATASIZE PUSH1 0x3 NOT ADD SLT PUSH2 0x275 JUMPI PUSH2 0x4CD PUSH1 0x4 CALLDATALOAD PUSH2 0x4AD PUSH2 0x227D JUMP JUMPDEST SWAP1 DUP1 PUSH1 0x0 MSTORE PUSH1 0x0 PUSH1 0x20 MSTORE PUSH2 0x4C8 PUSH1 0x1 PUSH1 0x40 PUSH1 0x0 KECCAK256 ADD SLOAD PUSH2 0x2435 JUMP JUMPDEST PUSH2 0x2769 JUMP JUMPDEST STOP JUMPDEST CALLVALUE PUSH2 0x275 JUMPI PUSH1 0x20 CALLDATASIZE PUSH1 0x3 NOT ADD SLT PUSH2 0x275 JUMPI PUSH1 0x4 CALLDATALOAD PUSH1 0x0 MSTORE PUSH1 0x3 PUSH1 0x20 MSTORE PUSH1 0x20 PUSH1 0x9 PUSH1 0x40 PUSH1 0x0 KECCAK256 ADD SLOAD PUSH1 0x40 MLOAD SWAP1 DUP2 MSTORE RETURN JUMPDEST CALLVALUE PUSH2 0x275 JUMPI PUSH1 0x20 CALLDATASIZE PUSH1 0x3 NOT ADD SLT PUSH2 0x275 JUMPI PUSH1 0x4 CALLDATALOAD PUSH1 0x0 MSTORE PUSH1 0x3 PUSH1 0x20 MSTORE PUSH1 0x20 PUSH1 0xE PUSH1 0x40 PUSH1 0x0 KECCAK256 ADD SLOAD PUSH1 0x40 MLOAD SWAP1 DUP2 MSTORE RETURN JUMPDEST CALLVALUE PUSH2 0x275 JUMPI PUSH1 0x60 CALLDATASIZE PUSH1 0x3 NOT ADD SLT PUSH2 0x275 JUMPI PUSH1 0x4 CALLDATALOAD PUSH2 0x549 PUSH2 0x227D JUMP JUMPDEST PUSH1 0x1 PUSH1 0x1 PUSH1 0x40 SHL SUB SWAP2 SWAP1 PUSH1 0x44 CALLDATALOAD DUP4 DUP2 GT PUSH2 0x275 JUMPI PUSH2 0x56B SWAP1 CALLDATASIZE SWAP1 PUSH1 0x4 ADD PUSH2 0x2249 JUMP JUMPDEST CALLER PUSH1 0x0 SWAP1 DUP2 MSTORE PUSH32 0x90E68B589B8F105469304896D2D9920902EC0B7538B2F0839E2092C13ED272EC PUSH1 0x20 SWAP1 DUP2 MSTORE PUSH1 0x40 SWAP1 SWAP2 KECCAK256 SLOAD SWAP2 SWAP5 SWAP1 SWAP2 PUSH1 0xFF AND DUP1 ISZERO PUSH2 0x825 JUMPI JUMPDEST PUSH2 0x5B4 SWAP1 PUSH2 0x27EE JUMP JUMPDEST DUP4 PUSH1 0x0 MSTORE PUSH1 0x3 DUP3 MSTORE PUSH1 0xFF PUSH1 0x8 PUSH1 0x40 PUSH1 0x0 KECCAK256 ADD SLOAD PUSH1 0xA0 SHR AND PUSH1 0x5 DUP2 LT ISZERO PUSH2 0x433 JUMPI PUSH2 0x5DE SWAP1 ISZERO PUSH2 0x282B JUMP JUMPDEST PUSH1 0x40 MLOAD PUSH2 0x5EA DUP2 PUSH2 0x21AC JUMP JUMPDEST DUP5 DUP2 MSTORE DUP3 DUP2 ADD SWAP1 CALLER DUP3 MSTORE PUSH1 0x40 DUP2 ADD SWAP3 PUSH1 0x1 DUP1 PUSH1 0xA0 SHL SUB DUP1 SWAP7 AND SWAP8 DUP9 DUP6 MSTORE PUSH1 0x60 DUP4 ADD SWAP1 DUP2 MSTORE PUSH1 0x80 DUP4 ADD SWAP2 TIMESTAMP DUP4 MSTORE PUSH1 0xA0 DUP5 ADD SWAP6 PUSH1 0x0 DUP8 MSTORE PUSH1 0xC0 DUP6 ADD SWAP6 PUSH1 0x0 DUP8 MSTORE DUP11 PUSH1 0x0 MSTORE PUSH1 0x6 DUP10 MSTORE PUSH1 0x40 PUSH1 0x0 KECCAK256 SWAP6 MLOAD DUP7 SSTORE PUSH1 0x1 SWAP10 DUP1 DUP12 DUP9 ADD SWAP3 MLOAD AND SWAP2 PUSH1 0x1 PUSH1 0x1 PUSH1 0x60 SHL SUB PUSH1 0xA0 SHL SWAP3 DUP4 DUP3 SLOAD AND OR SWAP1 SSTORE PUSH1 0x2 DUP8 ADD SWAP3 MLOAD AND SWAP1 DUP3 SLOAD AND OR SWAP1 SSTORE PUSH1 0x3 DUP5 ADD SWAP2 MLOAD DUP1 MLOAD SWAP2 DUP3 GT PUSH2 0x74A JUMPI PUSH2 0x67E DUP4 SLOAD PUSH2 0x22F3 JUMP JUMPDEST PUSH1 0x1F DUP2 GT PUSH2 0x7DC JUMPI JUMPDEST POP DUP8 SWAP1 PUSH1 0x1F DUP4 GT PUSH1 0x1 EQ PUSH2 0x76B JUMPI SWAP2 DUP1 PUSH1 0x7 SWAP10 SWAP9 SWAP8 SWAP7 SWAP5 SWAP3 PUSH1 0x5 SWAP7 SWAP5 PUSH1 0x0 SWAP3 PUSH2 0x760 JUMPI JUMPDEST POP POP PUSH1 0x0 NOT PUSH1 0x3 DUP4 SWAP1 SHL SHR NOT AND SWAP1 DUP11 SHL OR SWAP1 SSTORE JUMPDEST MLOAD PUSH1 0x4 DUP3 ADD SSTORE ADD SWAP2 MLOAD ISZERO ISZERO SWAP1 PUSH1 0xFF PUSH2 0xFF00 DUP5 SLOAD SWAP3 MLOAD ISZERO ISZERO PUSH1 0x8 SHL AND SWAP3 AND SWAP1 PUSH2 0xFFFF NOT AND OR OR SWAP1 SSTORE DUP5 PUSH1 0x0 MSTORE MSTORE PUSH1 0x40 PUSH1 0x0 KECCAK256 DUP1 SLOAD SWAP1 PUSH1 0x1 PUSH1 0x40 SHL DUP3 LT ISZERO PUSH2 0x74A JUMPI PUSH2 0x70C SWAP3 DUP3 ADD DUP2 SSTORE PUSH2 0x22DB JUMP JUMPDEST DUP2 SLOAD SWAP1 PUSH1 0x3 SHL SWAP1 DUP4 DUP3 SHL SWAP2 PUSH1 0x0 NOT SWAP1 SHL NOT AND OR SWAP1 SSTORE CALLER SWAP1 PUSH32 0xED8BC4D3EABF6A4468589C4003FF568B85EEF1DA79DC436AB5B1B9F55E090F21 PUSH1 0x0 DUP1 LOG4 STOP JUMPDEST PUSH4 0x4E487B71 PUSH1 0xE0 SHL PUSH1 0x0 MSTORE PUSH1 0x41 PUSH1 0x4 MSTORE PUSH1 0x24 PUSH1 0x0 REVERT JUMPDEST ADD MLOAD SWAP1 POP DUP14 DUP1 PUSH2 0x6AB JUMP JUMPDEST DUP10 SWAP3 SWAP2 PUSH1 0x1F NOT DUP4 AND SWAP2 DUP6 PUSH1 0x0 MSTORE DUP11 PUSH1 0x0 KECCAK256 SWAP3 PUSH1 0x0 JUMPDEST DUP2 DUP2 LT PUSH2 0x7C5 JUMPI POP SWAP2 PUSH1 0x5 SWAP8 SWAP6 SWAP4 SWAP2 DUP6 PUSH1 0x7 SWAP14 SWAP13 SWAP12 SWAP11 SWAP9 SWAP7 SWAP5 LT PUSH2 0x7AC JUMPI JUMPDEST POP POP POP DUP2 SHL ADD SWAP1 SSTORE PUSH2 0x6BF JUMP JUMPDEST ADD MLOAD PUSH1 0x0 NOT PUSH1 0xF8 DUP5 PUSH1 0x3 SHL AND SHR NOT AND SWAP1 SSTORE DUP14 DUP1 DUP1 PUSH2 0x79F JUMP JUMPDEST DUP3 DUP5 ADD MLOAD DUP6 SSTORE DUP14 SWAP7 SWAP1 SWAP5 ADD SWAP4 SWAP3 DUP13 ADD SWAP3 DUP13 ADD PUSH2 0x780 JUMP JUMPDEST DUP4 PUSH1 0x0 MSTORE DUP9 PUSH1 0x0 KECCAK256 PUSH1 0x1F DUP5 ADD PUSH1 0x5 SHR DUP2 ADD SWAP2 DUP11 DUP6 LT PUSH2 0x81B JUMPI JUMPDEST PUSH1 0x1F ADD PUSH1 0x5 SHR ADD SWAP1 DUP11 SWAP1 JUMPDEST DUP3 DUP2 LT PUSH2 0x80F JUMPI POP POP PUSH2 0x687 JUMP JUMPDEST PUSH1 0x0 DUP2 SSTORE ADD DUP11 SWAP1 PUSH2 0x801 JUMP JUMPDEST SWAP1 SWAP2 POP DUP2 SWAP1 PUSH2 0x7F6 JUMP JUMPDEST POP PUSH32 0x2F3A5455F35AECA177AC653592F277FBE2FBAFEF01081A2030451BB2FB41C91D PUSH1 0x0 SWAP1 DUP2 MSTORE DUP1 DUP4 MSTORE PUSH1 0x40 DUP1 DUP3 KECCAK256 CALLER DUP4 MSTORE DUP5 MSTORE SWAP1 KECCAK256 SLOAD PUSH1 0xFF AND PUSH2 0x5AB JUMP JUMPDEST CALLVALUE PUSH2 0x275 JUMPI PUSH1 0x20 CALLDATASIZE PUSH1 0x3 NOT ADD SLT PUSH2 0x275 JUMPI PUSH1 0x4 CALLDATALOAD PUSH1 0x0 MSTORE PUSH1 0x3 PUSH1 0x20 MSTORE PUSH1 0x20 PUSH1 0xF PUSH1 0x40 PUSH1 0x0 KECCAK256 ADD SLOAD PUSH1 0x40 MLOAD SWAP1 DUP2 MSTORE RETURN JUMPDEST CALLVALUE PUSH2 0x275 JUMPI PUSH1 0x20 CALLDATASIZE PUSH1 0x3 NOT ADD SLT PUSH2 0x275 JUMPI PUSH1 0x4 CALLDATALOAD DUP1 PUSH1 0x0 MSTORE PUSH1 0x6 PUSH1 0x20 MSTORE PUSH1 0x5 PUSH1 0x40 PUSH1 0x0 KECCAK256 PUSH2 0x8CE PUSH1 0x1 DUP1 PUSH1 0xA0 SHL SUB PUSH1 0x2 DUP4 ADD SLOAD AND CALLER EQ PUSH2 0x27EE JUMP JUMPDEST ADD PUSH2 0x100 DUP2 SLOAD PUSH1 0xFF DUP2 AND ISZERO DUP1 PUSH2 0x919 JUMPI JUMPDEST PUSH2 0x8E8 SWAP1 PUSH2 0x28A5 JUMP JUMPDEST PUSH2 0xFF00 NOT AND OR SWAP1 SSTORE CALLER SWAP1 PUSH32 0x1D09F1F82304B077F1E4DDBAA4A4F02AE5EDF911E630CB75A550BC77AFFE2034 PUSH1 0x0 DUP1 LOG3 STOP JUMPDEST POP PUSH1 0x8 DUP2 SWAP1 SHR PUSH1 0xFF AND ISZERO PUSH2 0x8DF JUMP JUMPDEST CALLVALUE PUSH2 0x275 JUMPI PUSH1 0x20 CALLDATASIZE PUSH1 0x3 NOT ADD SLT PUSH2 0x275 JUMPI PUSH1 0x4 CALLDATALOAD PUSH1 0x0 MSTORE PUSH1 0x3 PUSH1 0x20 MSTORE PUSH1 0x20 PUSH1 0x5 PUSH1 0x40 PUSH1 0x0 KECCAK256 ADD SLOAD PUSH1 0x40 MLOAD SWAP1 DUP2 MSTORE RETURN JUMPDEST CALLVALUE PUSH2 0x275 JUMPI PUSH2 0x965 CALLDATASIZE PUSH2 0x2293 JUMP JUMPDEST DUP2 PUSH1 0x0 MSTORE PUSH1 0x3 PUSH1 0x20 MSTORE PUSH1 0x40 PUSH1 0x0 KECCAK256 SWAP1 PUSH1 0xFF PUSH1 0x8 DUP4 ADD SLOAD PUSH1 0xA0 SHR AND PUSH1 0x5 DUP2 LT ISZERO PUSH2 0x433 JUMPI PUSH1 0x1 PUSH2 0x994 SWAP2 EQ PUSH2 0x2868 JUMP JUMPDEST DUP3 PUSH1 0x0 MSTORE PUSH1 0x4 PUSH1 0x20 MSTORE PUSH1 0x40 PUSH1 0x0 KECCAK256 SWAP1 PUSH1 0x40 MLOAD SWAP3 PUSH1 0x60 DUP5 ADD DUP5 DUP2 LT PUSH1 0x1 PUSH1 0x1 PUSH1 0x40 SHL SUB DUP3 GT OR PUSH2 0x74A JUMPI PUSH1 0x40 MSTORE TIMESTAMP DUP5 MSTORE PUSH1 0x20 DUP5 ADD SWAP1 DUP3 DUP3 MSTORE PUSH1 0x40 DUP6 ADD SWAP4 CALLER DUP6 MSTORE DUP1 SLOAD PUSH1 0x1 PUSH1 0x40 SHL DUP2 LT ISZERO PUSH2 0x74A JUMPI PUSH2 0x9F0 SWAP2 PUSH1 0x1 DUP3 ADD DUP2 SSTORE PUSH2 0x22A9 JUMP JUMPDEST SWAP5 SWAP1 SWAP5 PUSH2 0xAA3 JUMPI PUSH1 0x2 PUSH1 0x40 SWAP6 PUSH1 0xD SWAP5 PUSH32 0x275F8AC498A3572BD28FAFDC01D4FD3C3B93F5C880FEB591084D628C29461883 SWAP9 MLOAD DUP3 SSTORE MLOAD PUSH1 0x1 DUP3 ADD SSTORE ADD SWAP1 PUSH1 0x1 DUP1 PUSH1 0xA0 SHL SUB SWAP1 MLOAD AND PUSH1 0x1 PUSH1 0x1 PUSH1 0x60 SHL SUB PUSH1 0xA0 SHL DUP3 SLOAD AND OR SWAP1 SSTORE DUP3 PUSH1 0xE DUP3 ADD SSTORE TIMESTAMP PUSH1 0xF DUP3 ADD SSTORE PUSH2 0x320 DUP4 GT PUSH1 0x0 EQ PUSH2 0xA7A JUMPI ADD DUP1 SLOAD PUSH1 0xFF NOT AND PUSH1 0x2 OR SWAP1 SSTORE JUMPDEST DUP2 MLOAD SWAP1 DUP2 MSTORE TIMESTAMP PUSH1 0x20 DUP3 ADD MSTORE LOG2 STOP JUMPDEST PUSH2 0x1F4 DUP4 GT ISZERO PUSH2 0xA95 JUMPI ADD DUP1 SLOAD PUSH1 0xFF NOT AND PUSH1 0x1 OR SWAP1 SSTORE PUSH2 0xA6C JUMP JUMPDEST ADD DUP1 SLOAD PUSH1 0xFF NOT AND SWAP1 SSTORE PUSH2 0xA6C JUMP JUMPDEST PUSH4 0x4E487B71 PUSH1 0xE0 SHL PUSH1 0x0 MSTORE PUSH1 0x0 PUSH1 0x4 MSTORE PUSH1 0x24 PUSH1 0x0 REVERT JUMPDEST CALLVALUE PUSH2 0x275 JUMPI PUSH1 0x20 DUP1 PUSH1 0x3 NOT CALLDATASIZE ADD SLT PUSH2 0x275 JUMPI PUSH1 0x1 PUSH1 0x1 PUSH1 0xA0 SHL SUB PUSH2 0xADB PUSH2 0x2267 JUMP JUMPDEST AND PUSH1 0x0 MSTORE PUSH1 0x7 DUP2 MSTORE PUSH1 0x40 PUSH1 0x0 KECCAK256 PUSH1 0x40 MLOAD SWAP1 DUP2 DUP4 DUP3 SLOAD SWAP2 DUP3 DUP2 MSTORE ADD SWAP1 DUP2 SWAP3 PUSH1 0x0 MSTORE DUP5 PUSH1 0x0 KECCAK256 SWAP1 PUSH1 0x0 JUMPDEST DUP7 DUP3 DUP3 LT PUSH2 0xB59 JUMPI DUP7 DUP7 PUSH2 0xB19 DUP3 DUP9 SUB DUP4 PUSH2 0x21E2 JUMP JUMPDEST PUSH1 0x40 MLOAD SWAP3 DUP4 SWAP3 DUP2 DUP5 ADD SWAP1 DUP3 DUP6 MSTORE MLOAD DUP1 SWAP2 MSTORE PUSH1 0x40 DUP5 ADD SWAP3 SWAP2 PUSH1 0x0 JUMPDEST DUP3 DUP2 LT PUSH2 0xB42 JUMPI POP POP POP POP SUB SWAP1 RETURN JUMPDEST DUP4 MLOAD DUP6 MSTORE DUP7 SWAP6 POP SWAP4 DUP2 ADD SWAP4 SWAP3 DUP2 ADD SWAP3 PUSH1 0x1 ADD PUSH2 0xB33 JUMP JUMPDEST DUP4 SLOAD DUP6 MSTORE SWAP1 SWAP4 ADD SWAP3 PUSH1 0x1 SWAP3 DUP4 ADD SWAP3 ADD PUSH2 0xB03 JUMP JUMPDEST CALLVALUE PUSH2 0x275 JUMPI PUSH1 0x20 CALLDATASIZE PUSH1 0x3 NOT ADD SLT PUSH2 0x275 JUMPI PUSH1 0x4 CALLDATALOAD PUSH1 0x0 MSTORE PUSH1 0x3 PUSH1 0x20 MSTORE PUSH2 0xBB0 PUSH2 0xB9C PUSH1 0xC PUSH1 0x40 PUSH1 0x0 KECCAK256 ADD PUSH2 0x232D JUMP JUMPDEST PUSH1 0x40 MLOAD SWAP2 DUP3 SWAP2 PUSH1 0x20 DUP4 MSTORE PUSH1 0x20 DUP4 ADD SWAP1 PUSH2 0x23F6 JUMP JUMPDEST SUB SWAP1 RETURN JUMPDEST CALLVALUE PUSH2 0x275 JUMPI PUSH1 0x0 CALLDATASIZE PUSH1 0x3 NOT ADD SLT PUSH2 0x275 JUMPI PUSH1 0x20 PUSH1 0x2 SLOAD PUSH1 0x40 MLOAD SWAP1 DUP2 MSTORE RETURN JUMPDEST CALLVALUE PUSH2 0x275 JUMPI PUSH1 0x20 PUSH1 0x1 PUSH2 0xC11 PUSH2 0xBE7 CALLDATASIZE PUSH2 0x2293 JUMP JUMPDEST SWAP1 DUP1 PUSH1 0x0 MSTORE PUSH1 0x4 DUP6 MSTORE PUSH2 0xC00 PUSH1 0x40 PUSH1 0x0 KECCAK256 SLOAD DUP4 LT PUSH2 0x28E5 JUMP JUMPDEST PUSH1 0x0 MSTORE PUSH1 0x4 DUP5 MSTORE PUSH1 0x40 PUSH1 0x0 KECCAK256 PUSH2 0x22A9 JUMP JUMPDEST POP ADD SLOAD PUSH1 0x40 MLOAD SWAP1 DUP2 MSTORE RETURN JUMPDEST CALLVALUE PUSH2 0x275 JUMPI PUSH1 0x0 CALLDATASIZE PUSH1 0x3 NOT ADD SLT PUSH2 0x275 JUMPI PUSH1 0x20 PUSH1 0x40 MLOAD PUSH32 0xC7AD0CCE645D8882D9E3736F60B0FFDAECE940015E673E73A905D480AD0E1C18 DUP2 MSTORE RETURN JUMPDEST CALLVALUE PUSH2 0x275 JUMPI PUSH1 0x0 CALLDATASIZE PUSH1 0x3 NOT ADD SLT PUSH2 0x275 JUMPI PUSH1 0x20 PUSH1 0x40 MLOAD PUSH1 0x0 DUP2 MSTORE RETURN JUMPDEST CALLVALUE PUSH2 0x275 JUMPI PUSH1 0x40 CALLDATASIZE PUSH1 0x3 NOT ADD SLT PUSH2 0x275 JUMPI PUSH2 0xC8C PUSH2 0x227D JUMP JUMPDEST PUSH1 0x4 CALLDATALOAD PUSH1 0x0 MSTORE PUSH1 0x0 PUSH1 0x20 MSTORE PUSH1 0x40 PUSH1 0x0 KECCAK256 SWAP1 PUSH1 0x1 DUP1 PUSH1 0xA0 SHL SUB AND PUSH1 0x0 MSTORE PUSH1 0x20 MSTORE PUSH1 0x20 PUSH1 0xFF PUSH1 0x40 PUSH1 0x0 KECCAK256 SLOAD AND PUSH1 0x40 MLOAD SWAP1 ISZERO ISZERO DUP2 MSTORE RETURN JUMPDEST CALLVALUE PUSH2 0x275 JUMPI PUSH1 0x20 PUSH2 0xCFD PUSH2 0xCD3 CALLDATASIZE PUSH2 0x2293 JUMP JUMPDEST SWAP1 DUP1 PUSH1 0x0 MSTORE PUSH1 0x4 DUP5 MSTORE PUSH2 0xCEC PUSH1 0x40 PUSH1 0x0 KECCAK256 SLOAD DUP4 LT PUSH2 0x28E5 JUMP JUMPDEST PUSH1 0x0 MSTORE PUSH1 0x4 DUP4 MSTORE PUSH1 0x40 PUSH1 0x0 KECCAK256 PUSH2 0x22A9 JUMP JUMPDEST POP PUSH1 0x2 ADD SLOAD PUSH1 0x40 MLOAD PUSH1 0x1 PUSH1 0x1 PUSH1 0xA0 SHL SUB SWAP1 SWAP2 AND DUP2 MSTORE RETURN JUMPDEST CALLVALUE PUSH2 0x275 JUMPI PUSH1 0x20 CALLDATASIZE PUSH1 0x3 NOT ADD SLT PUSH2 0x275 JUMPI PUSH1 0x4 CALLDATALOAD PUSH1 0x0 MSTORE PUSH1 0x3 PUSH1 0x20 MSTORE PUSH1 0x20 PUSH1 0xB PUSH1 0x40 PUSH1 0x0 KECCAK256 ADD SLOAD PUSH1 0x40 MLOAD SWAP1 DUP2 MSTORE RETURN JUMPDEST CALLVALUE PUSH2 0x275 JUMPI PUSH1 0x20 CALLDATASIZE PUSH1 0x3 NOT ADD SLT PUSH2 0x275 JUMPI PUSH1 0x4 CALLDATALOAD PUSH1 0x0 MSTORE PUSH1 0x3 PUSH1 0x20 MSTORE PUSH1 0x20 PUSH1 0x1 DUP1 PUSH1 0xA0 SHL SUB PUSH1 0x8 PUSH1 0x40 PUSH1 0x0 KECCAK256 ADD SLOAD AND PUSH1 0x40 MLOAD SWAP1 DUP2 MSTORE RETURN JUMPDEST CALLVALUE PUSH2 0x275 JUMPI PUSH1 0x20 CALLDATASIZE PUSH1 0x3 NOT ADD SLT PUSH2 0x275 JUMPI PUSH1 0x4 CALLDATALOAD PUSH1 0x0 MSTORE PUSH1 0x4 PUSH1 0x20 MSTORE PUSH1 0x20 PUSH1 0x40 PUSH1 0x0 KECCAK256 SLOAD PUSH1 0x40 MLOAD SWAP1 DUP2 MSTORE RETURN JUMPDEST CALLVALUE PUSH2 0x275 JUMPI PUSH1 0x20 CALLDATASIZE PUSH1 0x3 NOT ADD SLT PUSH2 0x275 JUMPI PUSH1 0x4 CALLDATALOAD PUSH1 0x0 MSTORE PUSH1 0x3 PUSH1 0x20 MSTORE PUSH2 0xBB0 PUSH2 0xB9C PUSH1 0x3 PUSH1 0x40 PUSH1 0x0 KECCAK256 ADD PUSH2 0x232D JUMP JUMPDEST CALLVALUE PUSH2 0x275 JUMPI PUSH1 0x20 DUP1 PUSH1 0x3 NOT CALLDATASIZE ADD SLT PUSH2 0x275 JUMPI PUSH1 0x0 PUSH1 0xC0 PUSH1 0x40 MLOAD PUSH2 0xDF7 DUP2 PUSH2 0x21AC JUMP JUMPDEST DUP3 DUP2 MSTORE DUP3 DUP5 DUP3 ADD MSTORE DUP3 PUSH1 0x40 DUP3 ADD MSTORE PUSH1 0x60 DUP1 DUP3 ADD MSTORE DUP3 PUSH1 0x80 DUP3 ADD MSTORE DUP3 PUSH1 0xA0 DUP3 ADD MSTORE ADD MSTORE PUSH1 0x4 CALLDATALOAD PUSH1 0x0 MSTORE PUSH1 0x6 DUP2 MSTORE PUSH1 0x40 PUSH1 0x0 KECCAK256 PUSH1 0x40 MLOAD SWAP1 PUSH2 0xE35 DUP3 PUSH2 0x21AC JUMP JUMPDEST DUP1 SLOAD DUP3 MSTORE PUSH1 0x1 DUP2 ADD SLOAD PUSH1 0x1 PUSH1 0x1 PUSH1 0xA0 SHL SUB SWAP1 DUP2 AND DUP5 DUP5 ADD SWAP1 DUP2 MSTORE PUSH1 0x2 DUP4 ADD SLOAD DUP3 AND PUSH1 0x40 DUP6 ADD SWAP1 DUP2 MSTORE SWAP2 PUSH2 0xED4 SWAP1 PUSH2 0xE6E PUSH1 0x3 DUP7 ADD PUSH2 0x232D JUMP JUMPDEST SWAP1 PUSH1 0x60 DUP8 ADD SWAP2 DUP3 MSTORE PUSH1 0x5 PUSH1 0x4 DUP8 ADD SLOAD SWAP7 PUSH1 0x80 DUP10 ADD SWAP8 DUP9 MSTORE ADD SLOAD SWAP5 DUP2 PUSH1 0xA0 DUP10 ADD SWAP6 PUSH1 0xFF DUP9 AND ISZERO ISZERO DUP8 MSTORE PUSH1 0xFF PUSH1 0xC0 DUP12 ADD SWAP9 PUSH1 0x8 SHR AND ISZERO ISZERO DUP9 MSTORE PUSH1 0x40 MLOAD SWAP11 DUP12 SWAP11 DUP2 DUP13 MSTORE MLOAD SWAP1 DUP12 ADD MSTORE MLOAD AND PUSH1 0x40 DUP10 ADD MSTORE MLOAD AND PUSH1 0x60 DUP8 ADD MSTORE MLOAD PUSH1 0xE0 PUSH1 0x80 DUP8 ADD MSTORE PUSH2 0x100 DUP7 ADD SWAP1 PUSH2 0x23F6 JUMP JUMPDEST SWAP3 MLOAD PUSH1 0xA0 DUP6 ADD MSTORE MLOAD ISZERO ISZERO PUSH1 0xC0 DUP5 ADD MSTORE MLOAD ISZERO ISZERO PUSH1 0xE0 DUP4 ADD MSTORE SUB SWAP1 RETURN JUMPDEST CALLVALUE PUSH2 0x275 JUMPI PUSH1 0x20 CALLDATASIZE PUSH1 0x3 NOT ADD SLT PUSH2 0x275 JUMPI PUSH1 0x4 CALLDATALOAD PUSH1 0x0 MSTORE PUSH1 0x3 PUSH1 0x20 MSTORE PUSH2 0xBB0 PUSH2 0xB9C PUSH1 0x2 PUSH1 0x40 PUSH1 0x0 KECCAK256 ADD PUSH2 0x232D JUMP JUMPDEST CALLVALUE PUSH2 0x275 JUMPI PUSH1 0x20 CALLDATASIZE PUSH1 0x3 NOT ADD SLT PUSH2 0x275 JUMPI PUSH1 0x4 CALLDATALOAD PUSH1 0x0 MSTORE PUSH1 0x3 PUSH1 0x20 MSTORE PUSH1 0x20 PUSH1 0x4 PUSH1 0x40 PUSH1 0x0 KECCAK256 ADD SLOAD PUSH1 0x40 MLOAD SWAP1 DUP2 MSTORE RETURN JUMPDEST CALLVALUE PUSH2 0x275 JUMPI PUSH1 0x20 CALLDATASIZE PUSH1 0x3 NOT ADD SLT PUSH2 0x275 JUMPI PUSH1 0x4 CALLDATALOAD PUSH1 0x0 MSTORE PUSH1 0x6 PUSH1 0x20 MSTORE PUSH1 0x40 PUSH1 0x0 KECCAK256 DUP1 SLOAD PUSH1 0x1 DUP1 PUSH1 0xA0 SHL SUB SWAP2 PUSH1 0xFF DUP4 PUSH1 0x1 DUP4 ADD SLOAD AND SWAP4 PUSH1 0x2 DUP4 ADD SLOAD AND PUSH2 0xFC5 PUSH2 0xF97 PUSH1 0x3 DUP6 ADD PUSH2 0x232D JUMP JUMPDEST PUSH1 0x5 PUSH1 0x4 DUP7 ADD SLOAD SWAP6 ADD SLOAD SWAP3 PUSH1 0x40 MLOAD SWAP8 DUP9 SWAP8 DUP9 MSTORE PUSH1 0x20 DUP9 ADD MSTORE PUSH1 0x40 DUP8 ADD MSTORE PUSH1 0xE0 PUSH1 0x60 DUP8 ADD MSTORE PUSH1 0xE0 DUP7 ADD SWAP1 PUSH2 0x23F6 JUMP JUMPDEST SWAP3 PUSH1 0x80 DUP6 ADD MSTORE DUP2 DUP2 AND ISZERO ISZERO PUSH1 0xA0 DUP6 ADD MSTORE PUSH1 0x8 SHR AND ISZERO ISZERO PUSH1 0xC0 DUP4 ADD MSTORE SUB SWAP1 RETURN JUMPDEST CALLVALUE PUSH2 0x275 JUMPI PUSH1 0x20 CALLDATASIZE PUSH1 0x3 NOT ADD SLT PUSH2 0x275 JUMPI PUSH1 0x4 CALLDATALOAD PUSH1 0x0 MSTORE PUSH1 0x3 PUSH1 0x20 MSTORE PUSH1 0x20 PUSH1 0xFF PUSH1 0xD PUSH1 0x40 PUSH1 0x0 KECCAK256 ADD SLOAD AND PUSH2 0x361 PUSH1 0x40 MLOAD DUP1 SWAP3 PUSH2 0x2428 JUMP JUMPDEST CALLVALUE PUSH2 0x275 JUMPI PUSH1 0x40 CALLDATASIZE PUSH1 0x3 NOT ADD SLT PUSH2 0x275 JUMPI PUSH2 0x1034 PUSH2 0x227D JUMP JUMPDEST CALLER PUSH1 0x1 PUSH1 0x1 PUSH1 0xA0 SHL SUB DUP3 AND SUB PUSH2 0x1050 JUMPI PUSH2 0x4CD SWAP1 PUSH1 0x4 CALLDATALOAD PUSH2 0x2769 JUMP JUMPDEST PUSH1 0x40 MLOAD PUSH3 0x461BCD PUSH1 0xE5 SHL DUP2 MSTORE PUSH1 0x20 PUSH1 0x4 DUP3 ADD MSTORE PUSH1 0x2F PUSH1 0x24 DUP3 ADD MSTORE PUSH32 0x416363657373436F6E74726F6C3A2063616E206F6E6C792072656E6F756E6365 PUSH1 0x44 DUP3 ADD MSTORE PUSH15 0x103937B632B9903337B91039B2B633 PUSH1 0x89 SHL PUSH1 0x64 DUP3 ADD MSTORE PUSH1 0x84 SWAP1 REVERT JUMPDEST CALLVALUE PUSH2 0x275 JUMPI PUSH1 0x40 CALLDATASIZE PUSH1 0x3 NOT ADD SLT PUSH2 0x275 JUMPI PUSH1 0x4 CALLDATALOAD PUSH2 0x10C9 PUSH2 0x227D JUMP JUMPDEST DUP2 PUSH1 0x0 MSTORE PUSH1 0x0 PUSH1 0x20 MSTORE PUSH2 0x10E3 PUSH1 0x1 PUSH1 0x40 PUSH1 0x0 KECCAK256 ADD SLOAD PUSH2 0x2435 JUMP JUMPDEST DUP2 PUSH1 0x0 MSTORE PUSH1 0x0 PUSH1 0x20 MSTORE PUSH1 0x40 PUSH1 0x0 KECCAK256 SWAP1 PUSH1 0x1 DUP1 PUSH1 0xA0 SHL SUB AND SWAP1 DUP2 PUSH1 0x0 MSTORE PUSH1 0x20 MSTORE PUSH1 0xFF PUSH1 0x40 PUSH1 0x0 KECCAK256 SLOAD AND ISZERO PUSH2 0x1112 JUMPI STOP JUMPDEST DUP2 PUSH1 0x0 MSTORE PUSH1 0x0 PUSH1 0x20 MSTORE PUSH1 0x40 PUSH1 0x0 KECCAK256 DUP2 PUSH1 0x0 MSTORE PUSH1 0x20 MSTORE PUSH1 0x40 PUSH1 0x0 KECCAK256 PUSH1 0x1 PUSH1 0xFF NOT DUP3 SLOAD AND OR SWAP1 SSTORE CALLER SWAP2 PUSH32 0x2F8788117E7EFF1D82E926EC794901D17C78024A50270940304540A733656F0D PUSH1 0x0 DUP1 LOG4 STOP JUMPDEST CALLVALUE PUSH2 0x275 JUMPI PUSH1 0x20 PUSH2 0x1173 PUSH2 0xCD3 CALLDATASIZE PUSH2 0x2293 JUMP JUMPDEST POP SLOAD PUSH1 0x40 MLOAD SWAP1 DUP2 MSTORE RETURN JUMPDEST CALLVALUE PUSH2 0x275 JUMPI PUSH1 0x20 CALLDATASIZE PUSH1 0x3 NOT ADD SLT PUSH2 0x275 JUMPI PUSH1 0x4 CALLDATALOAD PUSH1 0x0 SWAP1 DUP2 MSTORE PUSH1 0x3 PUSH1 0x20 MSTORE PUSH1 0x40 SWAP1 KECCAK256 DUP1 SLOAD PUSH1 0x1 DUP3 ADD SLOAD PUSH1 0x1 PUSH1 0x1 PUSH1 0xA0 SHL SUB AND SWAP2 PUSH2 0x11BC PUSH1 0x2 DUP3 ADD PUSH2 0x232D JUMP JUMPDEST PUSH2 0x11C8 PUSH1 0x3 DUP4 ADD PUSH2 0x232D JUMP JUMPDEST PUSH1 0x4 DUP4 ADD SLOAD PUSH1 0x5 DUP5 ADD SLOAD PUSH1 0x6 DUP6 ADD SLOAD PUSH1 0x7 DUP7 ADD SLOAD PUSH1 0x8 DUP8 ADD SLOAD PUSH1 0x9 DUP9 ADD SLOAD PUSH1 0xA DUP10 ADD SLOAD PUSH1 0xB DUP11 ADD SLOAD SWAP7 SWAP8 SWAP1 SWAP6 SWAP2 SWAP5 SWAP3 SWAP4 PUSH1 0x1 PUSH1 0x1 PUSH1 0xA0 SHL SUB SWAP1 DUP2 AND SWAP4 AND SWAP2 SWAP1 PUSH2 0x1213 PUSH1 0xC DUP13 ADD PUSH2 0x232D JUMP JUMPDEST SWAP10 PUSH1 0xD DUP13 ADD SLOAD PUSH1 0xFF AND SWAP14 PUSH1 0xE DUP14 ADD SLOAD SWAP13 PUSH1 0xF ADD SLOAD SWAP14 PUSH1 0x40 MLOAD DUP1 PUSH1 0x80 MSTORE MSTORE PUSH1 0x80 MLOAD PUSH1 0x20 ADD MSTORE PUSH2 0x220 DUP1 PUSH1 0x80 MLOAD PUSH1 0x40 ADD MSTORE PUSH1 0x80 MLOAD ADD PUSH2 0x124F SWAP2 PUSH2 0x23F6 JUMP JUMPDEST PUSH1 0x80 MLOAD DUP1 DUP3 SUB SWAP1 PUSH1 0x60 ADD MSTORE PUSH2 0x1263 SWAP2 PUSH2 0x23F6 JUMP JUMPDEST SWAP8 PUSH1 0x80 MLOAD PUSH1 0x80 ADD MSTORE PUSH1 0x80 MLOAD PUSH1 0xA0 ADD MSTORE PUSH1 0x80 MLOAD PUSH1 0xC0 ADD MSTORE PUSH1 0x80 MLOAD PUSH1 0xE0 ADD MSTORE PUSH1 0x1 PUSH1 0xA0 SHL PUSH1 0x1 SWAP1 SUB DUP2 AND PUSH1 0x80 MLOAD PUSH2 0x100 ADD MSTORE PUSH1 0x80 MLOAD PUSH2 0x120 ADD SWAP1 PUSH1 0xA0 SHR PUSH1 0xFF AND SWAP1 PUSH2 0x12AB SWAP2 PUSH2 0x241B JUMP JUMPDEST PUSH1 0x80 MLOAD PUSH2 0x140 ADD MSTORE PUSH1 0x80 MLOAD PUSH2 0x160 ADD MSTORE PUSH1 0x80 MLOAD PUSH2 0x180 ADD MSTORE PUSH1 0x80 MLOAD DUP1 DUP3 SUB SWAP1 PUSH2 0x1A0 ADD MSTORE PUSH2 0x12D8 SWAP2 PUSH2 0x23F6 JUMP JUMPDEST SWAP3 PUSH1 0x80 MLOAD PUSH2 0x1C0 ADD PUSH2 0x12E9 SWAP2 PUSH2 0x2428 JUMP JUMPDEST PUSH1 0x80 MLOAD PUSH2 0x1E0 ADD MSTORE PUSH1 0x80 MLOAD PUSH2 0x200 ADD MSTORE PUSH1 0x80 MLOAD DUP1 SWAP2 SUB SWAP1 RETURN JUMPDEST CALLVALUE PUSH2 0x275 JUMPI PUSH1 0x40 CALLDATASIZE PUSH1 0x3 NOT ADD SLT PUSH2 0x275 JUMPI PUSH2 0x131B PUSH2 0x2267 JUMP JUMPDEST PUSH1 0x1 PUSH1 0x1 PUSH1 0xA0 SHL SUB AND PUSH1 0x0 SWAP1 DUP2 MSTORE PUSH1 0x7 PUSH1 0x20 MSTORE PUSH1 0x40 SWAP1 KECCAK256 DUP1 SLOAD PUSH1 0x24 CALLDATALOAD SWAP2 SWAP1 DUP3 LT ISZERO PUSH2 0x275 JUMPI PUSH1 0x20 SWAP2 PUSH2 0x134C SWAP2 PUSH2 0x22DB JUMP JUMPDEST SWAP1 SLOAD PUSH1 0x40 MLOAD SWAP2 PUSH1 0x3 SHL SHR DUP2 MSTORE RETURN JUMPDEST CALLVALUE PUSH2 0x275 JUMPI PUSH1 0x20 CALLDATASIZE PUSH1 0x3 NOT ADD SLT PUSH2 0x275 JUMPI PUSH1 0x4 CALLDATALOAD PUSH1 0x0 MSTORE PUSH1 0x0 PUSH1 0x20 MSTORE PUSH1 0x20 PUSH1 0x1 PUSH1 0x40 PUSH1 0x0 KECCAK256 ADD SLOAD PUSH1 0x40 MLOAD SWAP1 DUP2 MSTORE RETURN JUMPDEST CALLVALUE PUSH2 0x275 JUMPI PUSH1 0x20 CALLDATASIZE PUSH1 0x3 NOT ADD SLT PUSH2 0x275 JUMPI PUSH1 0x4 CALLDATALOAD PUSH1 0x0 MSTORE PUSH1 0x3 PUSH1 0x20 MSTORE PUSH1 0x20 PUSH1 0x1 DUP1 PUSH1 0xA0 SHL SUB PUSH1 0x6 PUSH1 0x40 PUSH1 0x0 KECCAK256 ADD SLOAD AND PUSH1 0x40 MLOAD SWAP1 DUP2 MSTORE RETURN JUMPDEST CALLVALUE PUSH2 0x275 JUMPI PUSH1 0x20 CALLDATASIZE PUSH1 0x3 NOT ADD SLT PUSH2 0x275 JUMPI PUSH1 0x4 CALLDATALOAD PUSH1 0x0 MSTORE PUSH1 0x3 PUSH1 0x20 MSTORE PUSH1 0x20 PUSH1 0x1 DUP1 PUSH1 0xA0 SHL SUB PUSH1 0x7 PUSH1 0x40 PUSH1 0x0 KECCAK256 ADD SLOAD AND PUSH1 0x40 MLOAD SWAP1 DUP2 MSTORE RETURN JUMPDEST CALLVALUE PUSH2 0x275 JUMPI PUSH1 0x20 DUP1 PUSH1 0x3 NOT CALLDATASIZE ADD SLT PUSH2 0x275 JUMPI PUSH1 0x4 CALLDATALOAD PUSH1 0x1 PUSH1 0x1 PUSH1 0x40 SHL SUB DUP2 GT PUSH2 0x275 JUMPI PUSH2 0x1428 SWAP1 CALLDATASIZE SWAP1 PUSH1 0x4 ADD PUSH2 0x2249 JUMP JUMPDEST DUP1 MLOAD PUSH32 0x72D66193FF00A845B4AED5F27E02D9B558EF32BE1495A41D00C5C5FB191A0763 DUP4 DUP4 ADD SWAP2 DUP3 KECCAK256 PUSH8 0x1213D4D412551053 PUSH1 0xC2 SHL DUP6 PUSH1 0x40 MLOAD PUSH2 0x146A DUP2 PUSH2 0x21C7 JUMP JUMPDEST PUSH1 0x8 DUP2 MSTORE ADD MSTORE SUB PUSH2 0x1562 JUMPI POP PUSH2 0x150B PUSH32 0x6D9FAC1782B03778AD5AA47A795806DF6BA72E0B6D87312CC52C8D431E87E676 SWAP2 PUSH32 0xC8F5B4140CCA307CD927E59CBEEA8291BFFEEE228FC677F0FA059AEF7B4DD8D5 DUP1 PUSH1 0x0 MSTORE PUSH1 0x0 DUP6 MSTORE PUSH1 0x40 PUSH1 0x0 KECCAK256 CALLER PUSH1 0x0 MSTORE DUP6 MSTORE PUSH1 0xFF PUSH1 0x40 PUSH1 0x0 KECCAK256 SLOAD AND ISZERO PUSH2 0x1510 JUMPI JUMPDEST POP JUMPDEST CALLER PUSH1 0x0 MSTORE PUSH1 0x5 DUP5 MSTORE PUSH1 0x40 PUSH1 0x0 KECCAK256 PUSH1 0x1 PUSH1 0xFF NOT DUP3 SLOAD AND OR SWAP1 SSTORE PUSH1 0x40 MLOAD SWAP2 DUP3 SWAP2 DUP6 DUP4 MSTORE CALLER SWAP6 DUP4 ADD SWAP1 PUSH2 0x23F6 JUMP JUMPDEST SUB SWAP1 LOG2 STOP JUMPDEST DUP1 PUSH1 0x0 MSTORE PUSH1 0x0 DUP6 MSTORE PUSH1 0x40 PUSH1 0x0 KECCAK256 CALLER PUSH1 0x0 MSTORE DUP6 MSTORE PUSH1 0x40 PUSH1 0x0 KECCAK256 PUSH1 0x1 PUSH1 0xFF NOT DUP3 SLOAD AND OR SWAP1 SSTORE CALLER SWAP1 CALLER SWAP1 PUSH32 0x2F8788117E7EFF1D82E926EC794901D17C78024A50270940304540A733656F0D PUSH1 0x0 DUP1 LOG4 DUP5 PUSH2 0x14DE JUMP JUMPDEST PUSH32 0x6D960D3AADA907633A701143A0C8A0657B9ED1E77B6D2D8B56E5D8813982E10C DUP3 MLOAD DUP3 KECCAK256 PUSH8 0x504841524D414359 PUSH1 0xC0 SHL DUP6 PUSH1 0x40 MLOAD PUSH2 0x15A0 DUP2 PUSH2 0x21C7 JUMP JUMPDEST PUSH1 0x8 DUP2 MSTORE ADD MSTORE SUB PUSH2 0x166C JUMPI POP PUSH2 0x150B PUSH32 0x6D9FAC1782B03778AD5AA47A795806DF6BA72E0B6D87312CC52C8D431E87E676 SWAP2 PUSH32 0x2F3A5455F35AECA177AC653592F277FBE2FBAFEF01081A2030451BB2FB41C91D DUP1 PUSH1 0x0 MSTORE PUSH1 0x0 DUP6 MSTORE PUSH1 0x40 PUSH1 0x0 KECCAK256 CALLER PUSH1 0x0 MSTORE DUP6 MSTORE PUSH1 0xFF PUSH1 0x40 PUSH1 0x0 KECCAK256 SLOAD AND ISZERO PUSH2 0x161A JUMPI JUMPDEST POP PUSH2 0x14E0 JUMP JUMPDEST DUP1 PUSH1 0x0 MSTORE PUSH1 0x0 DUP6 MSTORE PUSH1 0x40 PUSH1 0x0 KECCAK256 CALLER PUSH1 0x0 MSTORE DUP6 MSTORE PUSH1 0x40 PUSH1 0x0 KECCAK256 PUSH1 0x1 PUSH1 0xFF NOT DUP3 SLOAD AND OR SWAP1 SSTORE CALLER SWAP1 CALLER SWAP1 PUSH32 0x2F8788117E7EFF1D82E926EC794901D17C78024A50270940304540A733656F0D PUSH1 0x0 DUP1 LOG4 DUP5 PUSH2 0x1614 JUMP JUMPDEST PUSH32 0x85FACED7BDE13E1A7DAD704B895F006E704F207617D68166B31BA2D79624862D SWAP1 DUP3 MLOAD SWAP1 KECCAK256 PUSH11 0x2224A9AA2924A12AAA27A9 PUSH1 0xA9 SHL DUP5 PUSH1 0x40 MLOAD PUSH2 0x16AE DUP2 PUSH2 0x21C7 JUMP JUMPDEST PUSH1 0xB DUP2 MSTORE ADD MSTORE SUB PUSH2 0x1726 JUMPI PUSH2 0x150B PUSH32 0x6D9FAC1782B03778AD5AA47A795806DF6BA72E0B6D87312CC52C8D431E87E676 SWAP2 PUSH32 0xFBD454F36A7E1A388BD6FC3AB10D434AA4578F811ACBBCF33AFB1C697486313C DUP1 PUSH1 0x0 MSTORE PUSH1 0x0 DUP6 MSTORE PUSH1 0x40 PUSH1 0x0 KECCAK256 CALLER PUSH1 0x0 MSTORE DUP6 MSTORE PUSH1 0xFF PUSH1 0x40 PUSH1 0x0 KECCAK256 SLOAD AND ISZERO PUSH2 0x161A JUMPI POP PUSH2 0x14E0 JUMP JUMPDEST PUSH1 0x40 MLOAD PUSH3 0x461BCD PUSH1 0xE5 SHL DUP2 MSTORE PUSH1 0x4 DUP2 ADD DUP4 SWAP1 MSTORE PUSH1 0xC PUSH1 0x24 DUP3 ADD MSTORE PUSH12 0x496E76616C696420726F6C65 PUSH1 0xA0 SHL PUSH1 0x44 DUP3 ADD MSTORE PUSH1 0x64 SWAP1 REVERT JUMPDEST CALLVALUE PUSH2 0x275 JUMPI PUSH2 0x1768 CALLDATASIZE PUSH2 0x2293 JUMP JUMPDEST SWAP1 PUSH1 0x0 MSTORE PUSH1 0x4 PUSH1 0x20 MSTORE PUSH1 0x40 PUSH1 0x0 KECCAK256 DUP1 SLOAD DUP3 LT ISZERO PUSH2 0x275 JUMPI PUSH1 0x60 SWAP2 PUSH2 0x178B SWAP2 PUSH2 0x22A9 JUMP JUMPDEST POP DUP1 SLOAD SWAP1 PUSH1 0x1 DUP2 ADD SLOAD SWAP1 PUSH1 0x2 PUSH1 0x1 DUP1 PUSH1 0xA0 SHL SUB SWAP2 ADD SLOAD AND SWAP1 PUSH1 0x40 MLOAD SWAP3 DUP4 MSTORE PUSH1 0x20 DUP4 ADD MSTORE PUSH1 0x40 DUP3 ADD MSTORE RETURN JUMPDEST CALLVALUE PUSH2 0x275 JUMPI PUSH1 0x20 CALLDATASIZE PUSH1 0x3 NOT ADD SLT PUSH2 0x275 JUMPI PUSH1 0x4 CALLDATALOAD PUSH1 0x0 MSTORE PUSH1 0x3 PUSH1 0x20 MSTORE PUSH1 0x20 PUSH1 0xA PUSH1 0x40 PUSH1 0x0 KECCAK256 ADD SLOAD PUSH1 0x40 MLOAD SWAP1 DUP2 MSTORE RETURN JUMPDEST CALLVALUE PUSH2 0x275 JUMPI PUSH1 0x40 CALLDATASIZE PUSH1 0x3 NOT ADD SLT PUSH2 0x275 JUMPI PUSH1 0x4 CALLDATALOAD PUSH1 0x24 CALLDATALOAD DUP1 ISZERO ISZERO DUP2 SUB PUSH2 0x275 JUMPI PUSH1 0x0 DUP3 DUP2 MSTORE PUSH1 0x3 PUSH1 0x20 MSTORE PUSH1 0x40 SWAP1 KECCAK256 PUSH1 0x7 DUP2 ADD SLOAD PUSH1 0x1 PUSH1 0x1 PUSH1 0xA0 SHL SUB AND CALLER SUB PUSH2 0x18E4 JUMPI PUSH1 0x8 ADD DUP1 SLOAD SWAP2 PUSH1 0xFF DUP4 PUSH1 0xA0 SHR AND PUSH1 0x5 DUP2 LT ISZERO PUSH2 0x433 JUMPI PUSH1 0x2 SUB PUSH2 0x18AF JUMPI ISZERO PUSH2 0x18A7 JUMPI PUSH1 0x3 SWAP2 JUMPDEST PUSH1 0x5 DUP4 LT ISZERO PUSH2 0x433 JUMPI PUSH1 0xFF PUSH1 0xA0 SHL NOT AND PUSH1 0xA0 SWAP3 DUP4 SHL PUSH1 0xFF PUSH1 0xA0 SHL AND OR SWAP1 DUP2 SWAP1 SSTORE PUSH1 0x40 MLOAD PUSH32 0x8E16B4336DC88D11F2B19383604580B7FC6349DF052BC9232D52CE1A40DF6C4D SWAP3 PUSH1 0x20 SWAP3 PUSH2 0x18A4 SWAP2 DUP4 SWAP2 SWAP1 SHR PUSH1 0xFF AND PUSH2 0x241B JUMP JUMPDEST LOG2 STOP JUMPDEST PUSH1 0x4 SWAP2 PUSH2 0x184C JUMP JUMPDEST PUSH1 0x40 MLOAD PUSH3 0x461BCD PUSH1 0xE5 SHL DUP2 MSTORE PUSH1 0x20 PUSH1 0x4 DUP3 ADD MSTORE PUSH1 0xD PUSH1 0x24 DUP3 ADD MSTORE PUSH13 0x139BDD0819195B1A5D995C9959 PUSH1 0x9A SHL PUSH1 0x44 DUP3 ADD MSTORE PUSH1 0x64 SWAP1 REVERT JUMPDEST PUSH1 0x40 MLOAD PUSH3 0x461BCD PUSH1 0xE5 SHL DUP2 MSTORE PUSH1 0x20 PUSH1 0x4 DUP3 ADD MSTORE PUSH1 0xC PUSH1 0x24 DUP3 ADD MSTORE PUSH12 0x2737BA103932B1B2B4BB32B9 PUSH1 0xA1 SHL PUSH1 0x44 DUP3 ADD MSTORE PUSH1 0x64 SWAP1 REVERT JUMPDEST CALLVALUE PUSH2 0x275 JUMPI PUSH1 0x40 CALLDATASIZE PUSH1 0x3 NOT ADD SLT PUSH2 0x275 JUMPI PUSH1 0x4 CALLDATALOAD PUSH1 0x24 CALLDATALOAD PUSH1 0x1 PUSH1 0x1 PUSH1 0x40 SHL SUB DUP2 GT PUSH2 0x275 JUMPI CALLDATASIZE PUSH1 0x23 DUP3 ADD SLT ISZERO PUSH2 0x275 JUMPI PUSH2 0x195C SWAP1 CALLDATASIZE SWAP1 PUSH1 0x24 DUP2 PUSH1 0x4 ADD CALLDATALOAD SWAP2 ADD PUSH2 0x2203 JUMP JUMPDEST SWAP1 DUP1 PUSH1 0x0 MSTORE PUSH1 0x6 PUSH1 0x20 MSTORE PUSH1 0x5 PUSH1 0x40 PUSH1 0x0 KECCAK256 PUSH2 0x1984 PUSH1 0x1 DUP1 PUSH1 0xA0 SHL SUB PUSH1 0x2 DUP4 ADD SLOAD AND CALLER EQ PUSH2 0x27EE JUMP JUMPDEST ADD PUSH1 0x1 DUP2 SLOAD PUSH1 0xFF DUP2 AND ISZERO DUP1 PUSH2 0x1A03 JUMPI JUMPDEST PUSH2 0x199D SWAP1 PUSH2 0x28A5 JUMP JUMPDEST PUSH1 0xFF NOT AND OR SWAP1 SSTORE DUP1 PUSH1 0x0 MSTORE PUSH1 0x3 PUSH1 0x20 MSTORE PUSH1 0x8 PUSH1 0x40 PUSH1 0x0 KECCAK256 ADD PUSH1 0x1 PUSH1 0xA0 SHL PUSH1 0xFF PUSH1 0xA0 SHL NOT DUP3 SLOAD AND OR SWAP1 SSTORE PUSH32 0xABF68E743CE656B721632E8C4DE24D9205982F23C03B2C79A67A494F0FAB1FCF PUSH1 0x40 MLOAD PUSH1 0x20 DUP2 MSTORE DUP1 PUSH2 0x19FE CALLER SWAP6 PUSH1 0x20 DUP4 ADD SWAP1 PUSH2 0x23F6 JUMP JUMPDEST SUB SWAP1 LOG3 STOP JUMPDEST POP PUSH1 0x8 DUP2 SWAP1 SHR PUSH1 0xFF AND ISZERO PUSH2 0x1994 JUMP JUMPDEST CALLVALUE PUSH2 0x275 JUMPI PUSH1 0x20 CALLDATASIZE PUSH1 0x3 NOT ADD SLT PUSH2 0x275 JUMPI PUSH1 0x4 CALLDATALOAD DUP1 PUSH1 0x0 MSTORE PUSH1 0x3 PUSH1 0x20 MSTORE PUSH1 0x40 PUSH1 0x0 KECCAK256 PUSH2 0x1A4B PUSH1 0x1 DUP1 PUSH1 0xA0 SHL SUB PUSH1 0x1 DUP4 ADD SLOAD AND CALLER EQ PUSH2 0x27EE JUMP JUMPDEST PUSH1 0x8 DUP2 ADD DUP1 SLOAD PUSH1 0xFF DUP2 PUSH1 0xA0 SHR AND PUSH1 0x5 DUP2 LT ISZERO PUSH2 0x433 JUMPI PUSH2 0x1A6B SWAP1 ISZERO PUSH2 0x282B JUMP JUMPDEST PUSH1 0xFF PUSH1 0xA0 SHL NOT AND PUSH1 0x1 PUSH1 0xA0 SHL OR SWAP1 SSTORE TIMESTAMP PUSH1 0xF SWAP2 SWAP1 SWAP2 ADD SSTORE PUSH1 0x40 MLOAD PUSH1 0x1 DUP2 MSTORE PUSH32 0x8E16B4336DC88D11F2B19383604580B7FC6349DF052BC9232D52CE1A40DF6C4D SWAP1 PUSH1 0x20 SWAP1 LOG2 STOP JUMPDEST CALLVALUE PUSH2 0x275 JUMPI PUSH1 0x20 CALLDATASIZE PUSH1 0x3 NOT ADD SLT PUSH2 0x275 JUMPI PUSH1 0x1 PUSH1 0x1 PUSH1 0xA0 SHL SUB PUSH2 0x1AD2 PUSH2 0x2267 JUMP JUMPDEST AND PUSH1 0x0 MSTORE PUSH1 0x5 PUSH1 0x20 MSTORE PUSH1 0x20 PUSH1 0xFF PUSH1 0x40 PUSH1 0x0 KECCAK256 SLOAD AND PUSH1 0x40 MLOAD SWAP1 ISZERO ISZERO DUP2 MSTORE RETURN JUMPDEST CALLVALUE PUSH2 0x275 JUMPI PUSH1 0x40 CALLDATASIZE PUSH1 0x3 NOT ADD SLT PUSH2 0x275 JUMPI PUSH1 0x1 PUSH1 0x1 PUSH1 0x40 SHL SUB PUSH1 0x4 CALLDATALOAD PUSH1 0x24 CALLDATALOAD DUP3 DUP2 GT PUSH2 0x275 JUMPI PUSH2 0x1B24 SWAP1 CALLDATASIZE SWAP1 PUSH1 0x4 ADD PUSH2 0x2249 JUMP JUMPDEST DUP2 PUSH1 0x0 MSTORE PUSH1 0x20 PUSH1 0x3 DUP2 MSTORE PUSH1 0x40 PUSH1 0x0 KECCAK256 SWAP4 PUSH1 0xC PUSH1 0x1 SWAP6 PUSH1 0x1 DUP1 PUSH1 0xA0 SHL SUB DUP8 DUP3 ADD SLOAD AND CALLER EQ DUP1 ISZERO PUSH2 0x1CA9 JUMPI JUMPDEST PUSH2 0x1B57 SWAP1 PUSH2 0x27EE JUMP JUMPDEST ADD SWAP1 DUP4 MLOAD SWAP1 DUP2 GT PUSH2 0x74A JUMPI PUSH2 0x1B6C DUP3 SLOAD PUSH2 0x22F3 JUMP JUMPDEST PUSH1 0x1F DUP2 GT PUSH2 0x1C60 JUMPI JUMPDEST POP DUP3 SWAP6 PUSH1 0x1F DUP3 GT PUSH1 0x1 EQ PUSH2 0x1BE1 JUMPI DUP2 DUP1 SWAP2 PUSH32 0xE06FE6F03D15D1888CA418161D788CA6BA89914FF3B86D1D61A43C9EFB4892CA SWAP8 SWAP9 PUSH1 0x0 SWAP4 PUSH2 0x1BD6 JUMPI JUMPDEST POP SHL SWAP2 PUSH1 0x0 NOT SWAP1 PUSH1 0x3 SHL SHR NOT AND OR SWAP1 SSTORE JUMPDEST PUSH2 0x150B PUSH1 0x40 MLOAD SWAP3 DUP3 DUP5 SWAP4 DUP5 MSTORE DUP4 ADD SWAP1 PUSH2 0x23F6 JUMP JUMPDEST DUP8 ADD MLOAD SWAP3 POP DUP10 PUSH2 0x1BB1 JUMP JUMPDEST SWAP1 PUSH1 0x1F NOT DUP2 AND SWAP7 DUP4 PUSH1 0x0 MSTORE DUP5 PUSH1 0x0 KECCAK256 SWAP1 PUSH1 0x0 JUMPDEST DUP10 DUP2 LT PUSH2 0x1C4B JUMPI POP DUP3 PUSH32 0xE06FE6F03D15D1888CA418161D788CA6BA89914FF3B86D1D61A43C9EFB4892CA SWAP9 SWAP10 LT PUSH2 0x1C32 JUMPI JUMPDEST POP POP DUP2 SHL ADD SWAP1 SSTORE PUSH2 0x1BC2 JUMP JUMPDEST DUP7 ADD MLOAD PUSH1 0x0 NOT PUSH1 0xF8 DUP5 PUSH1 0x3 SHL AND SHR NOT AND SWAP1 SSTORE DUP8 DUP1 PUSH2 0x1C26 JUMP JUMPDEST DUP8 DUP3 ADD MLOAD DUP4 SSTORE SWAP2 DUP5 ADD SWAP2 SWAP1 DUP7 ADD SWAP1 DUP7 ADD PUSH2 0x1BF4 JUMP JUMPDEST DUP3 PUSH1 0x0 MSTORE DUP4 PUSH1 0x0 KECCAK256 PUSH1 0x1F DUP4 ADD PUSH1 0x5 SHR DUP2 ADD SWAP2 DUP6 DUP5 LT PUSH2 0x1C9F JUMPI JUMPDEST PUSH1 0x1F ADD PUSH1 0x5 SHR ADD SWAP1 DUP8 SWAP1 JUMPDEST DUP3 DUP2 LT PUSH2 0x1C93 JUMPI POP POP PUSH2 0x1B75 JUMP JUMPDEST PUSH1 0x0 DUP2 SSTORE ADD DUP8 SWAP1 PUSH2 0x1C85 JUMP JUMPDEST SWAP1 SWAP2 POP DUP2 SWAP1 PUSH2 0x1C7A JUMP JUMPDEST POP PUSH32 0xC7AD0CCE645D8882D9E3736F60B0FFDAECE940015E673E73A905D480AD0E1C18 PUSH1 0x0 SWAP1 DUP2 MSTORE DUP1 DUP6 MSTORE PUSH1 0x40 DUP1 DUP3 KECCAK256 CALLER DUP4 MSTORE DUP7 MSTORE SWAP1 KECCAK256 SLOAD PUSH1 0xFF AND PUSH2 0x1B4E JUMP JUMPDEST CALLVALUE PUSH2 0x275 JUMPI PUSH1 0xC0 CALLDATASIZE PUSH1 0x3 NOT ADD SLT PUSH2 0x275 JUMPI PUSH1 0x4 CALLDATALOAD PUSH1 0x1 PUSH1 0x1 PUSH1 0x40 SHL SUB DUP2 GT PUSH2 0x275 JUMPI PUSH2 0x1D18 SWAP1 CALLDATASIZE SWAP1 PUSH1 0x4 ADD PUSH2 0x2249 JUMP JUMPDEST PUSH1 0x24 CALLDATALOAD PUSH1 0x1 PUSH1 0x1 PUSH1 0x40 SHL SUB DUP2 GT PUSH2 0x275 JUMPI PUSH2 0x1D37 SWAP1 CALLDATASIZE SWAP1 PUSH1 0x4 ADD PUSH2 0x2249 JUMP JUMPDEST SWAP1 PUSH1 0x84 CALLDATALOAD SWAP1 PUSH1 0x1 PUSH1 0x1 PUSH1 0xA0 SHL SUB DUP3 AND DUP3 SUB PUSH2 0x275 JUMPI CALLER PUSH1 0x0 MSTORE PUSH1 0x5 PUSH1 0x20 MSTORE PUSH1 0xFF PUSH1 0x40 PUSH1 0x0 KECCAK256 SLOAD AND ISZERO PUSH2 0x2114 JUMPI PUSH1 0x1 PUSH1 0x1 PUSH1 0xA0 SHL SUB DUP3 AND ISZERO PUSH2 0x20DC JUMPI TIMESTAMP PUSH1 0xA4 CALLDATALOAD GT ISZERO PUSH2 0x209F JUMPI PUSH1 0x1 PUSH1 0x2 SLOAD ADD SWAP2 DUP3 PUSH1 0x2 SSTORE DUP3 PUSH1 0x0 MSTORE PUSH1 0x3 PUSH1 0x20 MSTORE PUSH1 0x40 PUSH1 0x0 KECCAK256 SWAP1 DUP4 DUP3 SSTORE PUSH1 0x1 DUP3 ADD CALLER PUSH1 0x1 PUSH1 0x1 PUSH1 0x60 SHL SUB PUSH1 0xA0 SHL DUP3 SLOAD AND OR SWAP1 SSTORE DUP3 MLOAD PUSH1 0x1 PUSH1 0x1 PUSH1 0x40 SHL SUB DUP2 GT PUSH2 0x74A JUMPI PUSH2 0x1DCC PUSH1 0x2 DUP5 ADD SLOAD PUSH2 0x22F3 JUMP JUMPDEST PUSH1 0x1F DUP2 GT PUSH2 0x2058 JUMPI JUMPDEST POP DUP1 PUSH1 0x20 PUSH1 0x1F DUP3 GT PUSH1 0x1 EQ PUSH2 0x1FEB JUMPI PUSH1 0x0 SWAP2 PUSH2 0x1FE0 JUMPI JUMPDEST POP DUP2 PUSH1 0x1 SHL SWAP2 PUSH1 0x0 NOT SWAP1 PUSH1 0x3 SHL SHR NOT AND OR PUSH1 0x2 DUP4 ADD SSTORE JUMPDEST DUP5 MLOAD PUSH1 0x1 PUSH1 0x1 PUSH1 0x40 SHL SUB DUP2 GT PUSH2 0x74A JUMPI PUSH2 0x1E20 PUSH1 0x3 DUP5 ADD SLOAD PUSH2 0x22F3 JUMP JUMPDEST PUSH1 0x1F DUP2 GT PUSH2 0x1F99 JUMPI JUMPDEST POP DUP1 PUSH1 0x20 SWAP7 DUP8 SWAP1 PUSH1 0x1F DUP4 GT PUSH1 0x1 EQ PUSH2 0x1F2E JUMPI PUSH1 0x0 SWAP3 PUSH2 0x1F23 JUMPI JUMPDEST POP POP DUP2 PUSH1 0x1 SHL SWAP2 PUSH1 0x0 NOT SWAP1 PUSH1 0x3 SHL SHR NOT AND OR PUSH1 0x3 DUP4 ADD SSTORE JUMPDEST PUSH1 0x44 CALLDATALOAD PUSH1 0x4 DUP4 ADD SSTORE PUSH1 0x64 CALLDATALOAD PUSH1 0x5 DUP4 ADD SSTORE PUSH1 0x6 DUP3 ADD CALLER PUSH1 0x1 PUSH1 0x1 PUSH1 0x60 SHL SUB PUSH1 0xA0 SHL DUP3 SLOAD AND OR SWAP1 SSTORE PUSH1 0x7 DUP3 ADD SWAP1 PUSH1 0x1 DUP1 PUSH1 0xA0 SHL SUB AND PUSH1 0x1 PUSH1 0x1 PUSH1 0x60 SHL SUB PUSH1 0xA0 SHL DUP3 SLOAD AND OR SWAP1 SSTORE PUSH1 0x8 DUP2 ADD DUP1 SLOAD PUSH1 0xFF PUSH1 0xA0 SHL NOT CALLER AND SWAP1 PUSH11 0xFFFFFFFFFFFFFFFFFFFFFF PUSH1 0xA8 SHL AND OR SWAP1 SSTORE TIMESTAMP PUSH1 0x9 DUP3 ADD SSTORE PUSH1 0xA4 CALLDATALOAD PUSH1 0xA DUP3 ADD SSTORE PUSH1 0xD DUP2 ADD PUSH1 0xFF NOT DUP2 SLOAD AND SWAP1 SSTORE PUSH1 0xF TIMESTAMP SWAP2 ADD SSTORE DUP2 PUSH32 0x8C9BDF27BA84A24E737F3E4E480CA9C515FE7B7510F351AEE254DB99CCB9F471 PUSH1 0x40 MLOAD DUP6 DUP2 MSTORE DUP1 PUSH2 0x1F18 CALLER SWAP6 DUP9 DUP4 ADD SWAP1 PUSH2 0x23F6 JUMP JUMPDEST SUB SWAP1 LOG3 PUSH1 0x40 MLOAD SWAP1 DUP2 MSTORE RETURN JUMPDEST ADD MLOAD SWAP1 POP DUP8 DUP1 PUSH2 0x1E43 JUMP JUMPDEST PUSH1 0x3 DUP7 ADD PUSH1 0x0 SWAP1 DUP2 MSTORE DUP10 DUP2 KECCAK256 SWAP4 POP PUSH1 0x1F NOT DUP6 AND SWAP1 JUMPDEST DUP2 DUP2 LT PUSH2 0x1F82 JUMPI POP SWAP1 DUP5 PUSH1 0x1 SWAP6 SWAP5 SWAP4 SWAP3 LT PUSH2 0x1F69 JUMPI JUMPDEST POP POP POP DUP2 SHL ADD PUSH1 0x3 DUP4 ADD SSTORE PUSH2 0x1E5B JUMP JUMPDEST ADD MLOAD PUSH1 0x0 NOT PUSH1 0xF8 DUP5 PUSH1 0x3 SHL AND SHR NOT AND SWAP1 SSTORE DUP8 DUP1 DUP1 PUSH2 0x1F59 JUMP JUMPDEST SWAP3 SWAP4 DUP11 PUSH1 0x1 DUP2 SWAP3 DUP8 DUP7 ADD MLOAD DUP2 SSTORE ADD SWAP6 ADD SWAP4 ADD PUSH2 0x1F43 JUMP JUMPDEST PUSH1 0x3 DUP5 ADD PUSH1 0x0 MSTORE PUSH1 0x20 PUSH1 0x0 KECCAK256 PUSH1 0x1F DUP4 ADD PUSH1 0x5 SHR DUP2 ADD PUSH1 0x20 DUP5 LT PUSH2 0x1FD9 JUMPI JUMPDEST PUSH1 0x1F DUP4 ADD PUSH1 0x5 SHR DUP3 ADD DUP2 LT PUSH2 0x1FCD JUMPI POP POP PUSH2 0x1E29 JUMP JUMPDEST PUSH1 0x0 DUP2 SSTORE PUSH1 0x1 ADD PUSH2 0x1FB7 JUMP JUMPDEST POP DUP1 PUSH2 0x1FB7 JUMP JUMPDEST SWAP1 POP DUP5 ADD MLOAD DUP8 PUSH2 0x1DEC JUMP JUMPDEST SWAP2 POP PUSH1 0x2 DUP5 ADD PUSH1 0x0 MSTORE PUSH1 0x20 PUSH1 0x0 KECCAK256 PUSH1 0x0 SWAP3 JUMPDEST PUSH1 0x1F NOT DUP4 AND DUP5 LT PUSH2 0x2040 JUMPI PUSH1 0x1 SWAP4 POP DUP3 PUSH1 0x1F NOT DUP2 AND LT PUSH2 0x2027 JUMPI JUMPDEST POP POP DUP2 SHL ADD PUSH1 0x2 DUP4 ADD SSTORE PUSH2 0x1E03 JUMP JUMPDEST DUP7 ADD MLOAD PUSH1 0x0 NOT PUSH1 0xF8 DUP5 PUSH1 0x3 SHL AND SHR NOT AND SWAP1 SSTORE DUP8 DUP1 PUSH2 0x2018 JUMP JUMPDEST DUP7 DUP2 ADD MLOAD DUP3 SSTORE PUSH1 0x20 SWAP4 DUP5 ADD SWAP4 PUSH1 0x1 SWAP1 SWAP3 ADD SWAP2 ADD PUSH2 0x1FFD JUMP JUMPDEST PUSH1 0x2 DUP5 ADD PUSH1 0x0 MSTORE PUSH1 0x20 PUSH1 0x0 KECCAK256 PUSH1 0x1F DUP4 ADD PUSH1 0x5 SHR DUP2 ADD PUSH1 0x20 DUP5 LT PUSH2 0x2098 JUMPI JUMPDEST PUSH1 0x1F DUP4 ADD PUSH1 0x5 SHR DUP3 ADD DUP2 LT PUSH2 0x208C JUMPI POP POP PUSH2 0x1DD5 JUMP JUMPDEST PUSH1 0x0 DUP2 SSTORE PUSH1 0x1 ADD PUSH2 0x2076 JUMP JUMPDEST POP DUP1 PUSH2 0x2076 JUMP JUMPDEST PUSH1 0x40 MLOAD PUSH3 0x461BCD PUSH1 0xE5 SHL DUP2 MSTORE PUSH1 0x20 PUSH1 0x4 DUP3 ADD MSTORE PUSH1 0x15 PUSH1 0x24 DUP3 ADD MSTORE PUSH21 0x496E76616C69642064656C69766572792074696D65 PUSH1 0x58 SHL PUSH1 0x44 DUP3 ADD MSTORE PUSH1 0x64 SWAP1 REVERT JUMPDEST PUSH1 0x40 MLOAD PUSH3 0x461BCD PUSH1 0xE5 SHL DUP2 MSTORE PUSH1 0x20 PUSH1 0x4 DUP3 ADD MSTORE PUSH1 0x10 PUSH1 0x24 DUP3 ADD MSTORE PUSH16 0x24B73B30B634B2103932B1B2B4BB32B9 PUSH1 0x81 SHL PUSH1 0x44 DUP3 ADD MSTORE PUSH1 0x64 SWAP1 REVERT JUMPDEST PUSH1 0x40 MLOAD PUSH3 0x461BCD PUSH1 0xE5 SHL DUP2 MSTORE PUSH1 0x20 PUSH1 0x4 DUP3 ADD MSTORE PUSH1 0x19 PUSH1 0x24 DUP3 ADD MSTORE PUSH32 0x4F7267616E697A6174696F6E206E6F7420766572696669656400000000000000 PUSH1 0x44 DUP3 ADD MSTORE PUSH1 0x64 SWAP1 REVERT JUMPDEST CALLVALUE PUSH2 0x275 JUMPI PUSH1 0x20 CALLDATASIZE PUSH1 0x3 NOT ADD SLT PUSH2 0x275 JUMPI PUSH1 0x4 CALLDATALOAD SWAP1 PUSH4 0xFFFFFFFF PUSH1 0xE0 SHL DUP3 AND DUP1 SWAP3 SUB PUSH2 0x275 JUMPI PUSH1 0x20 SWAP2 PUSH4 0x7965DB0B PUSH1 0xE0 SHL DUP2 EQ SWAP1 DUP2 ISZERO PUSH2 0x219B JUMPI JUMPDEST POP ISZERO ISZERO DUP2 MSTORE RETURN JUMPDEST PUSH4 0x1FFC9A7 PUSH1 0xE0 SHL EQ SWAP1 POP DUP4 PUSH2 0x2194 JUMP JUMPDEST PUSH1 0xE0 DUP2 ADD SWAP1 DUP2 LT PUSH1 0x1 PUSH1 0x1 PUSH1 0x40 SHL SUB DUP3 GT OR PUSH2 0x74A JUMPI PUSH1 0x40 MSTORE JUMP JUMPDEST PUSH1 0x40 DUP2 ADD SWAP1 DUP2 LT PUSH1 0x1 PUSH1 0x1 PUSH1 0x40 SHL SUB DUP3 GT OR PUSH2 0x74A JUMPI PUSH1 0x40 MSTORE JUMP JUMPDEST SWAP1 PUSH1 0x1F DUP1 NOT SWAP2 ADD AND DUP2 ADD SWAP1 DUP2 LT PUSH1 0x1 PUSH1 0x1 PUSH1 0x40 SHL SUB DUP3 GT OR PUSH2 0x74A JUMPI PUSH1 0x40 MSTORE JUMP JUMPDEST SWAP3 SWAP2 SWAP3 PUSH1 0x1 PUSH1 0x1 PUSH1 0x40 SHL SUB DUP3 GT PUSH2 0x74A JUMPI PUSH1 0x40 MLOAD SWAP2 PUSH2 0x222C PUSH1 0x1F DUP3 ADD PUSH1 0x1F NOT AND PUSH1 0x20 ADD DUP5 PUSH2 0x21E2 JUMP JUMPDEST DUP3 SWAP5 DUP2 DUP5 MSTORE DUP2 DUP4 ADD GT PUSH2 0x275 JUMPI DUP3 DUP2 PUSH1 0x20 SWAP4 DUP5 PUSH1 0x0 SWAP7 ADD CALLDATACOPY ADD ADD MSTORE JUMP JUMPDEST SWAP1 DUP1 PUSH1 0x1F DUP4 ADD SLT ISZERO PUSH2 0x275 JUMPI DUP2 PUSH1 0x20 PUSH2 0x2264 SWAP4 CALLDATALOAD SWAP2 ADD PUSH2 0x2203 JUMP JUMPDEST SWAP1 JUMP JUMPDEST PUSH1 0x4 CALLDATALOAD SWAP1 PUSH1 0x1 PUSH1 0x1 PUSH1 0xA0 SHL SUB DUP3 AND DUP3 SUB PUSH2 0x275 JUMPI JUMP JUMPDEST PUSH1 0x24 CALLDATALOAD SWAP1 PUSH1 0x1 PUSH1 0x1 PUSH1 0xA0 SHL SUB DUP3 AND DUP3 SUB PUSH2 0x275 JUMPI JUMP JUMPDEST PUSH1 0x40 SWAP1 PUSH1 0x3 NOT ADD SLT PUSH2 0x275 JUMPI PUSH1 0x4 CALLDATALOAD SWAP1 PUSH1 0x24 CALLDATALOAD SWAP1 JUMP JUMPDEST DUP1 SLOAD DUP3 LT ISZERO PUSH2 0x22C5 JUMPI PUSH1 0x0 MSTORE PUSH1 0x3 PUSH1 0x20 PUSH1 0x0 KECCAK256 SWAP2 MUL ADD SWAP1 PUSH1 0x0 SWAP1 JUMP JUMPDEST PUSH4 0x4E487B71 PUSH1 0xE0 SHL PUSH1 0x0 MSTORE PUSH1 0x32 PUSH1 0x4 MSTORE PUSH1 0x24 PUSH1 0x0 REVERT JUMPDEST DUP1 SLOAD DUP3 LT ISZERO PUSH2 0x22C5 JUMPI PUSH1 0x0 MSTORE PUSH1 0x20 PUSH1 0x0 KECCAK256 ADD SWAP1 PUSH1 0x0 SWAP1 JUMP JUMPDEST SWAP1 PUSH1 0x1 DUP3 DUP2 SHR SWAP3 AND DUP1 ISZERO PUSH2 0x2323 JUMPI JUMPDEST PUSH1 0x20 DUP4 LT EQ PUSH2 0x230D JUMPI JUMP JUMPDEST PUSH4 0x4E487B71 PUSH1 0xE0 SHL PUSH1 0x0 MSTORE PUSH1 0x22 PUSH1 0x4 MSTORE PUSH1 0x24 PUSH1 0x0 REVERT JUMPDEST SWAP2 PUSH1 0x7F AND SWAP2 PUSH2 0x2302 JUMP JUMPDEST SWAP1 PUSH1 0x40 MLOAD SWAP2 DUP3 PUSH1 0x0 DUP3 SLOAD SWAP3 PUSH2 0x2341 DUP5 PUSH2 0x22F3 JUMP JUMPDEST SWAP1 DUP2 DUP5 MSTORE PUSH1 0x1 SWAP5 DUP6 DUP2 AND SWAP1 DUP2 PUSH1 0x0 EQ PUSH2 0x23B0 JUMPI POP PUSH1 0x1 EQ PUSH2 0x236D JUMPI JUMPDEST POP POP PUSH2 0x236B SWAP3 POP SUB DUP4 PUSH2 0x21E2 JUMP JUMPDEST JUMP JUMPDEST SWAP1 SWAP4 SWAP2 POP PUSH1 0x0 MSTORE PUSH1 0x20 SWAP1 DUP2 PUSH1 0x0 KECCAK256 SWAP4 PUSH1 0x0 SWAP2 JUMPDEST DUP2 DUP4 LT PUSH2 0x2398 JUMPI POP POP PUSH2 0x236B SWAP4 POP DUP3 ADD ADD CODESIZE DUP1 PUSH2 0x235D JUMP JUMPDEST DUP6 SLOAD DUP9 DUP5 ADD DUP6 ADD MSTORE SWAP5 DUP6 ADD SWAP5 DUP8 SWAP5 POP SWAP2 DUP4 ADD SWAP2 PUSH2 0x2380 JUMP JUMPDEST SWAP2 POP POP PUSH2 0x236B SWAP5 POP PUSH1 0x20 SWAP3 POP PUSH1 0xFF NOT AND DUP3 DUP5 ADD MSTORE ISZERO ISZERO PUSH1 0x5 SHL DUP3 ADD ADD CODESIZE DUP1 PUSH2 0x235D JUMP JUMPDEST PUSH1 0x0 JUMPDEST DUP4 DUP2 LT PUSH2 0x23E6 JUMPI POP POP PUSH1 0x0 SWAP2 ADD MSTORE JUMP JUMPDEST DUP2 DUP2 ADD MLOAD DUP4 DUP3 ADD MSTORE PUSH1 0x20 ADD PUSH2 0x23D6 JUMP JUMPDEST SWAP1 PUSH1 0x20 SWAP2 PUSH2 0x240F DUP2 MLOAD DUP1 SWAP3 DUP2 DUP6 MSTORE DUP6 DUP1 DUP7 ADD SWAP2 ADD PUSH2 0x23D3 JUMP JUMPDEST PUSH1 0x1F ADD PUSH1 0x1F NOT AND ADD ADD SWAP1 JUMP JUMPDEST SWAP1 PUSH1 0x5 DUP3 LT ISZERO PUSH2 0x433 JUMPI MSTORE JUMP JUMPDEST SWAP1 PUSH1 0x3 DUP3 LT ISZERO PUSH2 0x433 JUMPI MSTORE JUMP JUMPDEST PUSH1 0x0 SWAP1 DUP1 DUP3 MSTORE PUSH1 0x20 SWAP1 DUP3 DUP3 MSTORE PUSH1 0x40 SWAP3 DUP4 DUP2 KECCAK256 CALLER DUP3 MSTORE DUP4 MSTORE PUSH1 0xFF DUP5 DUP3 KECCAK256 SLOAD AND ISZERO PUSH2 0x245E JUMPI POP POP POP POP JUMP JUMPDEST DUP4 MLOAD SWAP2 PUSH1 0x1 PUSH1 0x1 PUSH1 0x40 SHL SUB SWAP1 CALLER PUSH1 0x60 DUP6 ADD DUP4 DUP2 GT DUP7 DUP3 LT OR PUSH2 0x2755 JUMPI DUP8 MSTORE PUSH1 0x2A DUP6 MSTORE DUP6 DUP6 ADD SWAP2 DUP8 CALLDATASIZE DUP5 CALLDATACOPY DUP6 MLOAD ISZERO PUSH2 0x2741 JUMPI PUSH1 0x30 DUP4 MSTORE8 DUP6 MLOAD SWAP2 PUSH1 0x1 SWAP3 DUP4 LT ISZERO PUSH2 0x272D JUMPI PUSH1 0x78 PUSH1 0x21 DUP9 ADD MSTORE8 PUSH1 0x29 JUMPDEST DUP4 DUP2 GT PUSH2 0x26C3 JUMPI POP PUSH2 0x2681 JUMPI SWAP1 DUP8 MLOAD SWAP4 PUSH1 0x80 DUP6 ADD SWAP1 DUP6 DUP3 LT SWAP1 DUP3 GT OR PUSH2 0x266D JUMPI DUP9 MSTORE PUSH1 0x42 DUP5 MSTORE DUP7 DUP5 ADD SWAP5 PUSH1 0x60 CALLDATASIZE DUP8 CALLDATACOPY DUP5 MLOAD ISZERO PUSH2 0x2659 JUMPI PUSH1 0x30 DUP7 MSTORE8 DUP5 MLOAD DUP3 LT ISZERO PUSH2 0x2659 JUMPI SWAP1 PUSH1 0x78 PUSH1 0x21 DUP7 ADD MSTORE8 PUSH1 0x41 SWAP2 JUMPDEST DUP2 DUP4 GT PUSH2 0x25EB JUMPI POP POP POP PUSH2 0x25A9 JUMPI PUSH2 0x25A5 SWAP4 DUP7 SWAP4 PUSH2 0x2589 SWAP4 PUSH2 0x257A PUSH1 0x48 SWAP5 PUSH2 0x2551 SWAP11 MLOAD SWAP11 DUP12 SWAP6 PUSH32 0x416363657373436F6E74726F6C3A206163636F756E7420000000000000000000 DUP13 DUP9 ADD MSTORE MLOAD DUP1 SWAP3 PUSH1 0x37 DUP9 ADD SWAP1 PUSH2 0x23D3 JUMP JUMPDEST DUP5 ADD SWAP2 PUSH17 0x1034B99036B4B9B9B4B733903937B6329 PUSH1 0x7D SHL PUSH1 0x37 DUP5 ADD MSTORE MLOAD DUP1 SWAP4 DUP7 DUP5 ADD SWAP1 PUSH2 0x23D3 JUMP JUMPDEST ADD SUB PUSH1 0x28 DUP2 ADD DUP8 MSTORE ADD DUP6 PUSH2 0x21E2 JUMP JUMPDEST MLOAD SWAP3 DUP4 SWAP3 PUSH3 0x461BCD PUSH1 0xE5 SHL DUP5 MSTORE PUSH1 0x4 DUP5 ADD MSTORE PUSH1 0x24 DUP4 ADD SWAP1 PUSH2 0x23F6 JUMP JUMPDEST SUB SWAP1 REVERT JUMPDEST PUSH1 0x64 DUP6 DUP8 MLOAD SWAP1 PUSH3 0x461BCD PUSH1 0xE5 SHL DUP3 MSTORE DUP1 PUSH1 0x4 DUP4 ADD MSTORE PUSH1 0x24 DUP3 ADD MSTORE PUSH32 0x537472696E67733A20686578206C656E67746820696E73756666696369656E74 PUSH1 0x44 DUP3 ADD MSTORE REVERT JUMPDEST SWAP1 SWAP2 SWAP3 PUSH1 0xF DUP2 AND PUSH1 0x10 DUP2 LT ISZERO PUSH2 0x2645 JUMPI PUSH16 0x181899199A1A9B1B9C1CB0B131B232B3 PUSH1 0x81 SHL SWAP1 BYTE PUSH2 0x261B DUP6 DUP9 PUSH2 0x27DD JUMP JUMPDEST MSTORE8 PUSH1 0x4 SHR SWAP3 DUP1 ISZERO PUSH2 0x2631 JUMPI PUSH1 0x0 NOT ADD SWAP2 SWAP1 PUSH2 0x24F9 JUMP JUMPDEST PUSH4 0x4E487B71 PUSH1 0xE0 SHL DUP3 MSTORE PUSH1 0x11 PUSH1 0x4 MSTORE PUSH1 0x24 DUP3 REVERT JUMPDEST PUSH4 0x4E487B71 PUSH1 0xE0 SHL DUP4 MSTORE PUSH1 0x32 PUSH1 0x4 MSTORE PUSH1 0x24 DUP4 REVERT JUMPDEST PUSH4 0x4E487B71 PUSH1 0xE0 SHL DUP2 MSTORE PUSH1 0x32 PUSH1 0x4 MSTORE PUSH1 0x24 SWAP1 REVERT JUMPDEST PUSH4 0x4E487B71 PUSH1 0xE0 SHL DUP7 MSTORE PUSH1 0x41 PUSH1 0x4 MSTORE PUSH1 0x24 DUP7 REVERT JUMPDEST PUSH1 0x64 DUP8 DUP10 MLOAD SWAP1 PUSH3 0x461BCD PUSH1 0xE5 SHL DUP3 MSTORE DUP1 PUSH1 0x4 DUP4 ADD MSTORE PUSH1 0x24 DUP3 ADD MSTORE PUSH32 0x537472696E67733A20686578206C656E67746820696E73756666696369656E74 PUSH1 0x44 DUP3 ADD MSTORE REVERT JUMPDEST SWAP1 PUSH1 0xF DUP2 AND PUSH1 0x10 DUP2 LT ISZERO PUSH2 0x2719 JUMPI PUSH16 0x181899199A1A9B1B9C1CB0B131B232B3 PUSH1 0x81 SHL SWAP1 BYTE PUSH2 0x26F1 DUP4 DUP11 PUSH2 0x27DD JUMP JUMPDEST MSTORE8 PUSH1 0x4 SHR SWAP1 DUP1 ISZERO PUSH2 0x2705 JUMPI PUSH1 0x0 NOT ADD PUSH2 0x24AA JUMP JUMPDEST PUSH4 0x4E487B71 PUSH1 0xE0 SHL DUP8 MSTORE PUSH1 0x11 PUSH1 0x4 MSTORE PUSH1 0x24 DUP8 REVERT JUMPDEST PUSH4 0x4E487B71 PUSH1 0xE0 SHL DUP9 MSTORE PUSH1 0x32 PUSH1 0x4 MSTORE PUSH1 0x24 DUP9 REVERT JUMPDEST PUSH4 0x4E487B71 PUSH1 0xE0 SHL DUP7 MSTORE PUSH1 0x32 PUSH1 0x4 MSTORE PUSH1 0x24 DUP7 REVERT JUMPDEST PUSH4 0x4E487B71 PUSH1 0xE0 SHL DUP6 MSTORE PUSH1 0x32 PUSH1 0x4 MSTORE PUSH1 0x24 DUP6 REVERT JUMPDEST PUSH4 0x4E487B71 PUSH1 0xE0 SHL DUP6 MSTORE PUSH1 0x41 PUSH1 0x4 MSTORE PUSH1 0x24 DUP6 REVERT JUMPDEST SWAP1 PUSH1 0x0 SWAP2 DUP1 DUP4 MSTORE DUP3 PUSH1 0x20 MSTORE PUSH1 0x40 DUP4 KECCAK256 SWAP2 PUSH1 0x1 DUP1 PUSH1 0xA0 SHL SUB AND SWAP2 DUP3 DUP5 MSTORE PUSH1 0x20 MSTORE PUSH1 0xFF PUSH1 0x40 DUP5 KECCAK256 SLOAD AND PUSH2 0x2799 JUMPI POP POP POP JUMP JUMPDEST DUP1 DUP4 MSTORE DUP3 PUSH1 0x20 MSTORE PUSH1 0x40 DUP4 KECCAK256 DUP3 DUP5 MSTORE PUSH1 0x20 MSTORE PUSH1 0x40 DUP4 KECCAK256 PUSH1 0xFF NOT DUP2 SLOAD AND SWAP1 SSTORE PUSH32 0xF6391F5C32D9C69D2A47EA670B442974B53935D1EDC7FD64EB21E047A839171B CALLER SWAP4 DUP1 LOG4 JUMP JUMPDEST SWAP1 DUP2 MLOAD DUP2 LT ISZERO PUSH2 0x22C5 JUMPI ADD PUSH1 0x20 ADD SWAP1 JUMP JUMPDEST ISZERO PUSH2 0x27F5 JUMPI JUMP JUMPDEST PUSH1 0x40 MLOAD PUSH3 0x461BCD PUSH1 0xE5 SHL DUP2 MSTORE PUSH1 0x20 PUSH1 0x4 DUP3 ADD MSTORE PUSH1 0xE PUSH1 0x24 DUP3 ADD MSTORE PUSH14 0x139BDD08185D5D1A1BDC9A5E9959 PUSH1 0x92 SHL PUSH1 0x44 DUP3 ADD MSTORE PUSH1 0x64 SWAP1 REVERT JUMPDEST ISZERO PUSH2 0x2832 JUMPI JUMP JUMPDEST PUSH1 0x40 MLOAD PUSH3 0x461BCD PUSH1 0xE5 SHL DUP2 MSTORE PUSH1 0x20 PUSH1 0x4 DUP3 ADD MSTORE PUSH1 0xE PUSH1 0x24 DUP3 ADD MSTORE PUSH14 0x496E76616C696420737461747573 PUSH1 0x90 SHL PUSH1 0x44 DUP3 ADD MSTORE PUSH1 0x64 SWAP1 REVERT JUMPDEST ISZERO PUSH2 0x286F JUMPI JUMP JUMPDEST PUSH1 0x40 MLOAD PUSH3 0x461BCD PUSH1 0xE5 SHL DUP2 MSTORE PUSH1 0x20 PUSH1 0x4 DUP3 ADD MSTORE PUSH1 0xE PUSH1 0x24 DUP3 ADD MSTORE PUSH14 0x139BDD081A5B881D1C985B9CDA5D PUSH1 0x92 SHL PUSH1 0x44 DUP3 ADD MSTORE PUSH1 0x64 SWAP1 REVERT JUMPDEST ISZERO PUSH2 0x28AC JUMPI JUMP JUMPDEST PUSH1 0x40 MLOAD PUSH3 0x461BCD PUSH1 0xE5 SHL DUP2 MSTORE PUSH1 0x20 PUSH1 0x4 DUP3 ADD MSTORE PUSH1 0x11 PUSH1 0x24 DUP3 ADD MSTORE PUSH17 0x105B1C9958591E481C1C9BD8D95CDCD959 PUSH1 0x7A SHL PUSH1 0x44 DUP3 ADD MSTORE PUSH1 0x64 SWAP1 REVERT JUMPDEST ISZERO PUSH2 0x28EC JUMPI JUMP JUMPDEST PUSH1 0x40 MLOAD PUSH3 0x461BCD PUSH1 0xE5 SHL DUP2 MSTORE PUSH1 0x20 PUSH1 0x4 DUP3 ADD MSTORE PUSH1 0x13 PUSH1 0x24 DUP3 ADD MSTORE PUSH19 0x496E646578206F7574206F6620626F756E6473 PUSH1 0x68 SHL PUSH1 0x44 DUP3 ADD MSTORE PUSH1 0x64 SWAP1 REVERT INVALID LOG2 PUSH5 0x6970667358 0x22 SLT KECCAK256 DIV 0xD6 EQ SWAP7 DUP5 DUP7 PUSH3 0xB4B761 0xC3 DUP5 0x1E 0x5C PUSH18 0x7AB5A451D4F75E042327D591272F62D40B64 PUSH20 0x6F6C634300081300332F8788117E7EFF1D82E926 0xEC PUSH26 0x4901D17C78024A50270940304540A733656F0D00000000000000 "},"methodIdentifiers":{"DEFAULT_ADMIN_ROLE()":"a217fddf","DISTRIBUTOR_ROLE()":"f0bd87cc","HOSPITAL_ROLE()":"f6ba6678","PHARMACY_ROLE()":"f0c58ea7","SHIPMENT_MANAGER_ROLE()":"a3f5e472","acceptShipment(uint256,bytes)":"14a5d48d","createShipment(string,string,uint256,uint256,address,uint256)":"032becbc","deliverShipment(uint256)":"e0d51664","getRoleAdmin(bytes32)":"248a9ca3","getShipmentActualDelivery(uint256)":"81655533","getShipmentBatchNumber(uint256)":"6e2989b2","getShipmentCount()":"a9c38aad","getShipmentCreatedAt(uint256)":"ceb6ea08","getShipmentCreator(uint256)":"f4b36051","getShipmentCurrentHolder(uint256)":"7b7392c1","getShipmentEstimatedDelivery(uint256)":"1a948212","getShipmentExpiryDate(uint256)":"5f083e17","getShipmentIPFS(uint256)":"acb2123f","getShipmentLastTemperature(uint256)":"c89958e5","getShipmentLastUpdate(uint256)":"c3a2c901","getShipmentMedicineName(uint256)":"682ba906","getShipmentQuantity(uint256)":"bd0840b8","getShipmentReceiver(uint256)":"22e875cd","getShipmentRequest(uint256)":"6ccb3baa","getShipmentSender(uint256)":"247696b2","getShipmentStatus(uint256)":"ee21259d","getShipmentTempStatus(uint256)":"365fcdee","getTemperatureCount(uint256)":"74c1832e","getTemperatureReporter(uint256,uint256)":"88e2e5e3","getTemperatureTimestamp(uint256,uint256)":"2d6ee32e","getTemperatureValue(uint256,uint256)":"a5aa1deb","getUserRequests(address)":"b337cf74","grantRole(bytes32,address)":"2f2ff15d","hasRole(bytes32,address)":"91d14854","recordTemperature(uint256,uint256)":"b53db1c7","registerOrganization(string)":"22dcdf68","rejectShipment(uint256)":"beb0ae8b","renounceRole(bytes32,address)":"36568abe","requestShipmentAccess(uint256,address,string)":"c5118c21","revokeRole(bytes32,address)":"d547741f","shipmentRequests(uint256)":"411f9161","shipmentTemperatures(uint256,uint256)":"1f9f5996","shipments(uint256)":"2ac08a93","startShipment(uint256)":"09abeffa","supportsInterface(bytes4)":"01ffc9a7","uploadIPFSHash(uint256,string)":"0561a0e6","userRequests(address,uint256)":"263cb6b6","verifiedOrganizations(address)":"069445dd","verifyShipment(uint256,bool)":"1967fa17"}}}}}